:020000022000DC
:1060000000000120BD620200E5620200E7620200BA
:10601000E9620200EB620200ED6202000000000093
:10602000000000000000000000000000EF6202001D
:10603000F162020000000000F3620200F56202005B
:10604000D5970200F7620200A9900200F7620200F1
:10605000F7620200F7620200859B0200B590020021
:10606000F7620200F7620200F7620200F7620200C4
:10607000F7620200F7620200F7620200F7620200B4
:10608000F762020005680200F7620200F96202008E
:10609000A5680200F762020005F90200F76202003B
:1060A000F7620200F7620200F7620200F762020084
:1060B000ED8F0200F7620200000000000000000007
:1060C000F7620200F7620200F7620200F762020064
:1060D000F7620200F7620200F762020000000000AF
:1060E00000000000000000000000000000000000B0
:1060F00000000000000000000000000000000000A0
:10610000000000000000000000000000000000008F
:10611000000000000000000000000000000000007F
:10612000000000000000000000000000000000006F
:10613000000000000000000000000000000000005F
:10614000000000000000000000000000000000004F
:10615000000000000000000000000000000000003F
:10616000000000000000000000000000000000002F
:10617000000000000000000000000000000000001F
:10618000000000000000000000000000000000000F
:1061900000000000000000000000000000000000FF
:1061A00000000000000000000000000000000000EF
:1061B00000000000000000000000000000000000DF
:1061C00000000000000000000000000000000000CF
:1061D00000000000000000000000000000000000BF
:1061E00000000000000000000000000000000000AF
:1061F000000000000000000000000000000000009F
:1062000010B5054C237833B9044B13B10448AFF3F0
:1062100000800123237010BD382C002000000000F6
:106220005C08030008B5034B1BB103490348AFF3F7
:10623000008008BD000000003C2C00205C0803002A
:10624000A3F5803A704700BF174B002B08BF134BD4
:106250009D46FFF7F5FF00218B460F461348144A71
:10626000121A09F0A5FC0E4B002B00D098470D4BDD
:10627000002B00D098470020002104000D000D489D
:10628000002802D00C48AFF3008009F037FC200052
:10629000290004F0D5FE09F01DFC00BF0000080035
:1062A000000000000000000000000120382C002049
:1062B0006436002000000000000000000649074A84
:1062C000074B9B1A03DD043BC858D050FBDC02F09F
:1062D00093FAFFF7B9FF0000F8080300902B0020A5
:1062E000382C0020FEE7FEE7FEE7FEE7FEE7FEE7CC
:1062F000FEE7FEE7FEE7FEE700B5294B1A6885B02A
:1063000022B1284AD2F80423D2073DD4264B1A687A
:1063100022B1244AD2F8042390072AD4234B1A68C6
:1063200022B1204AD2F80423510717D4204B1A680F
:106330008AB11C4AD2F8042312070CD500221A6035
:106340001A681C4B0092009A1B684FF4867005B0C7
:106350005DF804EB184705B05DF804FB00221A60F5
:10636000144A1B6801934FF484701368019A98478C
:10637000DCE700221A600F4A1B6802934FF4827018
:106380001368029A9847C9E700221A60094A1B68F5
:1063900003934FF480701368039A9847B6E700BFE1
:1063A000003101400030014004310140083101401A
:1063B0000C310140542C00204FF0A042044B1B5CD8
:1063C000D2F80405D840C04300F00100704700BF78
:1063D000C4060300044B195C4FF0A04201238B401C
:1063E000C2F80C35704700BFC4060300044B195CAB
:1063F0004FF0A04201238B40C2F80835704700BF20
:10640000C40603004FF0A04310B44FF480204FF4B3
:1064100000344FF400214FF48012C3F80845C3F84C
:106420000805C3F80815C3F808255DF8044B704744
:106430004FF0A04310B44FF480204FF400344FF4D9
:1064400000214FF48012C3F80C45C3F80C05C3F8C3
:106450000C15C3F80C255DF8044B7047074B4FF043
:10646000A041185CD1F804350122824022EA0300E1
:106470001340C1F80805C1F80C357047C406030085
:106480004FF0A042044B1B5CD2F81005D840C0432B
:1064900000F00100704700BFC00603000D2809D0BE
:1064A0000E2809D00F2809D010280CBF03204FF068
:1064B000FF3070470020704701207047022070476E
:1064C000014B185C704700BFC0060300C20730B420
:1064D0001AD54FF0A0430322C3F844274FF40035E8
:1064E000C3F848274FF48024C3F84C274FF4002109
:1064F000C3F850274FF48012C3F80855C3F8084575
:10650000C3F80815C3F8082583070AD54FF0A04340
:106510000C22C3F83427C3F83827C3F83C27C3F844
:10652000402730BC704700BF2DE9F04F3D4B93F83A
:1065300000E087B0BEF1000F5FD00027DFF8F080E9
:1065400002973C46012506E0029B013302939DF829
:106550000840A64551D9344BD8F800101E68D8F829
:10656000042016F83400A0F1200BC0F1200305FA36
:106570000BFB25FA03F34BEA030305FA00FC01EADF
:106580000C0902EA030A06EBC40759EA0A0B03974F
:10659000DAD021EA0C0122EA0303C8E9001303F070
:1065A000E7FA16F83430214AC3F1200CD2E900672B
:1065B000A3F1200E614600FA0EF405FA0EF225FA58
:1065C00001F105FA03FE20FA0CFC0A430EEA06016B
:1065D00044EA0C0404913A4000FA03F1009101945A
:1065E0000592DDE90412DDE900BC624508BF5945AA
:1065F00006D00C4B93F800E0A6E707B0BDE8F08F9B
:1066000003994A68002AF4D04978A1F10101B1FA4E
:1066100081F14909091AB1FA81F1490918469047EF
:10662000E7E700BF582C0020902C0020802C002091
:10663000882C00202DE9F8438046224800F0DEFB3C
:10664000E0B9214D4FF0010CD5E90023A8F1200459
:10665000C8F120012CFA01F10CFA04F40C430CFAF5
:1066600008F902EA090603EA040756EA070107D017
:1066700022EA090223EA0404C5E90024BDE8F883FC
:10668000404603F075FA114B1E68A8B9586826EA0F
:10669000090620EA0400D5E900211E600C4E58606E
:1066A00042EA09020C432A6031686C600548BDE883
:1066B000F843002200F04CBB586849EA0606204324
:1066C000E9E700BF602C0020882C0020802C0020EF
:1066D0005C2C0020042A3BD92DE9F04182B01446FD
:1066E00005460E4603F0F8F868B31E491E4A1F4BD4
:1066F0000D601F481F491C60167000230022741E85
:10670000C0E90023C1E90023E4B21EB3DFF87080C2
:1067100005EBC4040027032602E0AC421AD01C4655
:10672000A37820788DF80530424601A98DF80670CF
:106730008DF8046003F0DAF8A4F108030028ECD027
:1067400002B0BDE8F08103F07BF80028CDD0F7E778
:1067500007207047084A0948002100F0E7FA02B014
:10676000BDE8F081902C0020582C00205C2C0020EB
:10677000802C0020882C002029650200C806030018
:106780003566020070B5084D2B785BB1074E0024CA
:106790003368012113F8340003F08CF92B780134AD
:1067A000A342F5D8002070BD582C0020902C00206A
:1067B00000B585B00346002101AA44F20100CDE9ED
:1067C0000111039300F004F805B05DF804FB00BF6D
:1067D00072B6094B1B68DB0700D500BEBFF34F8FB5
:1067E0000649074BCA6802F4E0621343CB60BFF36B
:1067F0004F8F00BFFDE700BFF0ED00E000ED00E0CF
:106800000400FA05F8B52049204B0024C1F84041A6
:10681000C1F84441C1F84841C1F84C41C1F80041B8
:10682000C1F804411B6833B31948D1F80455016815
:106830001A686D1A25F07F45AA4227460DD8197CA3
:10684000DE69AD1A144419B1D3E905201F749047CD
:106850001EB133461A68AA42F1D90E490E4A0B7886
:1068600012789A4208D00D490D4A41F823404FF45E
:106870008013C2F80031F8BD531CDBB2022B08BFF5
:1068800000230B70EFE700BF00100140B42D002083
:10689000B02D0020AD2D0020AC2D0020A42D002017
:1068A00000E100E02DE9F04FB34AB44913780978CC
:1068B000994285B000F088810133DBB2022B08BF1A
:1068C0000023AF481370AF4A0568DFF8D08252F852
:1068D0002310D8F800606B1823F07F430360002E6C
:1068E00000F0C18100200746044684463346AE4688
:1068F00013E0D868DD69C3F800C0891A144438B1C0
:106900000EEB040222F07F42C3E90120DF611F4643
:106910000120002D00F05F812B461A688A42E8D9D9
:10692000002800F08B81C8F800309946521A1A608E
:1069300001230093944B954EDFF864A243F00103CA
:1069400001934D464FF0000B002F31D0D7E90130B5
:106950003C46FF698A4ADFF84CC21268991A21F056
:106960007F41614500F2DD800B1823600022012188
:10697000C4E90122E2612174002D00F0F3802A684D
:106980009A4280F0E880294605E0D1F800E09E4573
:1069900080F0CF8072460846C9699C469B1A002940
:1069A000F3D12360E161C4612C462546002FCDD18F
:1069B00070783378984247D09C460CEB4C0CB278F8
:1069C00006EBCC0C591CCBB29A429CF804203370D5
:1069D00004BF00233370022ADCF8084024D0032AC5
:1069E00018D0012AE6D1227C002AE3D1DCF80C3051
:1069F0006360DCF81000A060DCF81410E1609AF825
:106A000000E0DCF81810A161BEF1000FA2D06260B6
:106A100013469FE7002DCDD000232B74ED69002D88
:106A2000FBD1C8F80050C3E755B1AC4200F0BC80C0
:106A30002A4601E0944239D01146D269002AF9D1A0
:106A4000002222749842B7D1BBF1000F01D1A945B1
:106A500041D0002D44D04A4A4D4B1468D3F8046508
:106A60004C4FD5F800803A78351B25F07F4503352B
:106A7000002A00F0B580464AA8452CBF444464195A
:106A800024F07F44C2F84045D2F804359B1BA41B78
:106A900023F07F4324F07F440333A34200F2B98004
:106AA00000238AF8003005B0BDE8F08F8C427DD01D
:106AB000E0692268C861002858D0AC4603681344D6
:106AC0000360AC4552D0002233787078227465465A
:106AD0004FF0010BB6E7009B002BE1D0002DBAD19F
:106AE0002B4E2D4A284C4FF400314FF480330127B0
:106AF000C2F880103C43C6F848334FF43C60C6F8F7
:106B000008337760A0471E4BB7604FF43C601D60B0
:106B1000A047204B1D7000238AF8003005B0BDE867
:106B2000F08FD31A23F07F4383420BD2C31A236022
:106B30001CE77244A2EB0C020A602360E161C461AD
:106B40002C4632E700230122C4E90033A360E3614D
:106B500022743DB12A68C8F80040D31A2B60E56161
:106B6000254623E7C8F8004025461FE70022337872
:106B70007078227466E700BFAC2D0020AD2D002098
:106B8000B02D0020A42D0020D0060300942C00205E
:106B900000100140A12D002000E100E0B42D0020F4
:106BA000A02D0020FEFF7F0029462A46D5F81CC0F4
:106BB000C8F800C0BCF1000F42D0D0691268C861AB
:106BC00000287FF47BAF7CE7DFF8B4800027D8F89B
:106BD00000900097AEE6A946C8F800500090A9E6DC
:106BE0002349244A4FF48030C3F844034FF001098D
:106BF000C3F804034FF40030C1F8800142F00102F1
:106C00000860C3F800904FF43C60904787F800900C
:106C100031E7184BD2F80415C2F8401543F00103D0
:106C20004FF43C609847124B4FF40032C3F80021F8
:106C300000238AF8003005B0BDE8F08FB14675E654
:106C4000CDE902210C4A0D4801239360C0F800C031
:106C50008AF800304FF43C60019B9847DDE902213F
:106C6000D8F800C0A9E70123B1463746009361E692
:106C700000E100E0D006030000100140B02D00202C
:106C8000B42D00202DE9F8431F4D204E204FDFF892
:106C900098804FF480334FF400324FF00109002404
:106CA000C6F8802047EA0907C5F848334FF43C602E
:106CB000C5F80833C5F80490B847C5F808904FF4F4
:106CC0003C60C8F80040B847124A134B13491C6097
:106CD0001470134B134A0C700B2114701C809970A4
:106CE0004FF48012E023C6F8802186F81433326016
:106CF000C5F8084586F81133D5F80435C8F80030D2
:106D00002046BDE8F88300BF0010014000E100E02C
:106D1000D0060300A12D0020B42D0020AC2D0020B2
:106D2000942C0020AD2D0020B02D0020074B9B7827
:106D30003BB142B138B10368187C10B959745A613B
:106D40007047082070470720704700BF942C002030
:106D50002DE9F043264EB37883B0002B3AD0044699
:106D6000002837D004290D4638D9436993B3437CB2
:106D70000027012B0DF107000CBF8846B84691464D
:106D80008DF8077000F076F87378B0783278591C77
:106D9000C9B2884208BF39468A4223D003EB430375
:106DA00006EBC3030120134A18719C60D2F8042536
:106DB0009DF807007170C3E90325C3E9058900F058
:106DC0007FF80D4B4FF480123846C3F8002103B012
:106DD000BDE8F083082003B0BDE8F083072003B0CE
:106DE000BDE8F0839DF8070000F06AF80420EEE7A4
:106DF000942C00200010014000E100E070B51B4E13
:106E0000B37882B04BB3044638B343692BB3002543
:106E100005740DF107008DF8075000F02BF873781A
:106E2000B07831785A1CD2B2904208BF2A469142BB
:106E300016D003EB430306EBC30302219DF80700C2
:106E40009C601971727000F03BF8094B4FF480128E
:106E50002846C3F8002102B070BD082002B070BD02
:106E60009DF8070000F02CF80420F4E7942C002093
:106E700000E100E070B4EFF3108472B60D4B9A6835
:106E8000AAB90D490D4E01259D60D1F880503540BD
:106E90001D60C1F88060D1F884505D604FF0FF3311
:106EA000C1F88430027004B962B670BC7047012327
:106EB0000370F8E75436002000E100E0FC06FFBD57
:106EC000094B9A687AB170B910B4EFF3108172B6B9
:106ED000064A1C6814605C685460986001B962B628
:106EE0005DF8044B704770475436002000E100E025
:106EF000F0B543688C461BB1314AD468A3423AD2FC
:106F00000023304EACF8003073684FF0010E03F5EB
:106F100080544FF6FF7708339C420ED8BEF1020F23
:106F2000ACF800E006F1140648D0736803F580540D
:106F300008339C424FF0020EF0D91A680132EDD0AE
:106F40005A88033203EB82029442E7D39D88BD4204
:106F500007D01D882DB105689968A94205D0134650
:106F6000DAE79442DAD91346E7E7174A4360138910
:106F700003810120F0BD12699342C1D813F00305CB
:106F8000BED1114A048912899442B9D104689A6821
:106F90009442B5D10B484268934203D902F580521E
:106FA000934207D38269934208D902F580529342F3
:106FB00004D20125ACF800500120F0BD0020F0BD46
:106FC000202C0020F82D0020DC2D00202DE9F04F92
:106FD000AC4E89B004464FF6FF773568002D00F0BF
:106FE000C9802A78531E052B00F23082DFE803F0B7
:106FF0005B2222030340002C40F0C3802B79012B3D
:1070000000F08881022B00F00581002B00F0A881A0
:107010000DF10C08C8E902440394C8F810400F248D
:1070200004942B78013B052B4CD8DFE803F0746502
:1070300084789848B5F814A0002C40F0B480DFF8AC
:107040006C92A97D0AEB8A0309EB83034FEA8A0855
:107050001C895B6803EB8404062900F27884DFE86E
:1070600011F0D402E302F60209038302B9026902B5
:10707000002C40F08680DFF830C29CF80C30002BEA
:1070800000F02D819CF800308CF80C40013B062B61
:1070900000F2DC81DFE813F007041102E401F901DA
:1070A000DA013802B701002C76D12B79032B00F2DC
:1070B000DD80DFE813F008019E00FD00B800052325
:1070C0008DF80C30704C04F1100554F8043B404628
:1070D00003B19847A542F8D16C496D48002434604B
:1070E00001F0BEF86B48012101F020F900287FF47F
:1070F00074AF09B0BDE8F08F01238DF80C302B89F7
:10710000ADF81830AB88ADF81A30EB680593002362
:107110008DF81C30D6E700238DF80C30D2E703231E
:107120008DF80C30EB88ADF818302B89ADF81A309B
:10713000EB680593C6E702238DF80C302B89ADF878
:107140001830AB88ADF81A30EB680593AB7DA3F12E
:107150000603B3FA83F35B098DF81C30B2E704230E
:107160008DF80C30EB88ADF818300023ADF81A30EC
:107170000593A7E74549464801F042F805463060C7
:107180002FE701240DF10C080023C8E90033C8E9FA
:107190000233C8F8103043E73F4B00225A60012405
:1071A0000DF10C08F0E7AB7DDFF80091022B08D958
:1071B0000AEB8A0209EB8202EB88118903330B4444
:1071C00013814FEA8A08D044EB8809EB8809C3F59C
:1071D0007F43B9F80A200DF10C08FD331344002257
:1071E000C8E90322A9F80A30C8F80820039201244C
:1071F00016E7DFF8B89099F80030022B00F07283A0
:1072000099F81430022B00F07D83234B01210022DA
:1072100019705A600DF10C080024C8E90344C8F83D
:1072200008400394FCE61D4C1D4A21681D48DFF808
:107230007C904FF0000885F804800823CDF800808A
:1072400001F082F8184B25685B88A18803EB830363
:1072500009EB830209F823805368236002235560F9
:107260001181A38000283FF444AF35680A4A0DF12C
:107270000C080023C8E9023353600393C8F81030A8
:107280000E24CDE6F42D0020C42D0020EC2D00208E
:10729000202E0020302E0020D42D0020342E00205F
:1072A000DC060300202C0020DC2D0020F82D00201F
:1072B000BE4ABF481168002302242B71948001222A
:1072C00001F074F8CEE7B94BBA4A1968B8480123FF
:1072D0002B7100230093082301F036F8C2E79CF8D5
:1072E0000030072B09D8DFE813F01002080008006F
:1072F000F20144028E008E003E02013B062B00F29A
:10730000A580DFE813F0D002DA00AD00C200A300D0
:1073100001018000A84B1B78002B00F0B482DFF83D
:107320009CC2BCF80480B8F1010F12D8DFF8A0921B
:1073300008EB8802204609EB8202137813B308F1A8
:10734000010399B201299846ACF8043002F1140205
:10735000F3D99A480822002108F02AFC356859E739
:1073600002232B71CDE904440DF10C08EB68039363
:1073700040460DF10A01FFF7BBFD002840F08D816A
:107380000A2401E75368DCF8001003F5805E03F17E
:10739000080A002900F070824B88033301EB830157
:1073A0008E4540F26D820B68013300F069824B8894
:1073B000033301EB83039E45C0F06282B1F804B051
:1073C000BB4518D00C88B4B1EB88CCF800105B45F5
:1073D000DFD1002300937A4A7548042300F0B4FFFC
:1073E000002840F0AC8208EB880809EB88090123EB
:1073F00089F810307DE69E4540F2428219460B68BE
:107400000133D4D13CE2694B6A4A196868480023C9
:107410000093CCF8043007238CF80030082300F0E8
:1074200093FF0446002C3FF464AE35680DF10C0860
:1074300041F61D5200239442C8E90333C8F80830CE
:10744000039308BF1C463FF4EBAD29E20DF10C0895
:107450000023C8E90333C8F8083003930F24DFE59D
:10746000DCF804205148538884880168504803336D
:107470009BB29B0001EB84010024009403248CF850
:10748000004000F061FF0446CCE7BCF80230DFF8B2
:10749000409103EB830309EB8309D9F80C30002BEF
:1074A00040F0CC8104228CF80020D9F80410404828
:1074B000012200F07BFF0446B4E7BCF80200DFF8CD
:1074C0001091DCF8042000EB800309EB83038500B6
:1074D000596801F58054002A40F0128101F1080238
:1074E000A242C0F05E81284409EB8009D9F80C3033
:1074F000002B40F0A38104208CF8000001222C48CE
:1075000000F054FF04468DE7BCF80220DFF8C0907D
:107510009300134409EB830906200023D9F80410D3
:10752000284A00938CF800000823214800F00CFF43
:10753000044677E72A4641F61D5408EB0A0109EB99
:107540008101EB880889033303440B81D044EB8825
:1075500009EB8809C3F57F43B9F80A10FD330B44E2
:107560001546A9F80A3061E71748AB691749036067
:107570004FF0000BC0F804B0FFF7BAFC002800F091
:1075800095810223AB7504230948CDF800B021464C
:10759000EA1800F0D9FE00283FF4ABADAB7D3268AD
:1075A000022B4FF00E04D1D9C7E700BF342E0020C4
:1075B000202C0020E4060300D42D0020402E0020C3
:1075C000D8060300DC060300B82D00203C2E002066
:1075D000F82D0020BC4BBD4A1C885168BC48BD4AF0
:1075E00000234FF0060C85F816C00093042300F02A
:1075F000ABFE0028D2D104EB840409EB84090123FB
:1076000089F8103009B0BDE8F08F02230022AB7575
:1076100004230092AE482146EA1800F095FE0028A7
:10762000BCD109B0BDE8F08F032A0CBF05230623A7
:107630000022AB75A6480092211D042305F1080223
:1076400000F082FE0028A9D109B0BDE8F08F2B69B7
:107650009F48002B14BF032301230022AB7504F1C4
:1076600008010092042305F10C0200F06DFE0028D1
:1076700094D13EE5EB882A6995484FF0010C04F15E
:107680000C01002485F816C09B00009400F05CFEFD
:10769000002883D109B0BDE8F08F04998D4A8B880A
:1076A000EB800B882B818A4800940423BDF80A40A4
:1076B00000F04AFE002840F00381874B04EB84046D
:1076C00003EB84040123237409B0BDE8F08FBCF8F8
:1076D0000200824DDFF80092DCF80420AB88548869
:1076E00000EB800109EB81010333496823444FF02B
:1076F000020EAB8001F5805400FA0EF58CF800E024
:107700005388033302EB8302EAE6DFF8CC91BCF83E
:10771000081099F8142099F80030B2FA82F2520950
:107720000131B3FA83F35B098CF80B20ACF8081035
:10773000002201218CF80A30ACF802208CF80C20D1
:107740008CF80010002B4DD0DFF88C91D9F80C305C
:1077500000228CF80A20002B44D199F81020002A2E
:1077600040D018464EE001238CF800309CF80A30D7
:10777000E8E7BCF80220DFF86091584902EB820389
:1077800009EB830308685D688C88586002201C81BF
:107790000D60888002FA00F3BBE6A342BFF4A3AEFB
:1077A0001A46136801333FF49EAE5388033302EB4D
:1077B0008303A3423FF697AEB2F804E0BE45ECD097
:1077C000B2F800E0BEF1000FE7D0CCF80420434C43
:1077D0005388A58821683E4803339BB29B0001EB88
:1077E000850149E69CF80B30B3B3DFF8EC90D9F88B
:1077F000203000228CF80B2073BB99F824305BB347
:10780000012318469D00E91809EB8101DCF80420EA
:107810004968ACF8020001F58054002A00F0948019
:107820005088033002EB800294426DD82B4409EB60
:107830008309D9F80C30002B3FF45DAE274B244868
:10784000196802229A8005228CF800200023012268
:1078500000F0ACFD0446E5E50DF10C080023C8E995
:107860000333C8F808308CF80030ACF80230CCF89C
:1078700004300393FFF7D4BB51468E453FF693ADDA
:10788000CCF800005BE50DF10C08214614480822F5
:1078900008F08EF9C8E902440394C8F810400224A5
:1078A0003568FFF7BDBB9CF80A304BE70DF10C08BB
:1078B000C8E9020003900A24C8F81000FFF7B0BB23
:1078C00035680E2460E400BF3C2E0020B82D002057
:1078D000202C0020D8060300F82D0020342E002094
:1078E000402E002000239A001A4409EB8203002056
:1078F00059680090082309F82200164A164800F03B
:1079000023FDAFE40123EEE7106801308ED05088EC
:10791000033002EB8000844288D3B2F804E0BE4515
:1079200005D0B2F800E0BEF1000F7FF44EAF844204
:107930007FF67CAF024610680130E8D176E7356803
:107940000E240DF10C081FE401F108026CE72A4631
:107950000F24F2E5DC060300202C00204068FFF72E
:1079600035BB00BF20B370B50D4682B0E9B10DF153
:1079700006010446FFF7BCFA10B90A2002B070BD38
:10798000BDF806000B4B666800EB800003EB80003F
:1079900001210C3000F0BCFC2E60636801220C3326
:1079A00000206B60A27202B070BD052002B070BDF5
:1079B00005207047F82D002000B310B582B00DF1FE
:1079C00006010446FFF794FAA8B1BDF806300C4A48
:1079D00003EB830302EB8303DA684AB1A27A3AB17C
:1079E000DA680021013A0846DA60A17202B010BDDF
:1079F000062002B010BD0A2002B010BD052070475D
:107A0000F82D00201E4B1B7803B328B3CB1C9BB270
:107A100040F2FD3293421CD8F0B41A4A16783EB9AF
:107A2000558914892C441C44A4B2B4F5806F16D334
:107A3000147D3CB9D58B948B2C441C44A4B2B4F572
:107A4000806F19D307231846F0BC704702231846ED
:107A50007047092318467047052318467047374674
:107A6000BC003C4402EB84022B44538106804180DD
:107A700000231846F0BC704701263746F0E700BFE8
:107A8000D42D0020F82D0020134B1A78D2B10346D4
:107A900000B30288022A1BD810B41048598802EBA0
:107AA000820200EB82028C1C508984420CDAC1F500
:107AB0007F41FD310024014451811C6020465DF866
:107AC000044B70470220704704205DF8044B704758
:107AD0000420704705207047D42D0020F82D002089
:107AE0002DE9F0474E4B1B7882B073B30C4600294A
:107AF00041D00A884FF6FF739A4221D04B88FBB1E0
:107B00004D6815F0030531D1B1F8089009F1030370
:107B10009BB240F2FD3293422FD8424A1178074679
:107B200039B9508911890144194489B2B1F5806F7E
:107B300025D3117D71B10725284602B0BDE8F08735
:107B40000425284602B0BDE8F0870225284602B089
:107B5000BDE8F087D08B918B0144194489B2B1F50F
:107B6000806FE8D24FF0010841460AE0032528461D
:107B700002B0BDE8F0870525DEE70925DCE7A84669
:107B800029464FEA810A8A4402EB8A0A034401A982
:107B90002548AAF80A3000F0F5FA1C220646002112
:107BA00008F006F8002E2FD002234FF0000AA6F8A6
:107BB0001480337086F816A06368336101211B4876
:107BC00000F0A6FBF0602388338163881648B380F9
:107BD00001A9A6F80AA0A6F8069000F001FB47B19B
:107BE000C7F804A0F268124B3A601B8987F80AA014
:107BF0003B811048012100F07DFB044600289BD109
:107C0000FFF7E4F9254697E7BAF80A30C9F57F4946
:107C100009F1FD099944AAF80A9008258CE700BFEC
:107C2000D42D0020F82D0020202E0020F02D002043
:107C3000DC2D0020302E00202DE9F04383B0002AF7
:107C40004BD0384B1B78002B55D00C46002944D024
:107C500009884FF6FF73994248D06388002B45D0BE
:107C6000656815F003054BD101A907462E48B2F807
:107C70000080B2F8029000F085FA1C2206462946E0
:107C800007F096FF002E3DD00223B575A6F81480AC
:107C90003370636833610121244800F039FBF060E0
:107CA0002388338163882048B38001A9A6F8069011
:107CB000758100F095FA37B17D60F2681C4B3A602F
:107CC0001B89BD723B811B48012100F013FB044658
:107CD00040B1284603B0BDE8F0830525284603B02F
:107CE000BDE8F083FFF772F92546F2E70425284640
:107CF00003B0BDE8F0830225284603B0BDE8F08359
:107D00000325E6E70C4B08EB880803EB8808C9F568
:107D10007F49B8F80A3009F1FD099944A8F80A909A
:107D20000825D6E7D42D0020202E0020F02D00209D
:107D3000DC2D0020302E0020F82D00202DE9F0470A
:107D400082B060B34F4B1B78002B3ED00C4631B352
:107D50000A884FF6FF739A4232D04B8883B34E683D
:107D600016F0030636D1B1F808A00AF103039BB25E
:107D700040F2FD3293422FD8434A1178054639B973
:107D8000518910890844184480B2B0F5806F25D31A
:107D9000117D49B10726304602B0BDE8F0870526BF
:107DA000304602B0BDE8F087D18B908B0844184470
:107DB00080B2B0F5806FEDD24FF0010948460FE078
:107DC0000426304602B0BDE8F0870226304602B0F5
:107DD000BDE8F0870326DEE70926DCE7B14630463A
:107DE0004FEA8008804402EB88080B442748A8F833
:107DF0000A3001A900F0C6F91C220746002107F04D
:107E0000D7FE002F32D04FF000080323A7F81490BC
:107E10003B7087F8168063683B6101211C4800F0C5
:107E200077FAF86023883B816388BB800423A7F836
:107E300006A0BB752B68BB6101A91448A7F80A808E
:107E400000F0CEF9C5F80480FA68124B2A601B894D
:107E5000114885F80A802B81012100F04BFA044675
:107E6000002898D1FFF7B2F8264694E7B8F80A3010
:107E7000CAF57F4A0AF1FD0A9A44A8F80AA0082622
:107E800089E700BFD42D0020F82D0020202E0020EF
:107E9000F02D0020DC2D0020302E002070B51B4B73
:107EA0001B7882B00BB34FF6FF739842044624D080
:107EB00001A9174800F066F91C220546002107F0C9
:107EC00077FEB5B105230126EC8001A92B7010487F
:107ED0002E7100F085F90F48314600F00BFA044688
:107EE00078B10024204602B070BD0224204602B0C2
:107EF00070BD0824204602B070BD0424204602B0A4
:107F000070BDFFF763F8204602B070BDD42D00208D
:107F1000202E0020302E00202DE9F043304C247814
:107F2000002C56D0002A57D0002B55D0B3F804E0CF
:107F3000BEF1010F14D82B4E0EEB8E0406EB840617
:107F40004FF6FF774FF0000C34785CB10EF101046E
:107F5000A4B2022C9C8006F114064FF0010EF3D15E
:107F60000A2031E01C68756805F5805874B365888F
:107F7000033504EB8504444505D3C3F800C0E5E7A9
:107F8000A845FAD92C4625680135F6D06588033511
:107F900004EB8505A845F0D3B4F80490B945EFD0BB
:107FA000B4F80090B9F1000FEAD01C60A5888542B2
:107FB000D9D125888D42D6D1A168116019680A4BA4
:107FC00051601B8913810020BDE8F08305F108048E
:107FD000D1E70220BDE8F0830520BDE8F08300BFB3
:107FE000D42D0020F82D0020DC2D00202D4B1B78F7
:107FF000002B52D0002952D0002A50D02DE9F04158
:108000009688012E13D8284D06EB860305EB8305D1
:108010004FF6FF774FF0000C2B7853B1731C9BB2D7
:10802000022B938005F114054FF00106F4D10A20CC
:108030002EE013686C6804F5805E5BB35C880334E3
:1080400003EB8403734505D3C2F800C0E6E7A645F9
:10805000FAD923461C680134F6D05C88033403EB5C
:108060008404A645F0D3B3F80480B845EFD0B3F844
:108070000080B8F1000FEAD013601C888442D9D187
:108080009B680B601268094B4A601B890B810020BA
:10809000BDE8F08104F10803D4E702207047052011
:1080A000704700BFD42D0020F82D0020DC2D0020CB
:1080B0002D4B1B78002B52D0002952D0002A50D0D3
:1080C0002DE9F0419688012E13D8284D06EB860342
:1080D00005EB83054FF6FF774FF0000C2B7853B17B
:1080E000731C9BB2022B938005F114054FF001061F
:1080F000F4D10A202EE013686C6804F5805E5BB34F
:108100005C88033403EB8403734505D3C2F800C0D5
:10811000E6E7A645FAD923461C680134F6D05C8808
:10812000033403EB8404A645F0D3B3F80480B845C8
:10813000EFD0B3F80080B8F1000FEAD013609C884C
:108140008442D9D19B680B601268094B4A601B8935
:108150000B810020BDE8F08104F10803D4E7022080
:1081600070470520704700BFD42D0020F82D002057
:10817000DC2D002020B119B103680B60002070478E
:108180000520704730B482B050E8013F9DB2C489E9
:1081900025448489A54228BF2D1B0489A54202BF1E
:1081A000BFF32F8F002207E0C5EA030540E8015422
:1081B000002CE9D14FF001028DF803200193019BBF
:1081C0009DF803200B602AB10B880068184402B0A8
:1081D00030BC704702F0FF03184602B030BC704755
:1081E0000A884B889A4201D00020704750E8012F3E
:1081F000C2EA024240E80123002BF7D10120704778
:1082000030B482B050E8023F1FFAA3F5C488A542FB
:1082100002BFBFF32F8F00220DE0C489254484895B
:10822000A54228BF2D1BC3EA054540E80254002C97
:10823000E8D14FF001028DF803200193019B9DF8D6
:1082400003200B602AB14B880068184402B030BC90
:10825000704702F0FF03184602B030BC704700BF01
:108260000A884B889A4201D00020704750E8022FBC
:10827000C2EA224240E80223002BF7D101207047D6
:108280004A09012301F01F0100EB820003FA01F10A
:1082900000F014B801F01F0201234909934000EBDC
:1082A0008100D94300F018B84B0901F01F0150F8C4
:1082B0002300C84000F00100704700BF10B403461F
:1082C00053E8002F42EA010043E8000494F0000F55
:1082D000F6D15DF8044B704710B4034653E8002F05
:1082E00002EA010043E8000494F0000FF6D15DF8C3
:1082F000044B704710B4034653E8000F00EB010233
:1083000043E8002494F0000FF6D15DF8044B704769
:1083100010B4034653E8002F02EB010043E80004C9
:1083200094F0000FF6D15DF8044B704710B403468B
:1083300053E8002FA2EB010043E8000494F0000F83
:10834000F6D15DF8044B704750B32DE9F0414AB3C4
:10835000D0F800E0BEF1000F26D01E46EBB1476812
:10836000D7F80480B3FBF8F708FB1737AFB942EA38
:108370000105AD070ED1C568A9420BD3046901F10F
:10838000FF3C6644A64205D8DEF80C40A446BDE892
:10839000F04160471020BDE8F0810920BDE8F08180
:1083A0000E2070470E20F6E70820F4E700B3F0B582
:1083B000D0F800C0BCF1000F1CD0BAB14768D7F8A4
:1083C00000E00EF1FF370F420ED1C768B9420BD360
:1083D00004694D1E0EFB0255A54205D8DCF810407D
:1083E000A446BDE8F04060471020F0BD0920F0BD74
:1083F0000E2070470820F0BD18B103680BB1DB698F
:10840000184770B50B4B0C4C0C4E1B1BA6FB0326E0
:10841000132B4FEA161688BF002509D9236820467A
:108420000135143413B1DB69984710B9B542F5D35F
:10843000002070BD342C0020202C0020CDCCCCCCD2
:1084400029DF704728DF7047034B187A0122B0FA02
:1084500080F05A7440097047582E002030B5394DCD
:108460002B7A87B0002B39D0374B1C6802232B7234
:108470002379002B3DD0012B24D022689368C3B10F
:108480000023CDE9033302930093A36805930323EC
:1084900001932379002B48D0012B07D1E368616950
:1084A00004911B03022102938DF800109368684623
:1084B00098470023254926482B726B60FFF7D0FEB2
:1084C00007B030BDD4E903031844FFF7BBFF20B366
:1084D0001128D2D101232B7207B030BD1B491C4893
:1084E000FFF78EFE184B044618600028BED1686066
:1084F000E6E7D4E90520121AB2F5805F28BF4FF4F1
:108500008052D4E903139208012A38BF01220144A2
:108510001844FFF795FF0028DAD12B7C002BCFD130
:108520000146022000F016F8CAE72069E16801233D
:10853000CDE902018DF800306369049393686846C1
:108540009847B6E7582E0020702E00206C2E002091
:10855000482E0020831E012B3FD810B5334C237AC0
:1085600086B0002B37D0022B31D103283AD0304BC4
:1085700000221B68E2601A79002A40D0012A26D125
:10858000D3E9042101328A421A6120D100202072ED
:1085900019688A68BAB10022CDE9032202920092DA
:1085A0009A68019005921A79002A35D0012A07D1DC
:1085B000DA685B6904931303022202938DF80020AA
:1085C0008B68684698471B491B48FFF749FE637C48
:1085D00023B9FFF743FF06B010BD704707F07CF9E1
:1085E00006B010BDE3680133082B01D8E360EEE765
:1085F0000F4B00221B68E26022720D20C8E7D3E90E
:108600000512881AB0F5805F94BF121802F58052E7
:1086100091429A61DBD1B9E7012218698DF80020F7
:10862000DA685B690493CDE90202C9E7582E00209D
:10863000702E00206C2E0020482E002000F0FD033C
:10864000012B00D0704730B53B4DA0F10100B0FACE
:1086500080F02B7A4009002287B028746A74002BBE
:108660004AD0364B1C6802232B722379002B4ED044
:10867000012B07D1D4E903031844FFF7E3FE48B305
:1086800011281BD0226893687BB10023CDE9033306
:1086900002930093A36805930323019323790BB3FB
:1086A000012B0ED09368684698470023244925483B
:1086B0002B726B60FFF7D4FD07B030BD01232B7226
:1086C000FAE7E368616904911B03022102938DF8C4
:1086D0000010E7E72B7C002BEED101460220FFF7CC
:1086E00039FFE9E72069E16801238DF8003063690B
:1086F0000493CDE90201D5E711491248FFF780FD47
:108700000E4B044618600028ADD16860D4E7D4E968
:108710000520121AB2F5805F28BF4FF48052D4E9C9
:1087200003139208012A38BF012201441844FFF7BD
:1087300087FE0028A4D1CDE7582E0020702E0020FF
:108740006C2E0020482E002041DF7047064A074B60
:1087500010B5002414701C60BFF35F8F04490548F6
:1087600000F034F8204610BD7C2E0020802E002022
:10877000EC060300742E002000B583B000230DF139
:1087800007008DF80730FEF775FBF1EE103A23F085
:108790009F03E1EE103ABFF35F8F0B4B4022C3F80B
:1087A00084219DF80700FEF78BFB07F0A5F828B998
:1087B00020BF40BF20BF03B05DF804FBFFF7C4FF3C
:1087C00003B05DF804FB00BF00E100E001600B684E
:1087D00043604A68934204BF00234360704700BF70
:1087E000436843B1026891680B4443605268934206
:1087F00004BF00234360704730B4B84B1B78062B8E
:1088000020D0B74B1B68062B00F08180B54AD2F808
:10881000883043F47003C2F88830BFF34F8FBFF342
:108820006F8F4FF01023D3F80022002AC0F2868108
:10883000D3F80432002BC0F28181AB4BAB4A1A60F3
:1088400030BC7047AA4B1B681D07DAD1A94B1B68C7
:1088500003F0F002302A00F09B8003F0E003402B8D
:1088600000F09680A34B1B6803F0F003302B00F060
:10887000A080A04B1B6803F0F002302A77D003F0F1
:10888000E003402B73D09B4B1B6803F0F003302BAD
:1088900000F01481974B1B6803F0F002302A52D08D
:1088A00003F0E003402B4ED0924B1B6803F0F00323
:1088B000302B00F0F5808F4B1B6803F0F003302B5A
:1088C00000F0D7808B4B1B6803F0F003502B7ED059
:1088D000884B1B6803F0F002302A23D003F0E0033A
:1088E000402B1FD0834B1B6803F0F002302A03D0CB
:1088F00003F0E003402B84D14FF08043D3F80024F1
:10890000D20744BF6FF00102C3F8002479E77A4B25
:108910001B68062B7FF47AAF784A136843F48063B0
:10892000136073E7764B6D4A1B681278754903F044
:108930004F03062A0B607FF464AF6D4B1B68190769
:108940007FF45FAFCEE7654A11784FF08043002295
:108950000629C3F80C21C3F81021C3F838257FF489
:1089600050AF634B1B681B077FF44BAF9CE7664B14
:108970005A4A1B6812786549C3F34233062A0B60D2
:108980007FF43FAF5A4B1B6819077FF43AAF7AE781
:108990005F4B524A1B6812785E49C3F30423062AD0
:1089A0000B607FF42EAF524B1B681C077FF429AF7E
:1089B00058E74A4B584A1B7858491160062B7FF4F8
:1089C00020AF4B4B1B6818077FF41BAF51E74FF0EC
:1089D0008052534BD2F80414C3F82015D2F808146F
:1089E000C3F82415D2F80C14C3F82815D2F81014C3
:1089F000C3F82C15D2F81414C3F83015D2F8181493
:108A0000C3F83415D2F81C14C3F84015D2F820145A
:108A1000C3F84415D2F82414C3F84815D2F8281422
:108A2000C3F84C15D2F82C14C3F85015D2F83014F2
:108A3000C3F85415D2F83414C3F86015D2F83814BA
:108A4000C3F86415D2F83C14C3F86815D2F8401482
:108A50002248C3F86C15D2F844140278C3F8701594
:108A6000062A7FF4CEAE224B1B6818077FF4C9AEEE
:108A70002EE71A4B2B4C1B782B492C482C4A0525EA
:108A8000256001250D6000243F21062B0460116044
:108A90007FF4B7AE164B1B681C077FF4B2AE11E72C
:108AA0000E4B244A1B780321062B11607FF4A9AEDC
:108AB0000F4B1B681D077FF4A4AEFCE61E4A074956
:108AC000D368097823F080730629D3607FF499AEC8
:108AD000074B1B681A077FF494AEDBE6E00F00F04B
:108AE0003001001000ED00E0902B00200090D0033A
:108AF000E40F00F0E80F00F0340100103C170040D4
:108B000058020010E40E0040440200103C050040F2
:108B1000240300104035014074C007400DF0ADBA89
:108B200000C00040105600408856004018560040D3
:108B300014560040A0050040F0ED00E0184A012363
:108B4000C2F80435D2F80034002BFBD04FF01023CC
:108B50001521134AC3F80012D2F80034002BFBD0C1
:108B60004FF0102315210E4AC3F80412D2F8003436
:108B7000002BFBD000230A49C2F80435D1F8003499
:108B8000002BFBD0BFF34F8F0649074BCA6802F496
:108B9000E0621343CB60BFF34F8F00BFFDE700BF20
:108BA00000E0014000ED00E00400FA0510B568B9EE
:108BB0000E4CA368012262703BB1D3E90023002070
:108BC000A2609847A368002BF7D110BD0128FCD103
:108BD000064C2369A070002BF7D0D3E900230120B5
:108BE000226198472369002BF7D110BD842E002005
:108BF00070B910B5074CA368012262703BB1D3E98C
:108C000000230020A2609847A368002BF7D110BD75
:108C1000704700BF842E002030B5012883B004D0F7
:108C200003281DD0B0B103B030BD224C00230DF19C
:108C300007008DF80730FEF71DF923784BB3E36882
:108C40009DF8070001330122E360A270FEF738F9B6
:108C500003B030BD184B0122C3F8802003B030BDF3
:108C6000144C00F097FD00230DF107008DF807303C
:108C7000FEF700F9E368013BE360E5682DB19DF87C
:108C80000700FEF71DF903B030BD00F097FDA57099
:108C9000F5E70A486360A3602361E36000F06EFDBE
:108CA00006F02AFE10B101232370C8E700F072FD20
:108CB000F9E700BF842E002000E100E0AD8B020048
:108CC000F0B4894C037904EBC30588B02D79002DED
:108CD00040F0E98044F833200D78FF2D4FEAC30CB3
:108CE00000F0C88025F080032F06049300F1F58082
:108CF00001254FF0A0469D40C6F80C554FF0A04509
:108D000003F5E073032645F823604D78FF2D00F04E
:108D1000B88025F080032E06059300F1D780012549
:108D20004FF0A0469D40C6F80C554FF0A04503F506
:108D3000E073032645F823608D78FF2D00F0A880AE
:108D400025F080032D06069300F1B98001254FF030
:108D5000A0469D40C6F80C554FF0A04503F5E073C2
:108D6000032645F82360CD78FF2D00F0988025F08C
:108D7000800315F0800F4FF0A0464FF0010505FA73
:108D800003F5079314BFC6F80855C6F80C5503F54C
:108D9000E0734FF0A045032645F82360DDE9047633
:108DA0000368069DC3F86075C3F86465C3F8685529
:108DB000079DC3F86C5503680125C3F80055036887
:108DC0008E790D894F79C3F80C75C3F80465C3F823
:108DD000085503684D89C3F8105505680023C5F888
:108DE00000320568C5F800330568C5F81C31D5F8B0
:108DF0001C6105680496049EC5F81031D5F8106111
:108E000005680396039EC5F81431D5F8146105680A
:108E10000296029EC5F80431D5F804310193019BF6
:108E20000AB302680B7942F3073100294FEA123284
:108E30003DDB01F1604101F561415B01DBB281F88D
:108E40000033016841F3C43323F0604323F003038C
:108E500003F1604303F56143C1F3043101228A4009
:108E6000C3F880211A60644401230020237108B0F4
:108E7000F0BC70474D784FF0FF33FF2D04937FF423
:108E800048AF8D784FF0FF33FF2D05937FF458AF37
:108E9000CD784FF0FF33FF2D06937FF468AF4FF08E
:108EA000FF3307937AE7082008B0F0BC70470F49FA
:108EB00002F00F025B011144DBB20B76C1E7012522
:108EC0004FF0A0469D40C6F8085545E701254FF0F4
:108ED000A0469D40C6F8085527E701254FF0A0465B
:108EE0009D40C6F8085509E7982E0020FCEC00E0EC
:108EF000F0B404680E680579C4F820658E88C4F85B
:108F000024658E68C4F82865CE68C4F82C650468AA
:108F10000E68C4F840658E88C4F844658E68C4F84D
:108F20004865C968C4F84C15046802F0010101EBFA
:108F30005202C4F81425DA0782B03FD413F00202BB
:108F40003ED10468002914BF0C260826C4F800226C
:108F5000D9B2254C04EBC50254F8354051710225B5
:108F60001571D4B101F00402002A01F0080C03BF0E
:108F70002F46A2222224B2220FBF8225322492251C
:108F80001227BCF1000F04BF2A463C46056811F0C9
:108F9000100F18BF2246C5F8002301680022C1F84F
:108FA0000421D1F8041101911B06019910D4036822
:108FB00001211046995102B0F0BC70471022C0E761
:108FC00059B102680821C2F800120C26D9B2C0E7D4
:108FD0000068304402B0F0BC704702680421C2F857
:108FE00000120826D9B2B4E7982E002000B52C4B09
:108FF000D3F8102185B052B100212A4AC3F81011CC
:10900000D3F81011537903910399590741D4244B94
:10901000D3F8142152B10021224AC3F81411D3F815
:109020001411537902911B0702992CD41C4BD3F8CD
:109030001C215AB11B4A0021C3F81C115079D3F8E6
:109040001C31019310F01000019B17D0144BD3F882
:10905000042182B1134A0021C3F80411D3F804118A
:109060001368009101210098117123B1032005B00C
:109070005DF804EB184705B05DF804FB1368002B9E
:10908000E4D09847E2E71368002BCFD0022098473E
:10909000CCE71368002BBAD001209847B7E700BF90
:1090A00000C00140982E0020014B1B68184700BFEC
:1090B000A02E00202DE9F041644B1A6888B002BB55
:1090C000634F97F82E30002B29D1624B1A685AB1A2
:1090D00000221A601B68039302218DF814103B686C
:1090E00003993A7405A898475B4B1C68002C30D054
:1090F00000221A601B680593059B3A7408B0BDE80E
:10910000F081534F00221A60196897F82E300091B1
:109110000099002B4ED097F82F30002B63D14F4B86
:109120001A68002AD1D000211960186897F82D20FC
:109130007B8B01909342019894B263D874D0434BD7
:10914000474A002119601B680293012302991360AA
:10915000BBE77E69002ED1D04FF000480125B6FA5A
:1091600086F101F146039B0003F1804202F5E042E3
:10917000A3F58C73D2F800E083F0040028FA01F123
:10918000C0F3800CDB0805A826EA0106BEF1000F3B
:109190000BD01460126804928DF818308DF81450BA
:1091A0003B688DF819C0049A9847002ED7D108B0B3
:1091B000BDE8F081FA68786839898DF81430069036
:1091C000ADF81C10002A2CD02648398B7A60012279
:1091D000FB607983398102603B6805A898470023CA
:1091E00087F82F306DE7FB68786839898DF814208F
:1091F0000690ADF81C10A3B1398B7B60FA607983BF
:109200003981E9E7398978681B1B9BB289B2154C13
:109210007B83C91A00EB4101C4F82C16C4F8302630
:109220008DE700233B74D7E7FB684BB10D4879838A
:10923000012187F82F10C0F82C36C0F830267EE7C1
:1092400001227B8387F82F2079E700BF047100405B
:10925000A82E0020107100401471004000710040E1
:109260000470004000700040214B93F82C20002A2D
:109270003CD170B41F4C05781960C4F8F05545789E
:109280001D49C4F8F4556FF000451A74C678C4F847
:10929000085383B00A600968184D019101992A604A
:1092A000817883F82E602D6815480095490183F870
:1092B0002D205A6183F82F20C9B28022F5B2009E7A
:1092C00080F80713C0F88021022102600122C4F84F
:1092D000041383F82C200DB1C4F80423054B01229C
:1092E0000020C3F8002503B070BC70470820704709
:1092F000A82E002000700040047100400071004062
:1093000000E100E09A489B4B9B4A9C4970B46FF087
:109310000045C0F8085380240120C3F8804042F281
:109320001073106001E0013B02D00A68002AFAD0F5
:10933000934B8F4C187F93F82D2059690025C4F862
:1093400000551D74002840F0F9809C7F002C40F0EF
:10935000D78093F82040002C40F0B48093F822404E
:10936000002C40F0918093F82440002C6FD193F8AA
:109370002640002C4ED193F828404CB993F82A404F
:109380002CBB00283ED1002283F82C2070BC7047F3
:109390001D7C05F0FF04002DF0D17A4D74481C852A
:1093A00093F82A60C5F81445C5F81045764CC0F806
:1093B0007C454FF40024C0F80843013A4FF4802460
:1093C000D2B221F44021C0F80843DEB101201D7C57
:1093D00005F0FF04002DD4D16C4D65485C85C5F8BF
:1093E0001445C5F81045684CC0F88C45013A4FF457
:1093F00000154FF48014C0F80853D2B221F4403164
:10940000C0F8084383F82D200022596183F82C20EE
:1094100070BC70471D7C05F0FF04002DABD15C4D86
:109420005348DC84C5F81445C5F81045564CC0F8BF
:109430006C45013A4FF400354FF48034C0F80853BE
:10944000D2B2C0F8084321F44011012093E71D7CFB
:1094500005F0FF04002D8AD14E4D45489C84C5F887
:109460001445C5F81045484CC0F85C45013A4FF426
:1094700000454FF48044C0F80853D2B2C0F8084306
:1094800021F44001012072E71D7C05F0FF04002D4E
:109490007FF469AF404D36485C84C5F81445C5F883
:1094A0001045394CC0F84C45013A4FF400554FF483
:1094B0008054C0F80853D2B2C0F8084321F040717C
:1094C000012050E71D7C05F0FF04002D7FF446AF1E
:1094D000324D27481C84C5F81445C5F810452A4C60
:1094E000C0F83C45013A4FF400654FF48064C0F881
:1094F0000853D2B2C0F8084321F0406101202DE7A3
:109500001D7C05F0FF04002D7FF423AF244D184887
:10951000DC83C5F81445C5F810451B4CC0F82C4534
:10952000013A4FF400754FF48074C0F80853D2B27A
:10953000C0F8084321F0405101200AE71E7C06F0E4
:10954000FF009EB9C4F814050F4EC4F81005013A87
:10955000988380254020C4F81C65D2B2C4F8085313
:1095600021F04041C4F808030120EEE62846ECE66D
:109570000070004000E100E00870004014710040FD
:10958000A82E00206070004000F8FF0770700040B7
:10959000507000404070004030700040207000402B
:1095A00010700040364A137C002B66D1F0B40C7961
:1095B000012C54D900F10C0502EB45031B7923B9AA
:1095C00092F82D30013382F82D304B788E7891F857
:1095D00000C04F791B01360206F4E06603F0300349
:1095E0003343CE780CF0030C360306F4805643EA7E
:1095F0000C0333438E793F0507F48017360602EBE0
:10960000450206F080761F4D24043B4304F4E02419
:109610003343234305EB0016CC79147100010C7A17
:10962000547100F18040C6F8183500F5E040CB7960
:109630000A7AC0F81425C0F81035CB790A7AC0F838
:109640001425C0F810350B79012B02D90020F0BC8D
:1096500070470123C5F800350020F0BC704703F0C7
:10966000FF05084BC3F8005500F10C0502EB45035C
:109670000C791B79002BA8D1A2E71120704700BFFD
:10968000A82E002000700040F0B42D4D2D4B12226A
:10969000C5F808231C7C022C82B04BD01A7C012A0E
:1096A00024D093F82E205860022701240026C5F804
:1096B00004731C74DE6019816AB9234BC5F82C064B
:1096C000C5F830161A601B680193019B2C60104688
:1096D00002B0F0BC704793F82D20C5F82C06304638
:1096E0005983C5F8302602B0F0BC7047DA6832B151
:1096F00002231120C5F8043302B0F0BC704793F880
:109700002E20D86019836AB90F4A1368002BFCD049
:109710000023136012680A4B0092009AC3F82C06CB
:10972000C3F83016064B02220020C3F8042302B00F
:10973000F0BC70471120C5F8042302B0F0BC70479C
:1097400000700040A82E002000710040084A137CE1
:10975000012BD9B201D00820704792F82E0018B121
:10976000044B002019607047034B1960704700BF1D
:10977000A82E00200070004004700040044A1379B5
:1097800023B90121106091801846704785207047E9
:10979000D82E0020084B1A68D20706D40122E021F7
:1097A00083F80013C3F880211A604FF08043012230
:1097B000C3F81825704700BF00E100E0044B012208
:1097C0001A604FF08042D2F81834DB03FBD47047A4
:1097D0000C00004010B5174B1A6882B062B100212E
:1097E000154A19601B68507900934FF0804101239E
:1097F000009CC1F8083398B1104B1A68BAB1002226
:109800001A601B6801934FF0804202210A4B0198B5
:10981000C2F808131B68012002B0BDE810401847C9
:10982000116853718847054B1A68002AE7D102B0C6
:1098300010BD00BF00010040D82E002004010040F0
:1098400070B5214C94F8585082B0002D38D14FF0AB
:10985000FF304FF0FF314FF0FF33C4E90001C4E99E
:109860000C01C4E90E01C4E91001C4E9120104228B
:10987000294604F15400C4E90233C4E90433C4E9BD
:109880000633C4E90833C4E90A33236506F090F9C6
:109890000E4B0F4A0F4E1560E02183F8061340214E
:1098A000C3F8801119601368019301994FF00043C8
:1098B0000122284684F85820C6F8043302B070BD4F
:1098C000082002B070BD00BFE02E002000E100E0E3
:1098D0007C61004000600040034B93F85800003862
:1098E00018BF0120704700BFE02E0020F0B46F4B7E
:1098F0001D1895F93040002C61DA8C78A707C4F365
:10990000400C53D41C6A013400F0C8805C6A0134F6
:1099100000F0BD800C260A2453F82450013552D0A3
:10992000651CB5423FD253F82570013700F0A7807F
:10993000A51CB54237D253F82570013700F09F803F
:10994000E71CB7422FD253F8275001353AD0271DD4
:10995000B74228D253F82750013533D0671DB7429C
:1099600021D253F8275001352CD0A71DB7421AD267
:1099700053F82750013525D0E71DB74213D253F8CD
:10998000275001351ED004F10807B7420BD253F817
:109990002750013516D00934B44204D2DC6A0134B0
:1099A00008BF0B240FD00420F0BC70471C680134A2
:1099B00067D05C68013460D008260224ACE7082038
:1099C000F0BC70473C461E1865B243F8242086F868
:1099D0003050BCF1000F02D11C4484F848008A7852
:1099E000540714D4D6073ED44C784FF0A04600F567
:1099F000E072A40046F822402D4EC40800F0070C87
:109A0000375D012202FA0CF23A4332558A7812F09D
:109A100002021CD0AB0003F1804303F5C043097878
:109A2000D3F8104524F4473424F44074C3F81045A7
:109A300002020904D3F8100501F4403102F4F8528F
:109A40000A430243C3F810250020F0BC7047083DCC
:109A50002B44087893F8501041EA801183F8501095
:109A60001046F0BC7047820002F1A042D2F80047D5
:109A700024F00204C2F80047BEE70124A3E72C4605
:109A8000A1E7002485F830401A602546A7E709269B
:109A900085F830605A62344635469DE7082685F8D9
:109AA00030601A623446354696E700BFE02E00204B
:109AB000342F002070B42C4C251883B095F9302039
:109AC000072A1CDD224492F848309B09032B40D022
:109AD000012B0CBF4FF400334FF44033800000F1F2
:109AE000A040D0F8002722F44032C0F80027D0F878
:109AF00000271343C0F8003703B070BC7047D3B2DF
:109B0000072BF9D8900000F1804000F5C04002F129
:109B100040039B00D0F810659BB203F1804303F52E
:109B2000C04346F00106C0F81065002018601B68AD
:109B30000193019B0029DFD095F9303054F8233090
:109B4000002BD9D00949012303FA02F2C1F80423FA
:109B5000D2E74FF0A043D3F81035C34003F0010320
:109B600002331B04BAE700BFE02E00200060004073
:109B70004FF0A043D3F8103523FA00F000F00100B5
:109B8000704700BF2DE9F04186B0C04A0023019321
:109B90001168012900F0C8811E46BD4B1A68012AD0
:109BA00000F0B481BB4B1A68012A00F0A181BA4BC6
:109BB0001A68012A00F08E81B84B1A68012A00F059
:109BC0007B81B74B1A68012A00F05281B54B1A68A5
:109BD000012A00F03F81B44B1A68012A08D0B34B28
:109BE0001A68012A00F0AC81F6B906B0BDE8F08130
:109BF000AF4AD2F804231206F1D500221A60196880
:109C00000491196E0498012903F1600346F080065F
:109C10000AD11A601B6805934FF0A043059AD3F848
:109C20001035019346F00046A24F01250024A30001
:109C300003F180432E4203F5C0434FEA45050BD0A4
:109C4000D3F8100557F82420D3F81015C0F30420DA
:109C5000C1F3014102B190470134082CE7D1002E35
:109C6000C3DA00224FF0FF33CDE90223914C0125E6
:109C700002AE94F95000471C37D0C0F3C20C06ABBB
:109C800003EB0C0700F0070317F80C2C05FA03F39D
:109C90001A42C1B200F03F0027D02218890992F978
:109CA000302054F82280B8F1000F00F09D81032984
:109CB00000F09D81820002F1A04217F8147CD2F8D6
:109CC00000C71F40CCF3014C0BD0BCF1020F0CD1EC
:109CD000032900F0BF810027B8F1000F06D0C0476C
:109CE00004E0BCF1030F00F0A381002794F95100B8
:109CF000411C32D0C0F3C20E06AB03EB0E0C00F0D9
:109D000007031CF80C2C05FA03F31A42C1B200F049
:109D10003F0022D02218890992F9302054F822807D
:109D2000B8F1000F00F07B81032900F07B818200F5
:109D300002F1A04E1CF814CCDEF800271CEA030F39
:109D4000C2F3014200F03A81022A06D1032900F051
:109D50008481B8F1000F00D0C04794F95200421C32
:109D600032D0C0F3C20E06AB03EB0E0C00F00703BB
:109D70001CF80C2C05FA03F31A42C1B200F03F00A4
:109D800022D02218890992F9302054F82280B8F1A3
:109D9000000F00F03B81032900F03B81820002F1BB
:109DA000A04E1CF814CCDEF800271CEA030FC2F307
:109DB000014200F0ED80022A06D1032900F0508113
:109DC000B8F1000F00D0C04794F95300431C32D0C3
:109DD000C0F3C20E06AB03EB0E0C00F007021CF83A
:109DE0000C3C05FA02F21342C1B200F03F0022D04F
:109DF0002318890993F9303054F82380B8F1000F03
:109E000000F0FB80032900F0FB80830003F1A04EEB
:109E10001CF814CCDEF800371CEA020FC3F3014330
:109E200000F09C80022B06D1032900F01C81B8F1C0
:109E3000000F00D0C047002F3FF4D7AE4FF0A04333
:109E4000019AD3F810359A423FF4CFAE029A0193AB
:109E500003920EE7164AD2F8042351067FF5BBAEF3
:109E600000221A601B680493049B46F04006B2E689
:109E70000F4AD2F8042390067FF5A8AE00221A609C
:109E80001B680493049B46F020069FE60061004097
:109E900004610040086100400C6100401061004016
:109EA00014610040186100401C6100407C6100406A
:109EB00000600040E02E00206C4AD2F80423D40653
:109EC0007FF57FAE00221A601B680493049B46F066
:109ED000100676E6654AD2F8042315077FF56CAEC6
:109EE00000221A601B680493049B46F0080663E690
:109EF0005E4AD2F8042357077FF559AE00221A6054
:109F00001B680493049B46F0040650E6574AD2F8B7
:109F1000042392077FF546AE00221A601B68049363
:109F2000049B46F002063DE65049D1F8046316F062
:109F300001063FF432AE136013680493049B2CE6D1
:109F400000221A601B6805934FF0A043059AD3F8CE
:109F500010350193002E3FF484AE63E6032B7FF4AB
:109F60006AAF03297FF463AF4FF40032DEF80037A5
:109F700023F44033CEF80037DEF800371343CEF831
:109F80000037B8F1000F3FF459AF0137FFB251E786
:109F9000032A7FF419AF03297FF412AF4FF4003284
:109FA000DEF8003723F44033CEF80037DEF8003710
:109FB00001371343FFB2CEF8003701E7032A7FF4DD
:109FC000CCAE03297FF4C5AE4FF40032DEF8003783
:109FD00023F44033CEF80037DEF80037013713435F
:109FE000FFB2CEF80037B4E603297FF47EAE16F850
:109FF0000C201A4306F80C205CE603297FF41BAF03
:10A0000016F80E30134306F80E30FEE603297FF4EF
:10A01000DBAE16F80E201A4306F80E20BEE6032922
:10A020007FF49BAE16F80E201A4306F80E207EE64B
:10A0300003297FF451AE4FF40037D2F8003723F4F0
:10A040004033C2F80037D2F800373B43C2F800373C
:10A05000012741E64FF44037EFE74FF44032B5E7D0
:10A060004FF440329CE74FF440327FE700600040FD
:10A070000220FCF7F3B900BF2DE9F0470D46064674
:10A08000FCF70CFA032805D8012D04461AD0022D3E
:10A0900027D00DB1BDE8F0871B48FCF7AFFE1B4B86
:10A0A0001B4A04EB44010B44125D9D78AA42F1D196
:10A0B000002DEFD0174B1B68002BEBD02846BDE8D6
:10A0C000F0471847114F00EB4003FA18FD5C537836
:10A0D0004FEA40085BB9A04447440D4BBA781A5583
:10A0E000E6E70A4B00EB40041C446578E0E7DFF844
:10A0F000289005484A464FF40041FCF729FE002805
:10A10000E9D189F80060E6E7602F0020A02F002049
:10A11000BC2F0020B42F00203C2F002010B5007869
:10A12000FCF7BCF903280BD8064B00EB40001844A1
:10A13000407828B1044B1B6813B1BDE810401847A4
:10A1400010BD00BFA02F0020B42F002038B5BE4D99
:10A150002B7804466BB1BD4B1B7800202870002B78
:10A160004DD0FCF743F90120FCF740F90320FCF740
:10A170003DF9172C00F26681DFE814F0F700630068
:10A1800063009F00B200C500D70097005000440054
:10A19000500044007A001800180018001800180039
:10A1A000E5002001810008015C005C00A848FCF784
:10A1B00025FED4F11104054600F02E81002840F060
:10A1C0002B81012C14D0C82303FB04F44FF4FA7044
:10A1D0004FF400430021C3FB04014FF47A720023C3
:10A1E00006F0E6F82A4601469948FCF7B1FD054617
:10A1F0000220FCF7EFF8954B01221A701FE0FCF7E4
:10A2000001F9B6E701202870FCF728F9BDE83840CD
:10A21000904800224FF48041FCF79ABD012028703D
:10A22000FCF71CF9BDE838408A48002240F6CD41D1
:10A23000FCF78EBDFCF7FCF8874B00251C70284608
:10A2400038BD0020FCF7B8F8002840F0CB80FCF7C0
:10A25000C1F841F69A1143F23333022C18BF194664
:10A260007D4B7C481C70BDE838400022FCF770BD77
:10A27000FCF7DEF8784B0C221A700025DFE7734BF1
:10A280001B78002B00F0DB800020FCF7AFF80120EA
:10A29000FCF7ACF80320FCF7A9F80120FCF79AF8CA
:10A2A0006D4B14221A700025C9E70020FCF792F8C4
:10A2B000694B07221A700025C1E70020FCF77CF8E3
:10A2C000002840F0A380FCF785F841F69A11624B14
:10A2D000604803241C70BDE838400022FCF738BDFC
:10A2E0000020FCF769F8002840F08A80FCF772F83B
:10A2F00043F23331584B574804241C70BDE83840B2
:10A300000022FCF725BD0020FCF756F8002873D189
:10A31000FCF760F8504B4F4805241C70BDE83840EE
:10A32000002241F69A11FCF713BD0020FCF796F8C5
:10A33000494B484806241C70BDE83840002240F6CE
:10A34000CD41FCF705BD414B1B78002B74D000209C
:10A35000FCF74CF80120FCF749F80320FCF746F81D
:10A360003D4B12221A70002569E7384B1B78002BF1
:10A370005CD00020FCF73AF80120FCF737F8032006
:10A38000FCF734F8344B00251D7058E72F4B1B7831
:10A39000002B48D00020FCF729F80120FCF726F814
:10A3A0000320FCF723F80020FCF714F80120FCF749
:10A3B00011F8294B15221A70002540E7234B1B7812
:10A3C000BBB30020FCF712F80120FCF70FF80320C4
:10A3D000FCF70CF80020FBF7FDFF1F4B13221A704F
:10A3E00000252CE70020FCF701F8022C4EF26661F4
:10A3F00018BF4FF4003133E70020FBF7F7FF89E780
:10A400000020FBF7F3FF4FF4003173E70020FBF768
:10A41000EDFF46F266615AE70220FBF7E7FF0B4BC0
:10A4200000221A700BE7FBF7EDFFBCE7FBF7EAFF32
:10A43000A8E7FBF7E7FFCDE7FBF7E4FF90E7FBF7C3
:10A44000E1FF2AE70025FAE6B02F00203D2F00208B
:10A45000402F0020802F0020B82F0020044B1B68C5
:10A46000DB0700D47047034B1878FFF76FBE00BFBF
:10A47000AC2F0020B82F0020032801D900207047FE
:10A48000FBF7FEBF38B5244B244A19608107044608
:10A49000106004D410F001052CD1284638BD204BA3
:10A4A00020480E250F2210211D701125DA70997198
:10A4B0005D7240F266620421FCF70CF9054630B18A
:10A4C000E207EAD50120FCF701F8284638BDFCF781
:10A4D00059F905460028F3D10146134A1348FCF701
:10A4E00025FCE3070546D8D50120FBF7EFFF002D3B
:10A4F000D3D102E00120FBF7E9FF0D4A0D4800210E
:10A50000FCF714FC05460028C7D1BDE838400A4ACC
:10A510000A480121FCF70ABCB42F0020AC2F002010
:10A52000A02F0020F80603001DA102001C07030055
:10A530005DA402002007030071A0020018070300B9
:10A54000032806D8012A06D001291BD0022908D0E9
:10A5500071B107207047012911D002294FF0000284
:10A56000F6D10B4B00EB4000034400205A707047BB
:10A57000074B00EB4000034408469A70704700F117
:10A580000E02D2B200EB400301490020CA547047CA
:10A59000A02F0020032801D90620704708B5FBF73B
:10A5A0008FFF800000F1A0430020D3F8002722F4A1
:10A5B0004032C3F80027D3F8002742F44032C3F8F2
:10A5C000002708BD10B50388102B07D0112B04D12C
:10A5D000254B18680138186030B110BD224C216835
:10A5E00011B30131216010BD01220221FFF7A8FF44
:10A5F00040B1072806D01D4B1B68002BEDD0BDE8ED
:10A6000010401847072202210120FFF799FF08B1E7
:10A610000728F0D1002108460A22FFF791FF002801
:10A62000DBD00728E7D1D8E701220846FFF788FFEB
:10A6300038B1072805D00D4B1B6803B19847216836
:10A64000CFE7072202210120FFF77AFF08B1072890
:10A65000F1D1042202210020FFF772FF0028EED082
:10A660000728E8D1EBE700BFC42F0020C02F00204F
:10A6700008B50020FFF78EFF10B1062800D008BDF6
:10A680000120FFF787FF0028F9D0062808BF002027
:10A6900008BD00BF184B10B5186031B101200C4641
:10A6A000FFF7EAFEF8B102232370144B186808B1D3
:10A6B000002010BD01220221FFF742FF08B1072848
:10A6C000F7D1072202210120FFF73AFF08B107283E
:10A6D000EFD1002108460A22FFF732FF0028E7D019
:10A6E0000728E5D010BDFFF7C7FE10B10B2323707C
:10A6F000DBE72070D9E700BFC02F0020C42F002067
:10A7000033DF704776DF704778DF70477ADF704756
:10A710007CDF70478FDF7047704700BFFCF748B899
:10A72000014804F0C1BF00BF20310020072808B550
:10A7300018D00A280ED0042800D008BD114B1321D0
:10A740001888FFF7DFFF30F00803F6D0BDE80840B7
:10A75000FCF72EB8FFF78CFF88B9FFF7D1FF002870
:10A76000F4D108BD074B1A884FF6FF739A42E4D123
:10A77000054801F017FB30F00803E7D108BDFCF7EE
:10A7800017F8EAE7A02B002008300020FCF710B8EB
:10A7900000B1704708B5084B1B781BB103F016FDDC
:10A7A00030B908BD0548032101F076FA0028F8D039
:10A7B000BDE80840FBF7FCBF6036002008300020F1
:10A7C0002DE9F04F057885B015B105B0BDE8F08FE3
:10A7D0000446FEF797FD62689388B3F5805F80F0CA
:10A7E0001B81974CD1882068B1F5805F18442060A8
:10A7F00002F1060280F019816068B3F5805F0144C0
:10A800006160C0F012810020DFF854A2DFF854B27A
:10A81000DAF800108B4BA6681F78BBF800300144B3
:10A82000CAF800101588E268DAF80410B5F5805F00
:10A8300028BF00252A4401339BB20137E260814AD8
:10A84000ABF8003029445FFA87F93044B3F57A7FDA
:10A85000CAF8041082F80090A06000F00781B9F1F6
:10A86000010FB2D1784B20681E78784BDFF8F8A141
:10A870001D78032E40F26F8105F0EEFA6CA3D3E948
:10A88000002305F063FB6CA3D3E9002380468946CF
:10A89000DAE9000105F05AFB0B46024649464046FC
:10A8A00005F09EF900230193694B6A4A1B786A4FB1
:10A8B00002EBC303D3E90023CAE9000105F070FCF1
:10A8C00005F056FD6B1C80B2DBB2010A05F1020BEC
:10A8D0000022032E78555FFA8BFBF95460682260E2
:10A8E00040F25F8105F0B8FA51A3D3E9002305F0E7
:10A8F0002DFB51A3D3E9002380468946DAE9020102
:10A9000005F024FB02460B464046494605F068F92F
:10A910004F4B504A5B7802EBC303D3E90023CAE9EB
:10A92000020105F03DFC05F023FDEB1C80B2DBB21B
:10A930004FEA102C2A1D0021032E07F80B0061603E
:10A9400007F803C0A0685FFA82FB40F2238105F09C
:10A9500083FA37A3D3E9002305F0F8FA36A3D3E945
:10A96000002380468946DAE9040105F0EFFA024641
:10A970000B464046494605F033F9354B354A9B783E
:10A9800002EBC303D3E90023CAE9040105F008FC84
:10A9900005F0EEFC6B1D80B2DBB24FEA102CAA1D55
:10A9A0000021032E07F80B00A16007F803C05FFA2F
:10A9B00082FB40F0D780E06805F04EFA0123019356
:10A9C0000426234B234ADB7802EBC303D3E900239D
:10A9D000CAE9060105F0E4FB05F0CAFCEB1D80B2F4
:10A9E000DBB2010A07F80B0008351848F954019B3F
:10A9F000EDB200220570E2600BB1134B1E70114BDB
:10AA00000024202D1C707FF4E0AE1349134804F09D
:10AA10000FFE0E4B1C70D8E6D188B1F5805F02F1B5
:10AA2000060280F09580064CE6E61846ECE600BF8C
:10AA30009A9999999999A93F666666666666EE3F06
:10AA400010330020FC2F0020FD2F0020C82F0020F5
:10AA50007C31002098070300CC2F002020310020FB
:10AA6000203300200430002028330020CDE9029458
:10AA7000894B8A4D019300275646894B56F8044B63
:10AA8000A3FB0434C4F38F14204605F0F5F940F617
:10AA900099139C428046894647D8019B1C88632CA9
:10AAA0004BD802460B4674A1D1E9000105F096F897
:10AAB0007C4B002205F04AFA7A4B002205F046FA58
:10AAC0006FA3D3E9002305F06BFB8046204689463F
:10AAD00005F0D2F902460B464046494605F080F89B
:10AAE00005F046FC80B2642800F29C806E4A02FBAE
:10AAF00000F36E4A82FB0321DA17A2EB2132019B9D
:10AB000002F65432188092B2012F00F09080002398
:10AB100025F823200133642BFAD1002346F8043CA6
:10AB2000019B023301370193A7E740F6CB439C42D8
:10AB300003D9019B188800283AD10023012F46F839
:10AB4000043CEDD1DDE902940023ABF8003086E649
:10AB5000574C284658E6013605F07EF9F6B2CDF896
:10AB60000490A1E648A3D3E90023DAE9060105F041
:10AB7000EDF98046E068894605F06EF944A3D3E913
:10AB8000002305F0E3F902460B464046494605F02E
:10AB900027F816E705F060F901360123F6B20193B4
:10ABA000EBE605F059F901360123F6B20193AFE661
:10ABB00005F062F941EC170B2FA3D3E900234046BF
:10ABC000494659EC178B05F009F8364B002205F081
:10ABD000BDF9344B002205F0B9F929A3D3E90023CC
:10ABE00005F0DEFA0B4602464946404604F0F6FF01
:10ABF00005F0BEFB019B80B2012F188024D02A4BA8
:10AC000003FB00F0294B83FB0023C217A2EB233286
:10AC100002F6543292B2002325F823200133642B2C
:10AC2000FAD17AE7019A6423138000226CE71B4B68
:10AC3000DDE9029403F5C8715A8004338B42FBD1DD
:10AC40000023CAF804307FE7174A1849134B02FB68
:10AC500000F081FB0021C217A2EB2132DDE9029452
:10AC600002F6543292B203F5C8715A8004338B4213
:10AC7000FBD1E5E7AFF30080000000000065A640CF
:10AC80000000000000FEAF40666666666666EE3F46
:10AC90009A9999999999A93F003000208031002014
:10ACA000D34D621000002440D06C0400AD8BDB68F3
:10ACB0001033002010B50388212B84B041D00AD96D
:10ACC0003B2B01D0562B04D180881321FFF71AFDAE
:10ACD00080B904B010BD102B17D0112BF9D1204B27
:10ACE000204A1B784FF6FF7111803BB103F06EFADA
:10ACF0000028EED0FBF75CFD04B010BD1A4803211C
:10AD000000F0CAFF0028E4D0F4E7164B818817480A
:10AD1000198002F0B5FAF8B9154B0FCB6C4684E8F0
:10AD20000F002146012213480223FEF7E1F81248E2
:10AD300000224FF4A471FCF70BF80028DAD104B01C
:10AD400010BD00238088ADF800306946FFF7E2FCB3
:10AD50000028CFD104B010BDFBF72AFDDCE700BF0F
:10AD600060360020A02B0020083000207031002029
:10AD700050070300A42B00200031002030B5A14B68
:10AD8000A14C1A698FB01433019293E8070002AB0B
:10AD900003C321781A7002238DF80430072909D8DB
:10ADA000DFE811F0140118011C0120012401080042
:10ADB00028012C0105238DF80A30944B657893E81F
:10ADC000070005AB03C3002005211A708DF80B00A6
:10ADD0008DF80C10072D09D8DFE815F0F400F0000D
:10ADE000EC00E800E4000800E000DC0005238DF83A
:10ADF0001630874BA57893E8070008AB03C3002003
:10AE000005211A708DF817008DF81810072D05D838
:10AE1000DFE805F0BCB8B4B0AC04A8A405238DF8F5
:10AE200022307C4BE47893E807000BAB03C300208F
:10AE300002211A708DF823008DF82410072C05D8F4
:10AE4000DFE804F08884807C7804747005238DF832
:10AE50002E300020022302A98DF82F008DF830300B
:10AE6000FEF7A0FB38BB05A90120FEF79BFB50BBFA
:10AE700008A90220FEF796FB00282CD10BA903207D
:10AE8000FEF790FB00282ED1634901A8FEF7ECF9EC
:10AE9000002830D161480421FEF7F6FB002832D1AA
:10AEA0005F480421FEF7F0FB002834D15D4BD3F856
:10AEB00004330FB030BDFBF77BFC05A90120FEF782
:10AEC00071FB0028D4D0FBF773FC08A90220FEF721
:10AED00069FB0028D2D0FBF76BFC0BA90320FEF71F
:10AEE00061FB0028D0D0FBF763FC4B4901A8FEF7BB
:10AEF000BBF90028CED0FBF75BFC48480421FEF7E5
:10AF0000C3FB0028CCD0FBF753FC45480421FEF7D7
:10AF1000BBFB0028CAD0FBF74BFC424BD3F80433F1
:10AF20000FB030BD07238DF82E3092E706238DF841
:10AF30002E308EE704238DF82E308AE703238DF818
:10AF40002E3086E702238DF82E3082E701238DF81C
:10AF50002E307EE700238DF82E307AE707238DF818
:10AF600022305EE706238DF822305AE704238DF85D
:10AF7000223056E703238DF8223052E702238DF862
:10AF800022304EE701238DF822304AE700238DF866
:10AF9000223046E707238DF816302AE706238DF87E
:10AFA000163026E704238DF8163022E703238DF8A8
:10AFB00016301EE702238DF816301AE701238DF8AC
:10AFC000163016E700238DF8163012E700238DF8AF
:10AFD0000A30F2E601238DF80A30EEE602238DF8FE
:10AFE0000A30EAE603238DF80A30E6E604238DF8FA
:10AFF0000A30E2E606238DF80A30DEE607238DF8F4
:10B000000A30DAE6500703007C31002070070300A5
:10B010007C07030088070300C1A70200D43000208A
:10B02000DC3000200070004008B5FFF7A7FEFEF7F7
:10B030008DFB00B908BDBDE80840FBF7B9BB00BFF8
:10B04000F0B54FF080420120AD4BC2F87805AD4914
:10B050004FF00532B5B000201A600860FBF712FE11
:10B06000002840F01681A84AA8480121FBF75EFE9F
:10B07000002840F04181A6490320FFF703FA002889
:10B0800040F0378108A90020FFF704FB002840F0BA
:10B090002D819DF820309F4CA3F10203B3FA83F376
:10B0A0005B092370FDF752FB002840F01C8104F07F
:10B0B0000FFB002840F01481002308A90120089309
:10B0C00004F06EFC002840F0088108A804F0D0FCD1
:10B0D000002840F0FF8011238F488DF80C3004F0D9
:10B0E0006FFD8D4982B203A8FFF712FB002840F0E4
:10B0F000EE8040F24130FFF707FB002840F0E4808B
:10B100000822002108A804F053FD844B089308A8E6
:10B110004FF016730993FFF7F9FA002840F0D18039
:10B120007F49804801F0C6FF002840F0C780AC226C
:10B13000002108A804F03CFD7B480D90022240F25B
:10B14000016303218DF82020ADF822300122774BD6
:10B15000ADF830104FF4FA7647F2305774488DF856
:10B160009C2008A9CDE92A67319300F01DFD002835
:10B1700040F0A1806E48012100F012FD6D4B6E4839
:10B18000029302A902F06AF8002840F0918003239C
:10B190001422002103A88DF8073004F009FD674A46
:10B1A0006748002301260DF1070503A9CDE90552E3
:10B1B00003938DF81C308DF8106004F0C3F900285B
:10B1C00073D14022002108A804F0F2FC08A85D49D0
:10B1D00001F0C2F8112308A8ADF85C3004F008F8BB
:10B1E00000285FD11C22002108A804F0E1FC544B88
:10B1F00055499B89554AADF82E304FF470200023F5
:10B200004FF4203508938DF830300A90032308A8B6
:10B21000CDE90D1209958DF82C3000F02DFF002896
:10B220003DD10120FBF752F94949002340F6543241
:10B2300021F823200133642BFAD1454B40F65431D9
:10B2400003F5C872598004339A42FBD14148424BFE
:10B250000890002240F2071540488DF8262008A9E2
:10B26000ADF824500A93FDF72BFDA8B923783BB124
:10B2700002F0ACFF50B9FDF77FFAFDF77DFAFAE76F
:10B280002B48032100F008FD0028F4D0FBF790FACA
:10B29000F1E7FBF78DFAE6E6FBF78AFAE6E7FBF75C
:10B2A00087FABEE7FBF784FA9CE7FBF781FA88E7A9
:10B2B000FBF77EFA6BE7FBF77BFA5BE7FBF778FAC5
:10B2C00035E7FBF775FA2BE7FBF772FA18E7FBF7A0
:10B2D0006FFA0EE7FBF76CFAFDE6FBF769FAF4E6A6
:10B2E000FBF766FAE8E6FBF763FAE0E6FBF760FADD
:10B2F000CFE6FBF75DFAC5E6FBF75AFABBE600BFFF
:10B300007C3100204833002029B00200940703005C
:10B310002DA7020060360020240703000800180053
:10B3200021A70200EC300020942B002091A70200FE
:10B33000083000201DA7020070310020110000110C
:10B34000203100203C07030019A702008DA702004E
:10B35000803100209116921710270100A42B0020A5
:10B360006DDF704779DF70477DDF704764DF7047BE
:10B370002DE9F04F87B00746119D00882C88039473
:10B38000BDF84840DDF840A0CDE90142002858D082
:10B390004FF0000988461E46CB4604E03A880BF180
:10B3A000010B93452CDAD8F8002052F82B000590B9
:10B3B00000220DF1130105A8FFF7D8FF044658BB82
:10B3C0009DF81320B242E9D1B9F1000F28D02A88A4
:10B3D000019B9119994239DC52440DF1130105A8E2
:10B3E0004FF00109FFF7C2FF002834D129889DF8EA
:10B3F00013200A442A803A880BF1010B9345D2DBD3
:10B40000B9F1000F1DD02B88039A013B9B1A9BB208
:10B41000FF2B1BD80AF80230204607B0BDE8F08F9A
:10B420002A88019B511C324402329A4289B20DDCB7
:10B43000029B29800AF801302A88013292B22A80C0
:10B44000CAE70024204607B0BDE8F08F0C24204650
:10B4500007B0BDE8F08F0446204607B0BDE8F08F86
:10B460002DE9F04700231788138090F82D3088B01D
:10B47000144605460E46002B40F0FB80AA78002AB1
:10B4800040F0F080E978A1B1DA1CBA4200F2ED8018
:10B490000222F254238801339BB201222380F2540A
:10B4A000238813449BB22380F154238813449BB216
:10B4B00023806A68AAB1D91CB94200F2D680022161
:10B4C00092F90020F154238801339BB20A21238092
:10B4D000F154238801339BB22380F2542388013333
:10B4E00023802B89002B40F0EE802B8A002B40F02C
:10B4F00026812B8B002B40F041812B6A002B47D0FB
:10B50000B4F800E00EF10602BA4200F2AE801A88EA
:10B51000052A40F292816FF4486802EB080189B273
:10B520004FF27D30814240F288815988052940F2EE
:10B5300084816FF4486C8C441FFA8CFC844540F283
:10B540007C814FF6FF70824204D0814202D08A4251
:10B5500000F27381052206F80E202288013292B291
:10B5600012212280B1542288013292B2228019889D
:10B57000B1543244090A51702288023292B22280B8
:10B580005B88B35432441B0A5370238802332380F0
:10B590006B6A002B2FD09988B4F800C0881C0CF17E
:10B5A00002020244BA4260D8FE285ED8033106F88F
:10B5B0000C102288013292B2FF212280B1542288DD
:10B5C000013292B222801988B1543244090A517072
:10B5D0002088023080B220809A8862B199680593F1
:10B5E000002900F02A81304404F0BAFA059B9A88B9
:10B5F00023881344238095F82C30002B40F0DB8007
:10B60000287898B32B88012B00F0178123889A1C87
:10B61000BA422AD8012804D16978023119448F42EC
:10B6200023D3023FFF1ABFB2B01806A9ADF81870B5
:10B63000FFF79AFED0B92B78022B00F00281012B84
:10B6400000F007810822FE2F0FD82388791CF154BF
:10B65000238801339BB22380F254238801331F4493
:10B66000278003E00433BB424CD90C2008B0BDE86E
:10B67000F087082FF9D906A8FFF772FE0028F5D148
:10B6800023880822F254238801339BB21B22238093
:10B69000F2542088013080B22080062230440DF11F
:10B6A000190104F05DFA23889DF8182006339BB237
:10B6B00012F0FE0218BF01222380F25423880133C6
:10B6C0009BB22380DAE605F10808022305F10C019C
:10B6D000CDE90147009640461A460591FFF748FE1E
:10B6E0000028C3D1CDE901470599009640461023B3
:10B6F0000622FFF73DFE0028B8D12B8A002B3FF42D
:10B70000F8AE1CE006A8FFF72DFE0028AED1238876
:10B71000BDF818200321F154238801339BB219216D
:10B720002380F154238801339BB2F1182380F25413
:10B73000130A4B70238802339BB22380A2E605F1E3
:10B74000100805F11401CDE9014700964046022397
:10B7500003220591FFF70CFE002887D1CDE90147B0
:10B7600005990096404610230722FFF701FE0028A6
:10B770007FF47CAF2B8B002B3FF4BFAE05F1180894
:10B7800005F11C01CDE90147009640460223142231
:10B790000591FFF7EDFD00287FF468AFCDE9014783
:10B7A00005990096404610231522FFF7E1FD002879
:10B7B0003FF4A3AE5AE7A96A00293ED04FF0000932
:10B7C0004B464FF0160A2BE02388F05423880133B0
:10B7D0009BB2238006F803A0238801339BB2238009
:10B7E00031F82220F2543344120A5A702088023071
:10B7F00080B22080B8F8042030444AB1D8F808104C
:10B80000D9B104F0ADF9B8F804202388134423809B
:10B8100095F82C205FFA89F39A427FF6F1AEA96A77
:10B8200003EB430201EB820809F10109B8F8043087
:10B83000D81C0233FE2BC7D917E7072008B0BDE894
:10B84000F087BDF818309F42FFF4FCAE1F46092276
:10B85000F9E66B789F42FFF4F5AE1F460822F2E648
:10B86000F8B130B4437893421CD0B9B100242346D8
:10B8700001E0994212D9045D013423449BB2C518FA
:10B880001C466D789542F4D1994207D9015D9A1C06
:10B89000012993B202D0184430BC7047002030BC5C
:10B8A0007047704700242346EEE700BF72DF704701
:10B8B00073DF704774DF704770B5044600F1AA0665
:10B8C0000D4630460722002104F072F9E38813B1D7
:10B8D000A378012B5CD0E379002B56D194F8AB30E0
:10B8E000002B73D194F8AC30002B6FD194F8AD30AD
:10B8F000002B6BD194F8AE30002B67D194F8AF30A9
:10B90000002B63D194F8B0301A1E18BF01226B1EB1
:10B91000032B00F24181DFE803F002060B0EA3794E
:10B92000002B40F0EF80E37913B1002A40F02D8125
:10B93000237A002B60D1657A002D49D1A5700023B0
:10B9400084F8B33004F13C0518220021284604F0A5
:10B950002FF9E26A0123511E994284F83C302DD917
:10B9600094F8242084F85130E2B184F85230A3785E
:10B97000002284F85020042B00F2FB80DFE813F053
:10B980003E004800E400CB006700A378022BA5D15D
:10B99000636B002B00F0F680012284F8B1200820B0
:10B9A00098479BE7A378002284F85020042B00F2EC
:10B9B000E080DFE803F0232DB97BCE0094F824303B
:10B9C00084F85120002BEDD0A36ACEE701229EE738
:10B9D0000422636BA270002BB1D06279002AAED032
:10B9E00094F8B220002AAAD1012184F8B42084F866
:10B9F000B31007209847A5E70322EAE7002384F85D
:10BA00003130636B13B194F831009847002070BD5A
:10BA10000023012002218022266484F83100C4F82A
:10BA2000A430636484F83C10A4F8482000212A461E
:10BA300004F15400FFF73AFF0028E8D194F83010E1
:10BA400094F85400FFF734FF0028DAD070BDD4E931
:10BA5000072162640622A4F8481084F83C20627929
:10BA6000002A7CD094F8B220002A78D194F8B4202F
:10BA7000002A74D00223B4F89810D4F8940084F803
:10BA800050300122FFF7ECFE08B10423037004F1EB
:10BA9000940631462A4604F15400FFF707FF0028B8
:10BAA00075D10622A37884F831205DE0D4E905122F
:10BAB0006164A4F848206279002A5DD094F8B2202D
:10BAC000002A59D194F8B420002A55D00223B4F8A2
:10BAD0009810D4F8940084F850300122FFF7C0FE8B
