:020000022000DC
:1060000000000120396202009162020093620200E6
:10601000956202009762020099620200000000008F
:106020000000000000000000000000009B62020071
:106030009D620200000000009F620200A162020057
:10604000C1800200A7620200F9840200AB62020074
:10605000AD620200AF620200818302001D85020072
:10606000B5620200B7620200B9620200BB620200C0
:10607000BD620200BF620200C1620200C362020090
:10608000C562020049660200C9620200CB620200DA
:10609000E5660200CF620200F5D00200D362020082
:1060A000D5620200D7620200D9620200DB62020000
:1060B000C18B0200DF620200A3620200A362020041
:1060C000E1620200E3620200E5620200E7620200B0
:0C60D000E9620200EB620200ED620200D7
:1060DC00354936480A1A02D0072291438D46344975
:1060EC0034480A1A06D00722914381F30988022208
:1060FC0082F3148830483149314A00F044F8314871
:10610C003149324A00F03FF831483249324A00F006
:10611C003AF832483249334A00F035F832483349BC
:10612C00334A00F030F833483349344A00F02BF846
:10613C0033483449344A00F026F8344834490022B4
:10614C0000F02CF833483449002200F027F833488B
:10615C003349091A082902DB002202604160314AE6
:10616C0090471F481F49884205D00268043003B489
:10617C00904703BCF7E700208646EC460020002140
:10618C00294A9047FEE7884207D0521A05D0037877
:10619C0001300B700131013AF9D17047884202D0BD
:1061AC0002700130FAE770470000012000E0002087
:1061BC000000012000000120C4DC0200A42B002000
:1061CC00CB2B0020F0620200F0620200B2DA020077
:1061DC00C4DC0200A42B0020A42B002058DB0200FE
:1061EC0058DB020058DB020058DB020058DB0200CF
:1061FC0058DB020058DB020058DB0200C4DC020052
:10620C00ECDC0200CC2B0020CC2B0020CC2B002073
:10621C00D2350020D4350020D4350020D4350020D0
:10622C00D45500205D620200959702000F484FF094
:10623C000701884385460E4880470E48016841F4A3
:10624C0070010160BFF34F8FBFF36F8FFFF740BF3B
:10625C0009480A490A4A884207D0521A05D00378DD
:10626C0001300B700131013AF9D170470000012067
:10627C00A97B020088ED00E044DB0200902B00209B
:10628C00A42B0020FEE7FEE7FEE7FEE7FEE7FEE7B5
:10629C00FEE7FEE7FEE7FEE7FEE7FEE7FEE7FEE7CA
:1062AC00FEE7FEE7FEE7FEE7FEE7FEE7FEE7FEE7BA
:1062BC00FEE7FEE7FEE7FEE7FEE7FEE7FEE7FEE7AA
:1062CC00FEE7FEE7FEE7FEE7FEE7FEE7FEE7FEE79A
:1062DC00FEE7FEE7FEE7FEE7FEE7FEE7FEE7FEE78A
:0462EC00FEE700BF0A
:1062F0002DE9F84F2F4F304E4FF000082F4B1B78F1
:106300005FFA88F5AB4201D8BDE8F88FD7F8009066
:1063100019F835000124A0F12002C0F1200304FA8D
:1063200002F224FA03F31343D6E9001204FA00FC44
:1063300001EA0C0B02EA030E5BEA0E0E09EBC50A3A
:1063400035D021EA0C0122EA0303C6E9001302F06A
:106350000DF8024619F83500194DA0F12003C0F1DF
:10636000200124FA01F104FA03F30B43D5E900C13B
:10637000C0F120050B40A0F1200122FA05F5844070
:1063800002FA01F1294304EA0C0402FA00F58B42F7
:1063900008BFAC420BD1DAF8043043B19AF80110CF
:1063A0004C1E614261418D1A69426941984708F16A
:1063B0000108A3E7082C0020002C0020CC2B002093
:1063C000F82B0020F8B507461E4800F071FBB8BB5B
:1063D00001251D4EA7F12004C7F1200325FA03F380
:1063E00005FA04F41C43D6E90023BD4002EA050087
:1063F00003EA040101431DD1384601F0B7FF134BF6
:10640000D3E9001288B129432243C3E90012D6E937
:1064100000232A432343C6E900230D4B094819688A
:106420000022BDE8F84000F0FBBA21EA050122EAAB
:106430000402EAE722EA050223EA0403C6E900238C
:10644000F8BD00BFD42B0020002C0020F82B00202A
:10645000D02B0020042A2DE9F34105460C461646B0
:106460003BD901F0BBFEE8B11D4B1E491D601E4B20
:10647000DFF888801C701D4B00221E600023C1E9DC
:1064800000231B49C1E90023013CE4B20026032795
:10649000FF2C0ED1174A1848002102B0BDE8F04188
:1064A00000F0ACBA01F068FE0028DDD002B0BDE813
:1064B000F08105EBC40315F834009B788DF8066075
:1064C000424601A98DF804708DF8053001F090FE68
:1064D000013CE4B20028DBD0E8E70720E6E700BF94
:1064E000082C0020F82B0020CC2B0020D02B0020E3
:1064F000002C0020F162020058DB0200C56302009C
:1065000070B5084D084E00242B789C4201D3002022
:1065100070BD3368012113F8340001F0E1FE01344D
:10652000F2E700BFCC2B0020082C00201FB5002173
:10653000039001AA44F20100CDE9011100F004F832
:1065400005B05DF804FB000072B6094BD3F8F020EB
:10655000D20700D500BEBFF34F8FD968054A01F4BA
:10656000E0610A43DA60BFF34F8F00BFFDE700BF71
:1065700000ED00E00400FA05094B5A7899780132E1
:10658000D2B2914208BF0022197891421FBF027017
:106590005878182202FB003014BF043000207047E6
:1065A0000C2C002073B5054600240DF107000E46A3
:1065B0008DF8074000F08CFA0DF10600FFF7DCFFC4
:1065C00090B10670094B9DF8062045605A709DF801
:1065D000070000F0A1FA24B9054B4FF48012C3F86C
:1065E0000021204602B070BD0424F0E70C2C0020EE
:1065F00000E100E0024B4FF43C6043F00103184718
:1066000060DB020038B50C4B0C4C4FF40032C3F881
:10661000802001254FF48033C4F84833C4F8083390
:106620006560FFF7E7FF064BA56000241C60FFF7DD
:10663000E1FF044B1C7038BD00E100E00010014098
:10664000282D0020192D0020F8B51F4B1F491B686D
:106650000025C1F84051C1F84451C1F84851C1F872
:106660004C51C1F80051C1F804514BB3D1F8044565
:1066700017490968641A24F07F442F461A68A24219
:1066800009D8A41A15441A7CDE691AB1D3E9052089
:106690001F749047AEB90F4A0F4B11781B788B428D
:1066A00005D10133DBB2022B08BF0023137012782F
:1066B0000A4B43F822500A4B4FF48012C3F80021D2
:1066C000F8BD3346DAE700BF2C2D00200010014052
:1066D000282D0020252D0020242D00201C2D0020F9
:1066E00000E100E02DE9F04FA14AA24913780978B2
:1066F000A14D994285B03CD00133DBB2022B08BFDB
:10670000002313709D4912789D4B0F6853F82200A7
:106710003B1823F07F4300220B602B68164614467B
:10672000944613B942B12B6006E0196881420ED934
:1067300002B12B60091A196001272B68DFF848A203
:1067400001934FF00008BEB9DFF844B260E0401A90
:106750000C44D968D3F81CE0C3F800C031B13A1931
:1067600022F07F42C3E90121DE611E467346012209
:10677000D7E700263746E0E73446F6697F4B606886
:106780001B68DFF810C2A168C21A22F07F4262457E
:1067900000F2A6800A442260012222742A680023A3
:1067A000C4E90133E361002A40F0A3802C60CAE70A
:1067B0009BF802105A1CD2B291428BF8002004BF01
:1067C00000228BF80020182202FB03B32A681979F3
:1067D0009C68022975D003297FD0012918D1207C1B
:1067E000B0B9D3E90312A2605A69E2609A69654BB5
:1067F000A2611A78002A18BF01466160BEE78C4288
:1068000000F094808946C9690029F8D100232374D7
:106810009BF800309BF801209A42C9D12B68B8F14F
:10682000000F04D1019A9A4201D1002F43D0002BCE
:1068300079D0D3F800A0544D504BD5F804751C689E
:10684000DFF854813E1B98F8003026F07F4603366F
:106850009BB94FF48033C5F84433C5F804334B4B30
:106860004FF400324FF00109C3F880211A60C5F8D7
:106870000090FFF7BFFE88F80090B2452CBF54444B
:10688000A41924F07F44C5F84045D5F80435DB1B36
:1068900023F07F43E41B033324F07F44A3420AD94F
:1068A000D5F80435C5F84035FFF7A4FE374B4FF453
:1068B0000032C3F80021334B00221A7005B0BDE846
:1068C000F08F114691469FE71174D2690123002A87
:1068D000FAD1002B9CD02A609AE700231946F6E7EC
:1068E0001B1A23F07F438B4234BFCB1A0023236053
:1068F00052E721681368994213D85B1A1360E2616A
:1069000054E7091AD8691A4638B10346186888420C
:10691000F7D3401A1860184613462160E061DC6125
:1069200011E71346F2E7FFF76DFEC4E74C4511D1BE
:10693000D3692B6073B9DFF844E00120CDE902127E
:10694000CAF80800CEF800300E4B1870FFF752FE60
:10695000DDE902120B68C969C9F81C1011B1086899
:1069600003440B602B68934218BF4FF001084DE7BA
:10697000242D0020252D00202C2D0020282D002046
:106980001C2D0020182D00200010014000E100E027
:106990000C2C0020FEFF7F00192D002008B5FFF70A
:1069A00031FE104B00200B2218809A700E4B18609D
:1069B0000E4B18700E4B18700E4B4FF48012E021E6
:1069C000C3F8802183F814131A6002F18042A2F503
:1069D0006F22C2F8080583F81113074BD2F804257B
:1069E0001A6008BD0C2C00202C2D0020242D002026
:1069F000252D002000E100E0282D0020074B9B788A
:106A00004BB132B128B10368187C20B959745A616E
:106A10007047072070470820704700BF0C2C0020EB
:106A20002DE9F743DFF8848098F8023005460E46DA
:106A30001746ABB3A0B3042930D9436983B3437C71
:106A40000024012B0DF107000CBF8946A1468DF8EB
:106A5000074000F03DF80DF10600FFF78DFDD8B1BD
:106A6000012303700F4B4560D3F80435C0E9049748
:106A7000C0E902369DF8063088F801309DF807001D
:106A800000F04AF824B9084B4FF48012C3F80021F3
:106A9000204603B0BDE8F0830424EFE70724F7E7BE
:106AA0000824F5E70010014000E100E00C2C002074
:106AB000064A92783AB130B1426922B1002202749A
:106AC0000221FFF76FBD0820704700BF0C2C00208B
:106AD00070B5EFF3108672B60C4A946801239CB926
:106AE00093600B4B0B4DD3F8801029401160C3F815
:106AF0008050D3F8841051604FF0FF32C3F88420E7
:106B0000047006B962B670BD0370FAE7302D00203C
:106B100000E100E0FC06FFBD084B9A6810B55AB1D1
:106B200050B9EFF3108172B6054A1C6814605C68B6
:106B30005460986001B962B610BD00BF302D0020CE
:106B400000E100E070B5064D0646002455F8043B10
:106B50000BB1304698470134042CF7D170BD00BF0B
:106B6000482D00204388033300EB8303994209D367
:106B700082884FF6FF739A4206D00088B0FA80F000
:106B8000400970470220704701207047033080B2EF
:106B900040F2FD33984230B51FD8124B1A783AB9FB
:106BA0001C895D892C440444A4B2B4F5806F0AD3D7
:106BB0001A7DA2B99A8BDC8B2244024492B2B2F5C0
:106BC000806F0CD201220A801446142202FB043387
:106BD0005A8910445881002030BD0920FCE7072065
:106BE000FAE700BF7C2D00200B4A0C495388142083
:106BF00000FB0311CB6833B90420496810700122EF
:106C0000074800F015BE07490523137002238B8047
:106C1000012209680023F3E7602D00207C2D00206D
:106C2000902B0020B82D002007B5002305490093C4
:106C3000054A09680548082300F0CCFD03B05DF85B
:106C400004FB00BFB82D002074DB0200902B002055
:106C500007B5002301460093034A0448082300F0C7
:106C6000B9FD03B05DF804FB6CDB0200902B002043
:106C700013B500230C4600930146084A0848042334
:106C800000F0A8FD38B9074B142101FB04310123A2
:106C90000B7402B010BD0E20FBE700BF68DB0200E2
:106CA000902B00207C2D002037B50A480A4B426803
:106CB0009C88196853880325033305709BB2002014
:106CC00000909B0001EB8401044800F083FD03B0B9
:106CD00030BD00BF602D0020B82D0020902B00207B
:106CE00010B50146044800F0A8FC1C22044600210F
:106CF00006F07CFE204610BDA42D002038B5144BB4
:106D000014220D4602FB00302B68446804F58051C4
:106D1000A3B15C88033403EB84048C4215D223684E
:106D2000013312D02046FFF71DFF012808D00228AA
:106D30000BD00028F1D12C60012038BD0834ECE7DD
:106D40006388033304EB8304E7E70020F5E700BF23
:106D50007C2D0020426873B504460D4662B3234B78
:106D6000D9688A4228D31B699A4225D812F00303B6
:106D700022D11F490089098988421DD12068916864
:106D8000884219D11B4841688A4203D901F58051D4
:106D90008A420DD381698A420CD901F580518A4219
:106DA00008D201222A80B3FA83F0400902B070BDF4
:106DB0001A46F7E70A23F6E700262E800196288870
:106DC00001A9FFF79BFF30B92B8801339BB2012B40
:106DD0002B80F3D9EAE7019B226899689142EED1B2
:106DE0006360034B1B892381E0E700BF902B0020E9
:106DF000602D00207C2D00202DE9F8431C461C4B03
:106E00001B7806460F4615466BB372B36CB3DFF8BA
:106E100068804FF01409A388012B01D90A2020E0D3
:106E200009FB03F318F803302BB9A0882146FFF7BC
:106E300065FF20B92060A3880133A380EBE72368B6
:106E40001EB1998832889142EFD11FB119883A88D2
:106E50009142EAD19A68C5E90023064B1B892B8130
:106E60000020BDE8F8830220FBE70520F9E700BF1A
:106E7000582D0020602D00207C2D002008B5074BE8
:106E80005888191DFFF73AFF18B1BDE80840FFF711
:106E90000BBFBDE80840FFF7A7BE00BF602D002074
:106EA0002DE9F0479F4FDFF8A08288B006463B6887
:106EB00023B99D48414600F0FAFB38603D682978C7
:106EC0004B1E052B07D8DFE813F01F007700770073
:106ED000070107015B010F241422002103A806F01B
:106EE00085FD41F61D539C4208BF00243B68049475
:106EF0001A78023A042A00F2F981DFE812F0DA0186
:106F0000E60108021002170226B1884B00225A60DF
:106F10000124E1E72B79032B1CD8DFE803F01402EE
:106F20002934834A1378022B19D0137D022B4FF09A
:106F3000010316D114214B43D1180020D0544868C6
:106F4000FFF786FE03E001232B71FFF76DFE00289B
:106F500000F0BD80754B00225A600E24BCE7002370
:106F6000E8E7724A13700023536041F61D54B3E7FB
:106F700070497148002302222B718A80096801221E
:106F800000F056FCE3E76B4C00262E712068FFF7FB
:106F90005FFE6A4BDFF898C15B8825681422534373
:106FA0000CEB03020CF8036051685560A58815814D
:106FB00002222160A280CAE7B5F814A0AA7DDFF8FA
:106FC0007091AEB1022AEB8806D9142101FB0A9117
:106FD000DA1C088902440A81142202FB0A99C3F5CB
:106FE0007F43B9F80A20FD331344A9F80A308FE72C
:106FF000142303FB0A9318895C6804EB8004062AB7
:1070000068D8DFE802F0274D35431D59040041F6EA
:107010001D54AA7DEB88022A06D9142101FB0A918E
:10702000DA1C088902440A81142202FB0A99C3F57A
:107030007F43B9F80A20FD331344A9F80A304BE71F
:107040003F48404900234360AB690360FFF782FE7D
:10705000002859D00223AB75002300930423EA18BB
:107060002146354800F0B6FB002830D00E24D0E78A
:107070002B69002B14BF03230123AB75002300935E
:1070800005F10C02042304F10801EAE70123AB75C2
:107090000022EB8800922A699B0004F10C01E0E7D2
:1070A00003290CBF05230623AB750023009304239B
:1070B00005F10802E118D4E70623AB75214B1988C6
:1070C0001F4B5868FFF7D4FD04460028A1D108B033
:1070D000BDE8F0870F249CE7002E7FF419AF2B79D1
:1070E000012B33D0022B3FF440AF002B7FF4F3AEE3
:1070F00002232B710DF10A01EB68039303A8CDE97C
:107100000466FFF727FE08B90A24E5E60498BDF8EF
:107110000A108388EB8003882B81FFF7A9FD0446C2
:1071200027E000BF782D0020A42D0020582D00203E
:107130007C2D0020B82D0020902B0020602D0020F9
:107140003C2D0020C02D0020702D0020DFF8F8918C
:1071500003AA4B463146A81DFFF74EFE044660B910
:10716000B9F804100498FFF783FD04460A2C3FF495
:10717000FCAE002C7FF4B0AEA9E7C9E90066F5E7E4
:10718000002E7FF4C5AE6B4B1A7BBAB11E731A7812
:10719000013A062A3FF69FAE01A151F822F000BF46
:1071A000477202006D7202008B720200917202003F
:1071B000D76E020097720200A97202001A78072A9D
:1071C000E5D801A151F822F0E97102008F710200A7
:1071D0008F7102000F7202002372020043720200DC
:1071E000437202000B7202001A89534901321A815C
:1071F00000225A801A730A78B2FA82F252099A72FD
:107200000A7DB2FA82F25209DA72012207E04B4992
:1072100058688A884088033202448A8002221A70A1
:10722000B5E75C88444A4549142505FB04220868F3
:10723000546850608888108102228A800C6006227F
:10724000EDE70722EBE79A7A32B9DA7A8AB90022B7
:107250001A705A805A6088E6374900229A72CA68C2
:10726000002AF2D1097C0029EFD05A80FFF706FEF0
:1072700055E70022DA72304A116A0029E7D192F804
:107280002420002AE3D00122EFE7FFF70DFD46E7B7
:10729000FFF7AAFC43E75A88274B142101FB02336E
:1072A0005868FFF7D5FC3AE700225A60FFF7BCFCAC
:1072B00035E701228DF80C201A89ADF818209A883C
:1072C000DB68ADF81A20059310E002228DF80C203F
:1072D0001A89ADF818209A88ADF81A20DA689B7DD3
:1072E00005929A1F534253418DF81C3003A8FFF7B3
:1072F00029FC0026414612483E6000F003FA11487E
:10730000012100F05BFA00287FF4D1ADDFE6032213
:107310008DF80C20DA88ADF818201A89D0E70422FD
:107320008DF80C20DB88ADF81830DFE705238DF8E9
:107330000C30DBE7602D00207C2D0020B82D0020D4
:10734000A42D0020B42D0020C42D00204068FFF79C
:10735000A7BD000008B50548012100F017FA18B9CB
:10736000BDE80840FFF79CBD08BD00BFB42D00205C
:107370002DE9F3419846354B1B7806460D46002B08
:107380005BD000295BD009884FF6FF73994258D033
:107390006B88002B55D06B689B0754D14AB92F8955
:1073A0000DF102013846FFF7F1FB30B102B0BDE844
:1073B000F08113885788ADF8023001A8FFF790FCE0
:1073C000044658B9BDF80220214B142101FB0233B9
:1073D00058890338C01B58810820E7E780F80080EF
:1073E00000238375BDF8023083826B68036101213D
:1073F000184800F0D7F92B882381B8F1030F6B8868
:10740000A38004BF0423A3754FF0000508BF3368B1
:10741000E06008BFA3611048E780658101A900F022
:1074200036F936B1E36833600C4B75601B89B57271
:107430003381FFF78FFF0020B8E70220B6E7052071
:10744000B4E70420B2E70320B0E700BF582D0020C6
:107450007C2D0020742D0020A42D0020602D002004
:1074600073B50D460446C8B1C1B10DF10601FFF771
:1074700071FCA8B1BDF806300A486668142202FB08
:10748000030001210C3000F08DF963682E600C338D
:107490006B600123A372002002B070BD0520FBE7E2
:1074A0000A20F9E77C2D002013B50446A8B10DF1A0
:1074B0000601FFF74FFC90B1BDF806200A4B1421DE
:1074C00001FB0233DA6862B1A27A52B1DA680020B5
:1074D000013ADA60A07202B010BD0520FBE70A2075
:1074E000F9E70620F7E700BF7C2D00200B4B1B7847
:1074F00037B504460D4663B168B10DF10601284663
:10750000FFF744FB18B9BDF806302380658003B04F
:1075100030BD0220FBE70520F9E700BF582D002011
:10752000104B1B7810B5B3B1B8B10188022916D839
:107530000D4A4388142404FB01229C1C51898C426F
:107540000DDAC3F57F43FD330B44538100230380E1
:107550004380184610BD0220FCE70520FAE704200E
:10756000F8E700BF582D00207C2D002002230022C8
:10757000FFF7FEBE12B10223FFF7FABE05207047E7
:1075800018B103230022FFF7F3BE05207047000067
:10759000104B1B7813B50446ABB14FF6FF739842FE
:1075A00013D001A8FFF79CFB88B1052303700123CA
:1075B0000371C48001A9084800F069F8FFF7CAFE0A
:1075C000002002B010BD0220FBE70420F9E70820EC
:1075D000F7E700BF582D0020A42D002007B5ADF817
:1075E0000600ADF804100DF1060001A9FFF704FC38
:1075F00003B05DF804FB07B51346ADF806000A4674
:1076000000200DF10601FFF7F7FB03B05DF804FB66
:1076100007B51346ADF806000A460DF10600002135
:10762000FFF7EAFB03B05DF804FB20B119B1036872
:107630000B60002070470520704737B550E8013FC8
:107640009DB2C48925448489A54228BF2D1B048985
:10765000A54202BFBFF32F8F002207E0C5EA030552
:1076600040E80154002CE9D14FF001028DF80320CD
:107670000193019A0A609DF8031001F0FF0321B104
:10768000006810FA82F003B030BD1846FBE70A88A4
:107690004B889A4209D150E8012FC2EA024240E8E1
:1076A0000123002BF7D1012070470020704737B528
:1076B00050E8023F1FFAA3F5C488A54202BFBFF3FA
:1076C0002F8F00220DE0C48925448489A54228BF5C
:1076D0002D1BC3EA054540E80254002CE8D14FF0C9
:1076E00001028DF803200193019A0A609DF80310AE
:1076F00001F0FF0321B1006800EB124003B030BD80
:107700001846FBE70A884B889A4209D150E8022FB5
:10771000C2EA224240E80223002BF7D10120704741
:107720000020704701F01F024B090121914000EB3E
:10773000830000F013B801F01F0301229A404B09A7
:1077400000EB8300D14300F015B84B0901F01F0195
:1077500050F82300C84000F00100704710B5034600
:1077600053E8002F42EA010043E8000494F0000FC0
:10777000F6D110BD10B5034653E8002F02EA010010
:1077800043E8000494F0000FF6D110BD10B5034695
:1077900053E8000F00EB010243E8002494F0000FCF
:1077A000F6D110BD10B5034653E8002F02EB0100DF
:1077B00043E8000494F0000FF6D110BD10B5034665
:1077C00053E8002FA2EB010043E8000494F0000FFF
:1077D000F6D110BD2DE9F04308B302B3D0F800E0B4
:1077E000BEF1000F1ED0FBB14568D5F80490B3FB85
:1077F000F9F509FB1535BDB942EA010C1CF0030F80
:1078000014D1C568A94211D34D1EEC180569AC42CC
:107810000CD8DEF80C40A446BDE8F04360470E20CB
:10782000BDE8F0830820FBE70920F9E71020F7E71F
:10783000F0B5D8B1D0F800C0BCF1000F18D0CAB173
:107840004568D5F800E00EF1FF350D4214D1C5684A
:10785000A94211D34D1E0EFB02540569AC420BD850
:10786000DCF81040A446BDE8F04060470E20F0BDB3
:107870000820FCE70920FAE71020F8E770B550B9B6
:107880000E4D0F4C0026641B1423B4FBF3F4B442DA
:1078900008D1002010E00368002BF1D0BDE8704053
:1078A000DB6918472B6813B901361435EFE7DB693C
:1078B000284698470028F7D070BD00BF902B0020C5
:1078C000A42B002029DF704728DF704770B50368BC
:1078D0009E6886B004460D466EB1142200216846AB
:1078E00006F084F8A3680593237901952BB1012B49
:1078F0000DD06846B04706B070BD01238DF800304A
:1079000023690293E368039363690493F1E7022315
:107910008DF80030E3681B030293F5E7034B187AF8
:107920000122B0FA80F05A7440097047DC2D002023
:1079300038B5234D234C2B7A3BB923492348FFF715
:10794000B6FE206008B9686038BD022324682B7237
:10795000237973B1012B24D020460321FFF7B6FF12
:1079600000232B726B6018491848BDE83840FFF7B8
:10797000C9BED4E90523D21AB2F5805FD4E9031059
:1079800028BF4FF480529208012A38BF01221944BF
:107990001844FFF797FF50B11128DDD101232B7256
:1079A000D2E7D4E903031844FFF78EFFF3E72B7CFB
:1079B000002BC9D1BDE83840022000F009B800BF53
:1079C000DC2D0020F42D0020F02D0020CC2D0020F7
:1079D00038B5234C237A002B41D0022B09D1032840
:1079E00030D0204B00221B68E2601A793AB1012A9C
:1079F00022D0637C7BBBBDE83840FFF799BFD3E959
:107A000005128D1AB5F5805F94BF521902F58052A8
:107A10009A619142EDD102284FF0000308BF194648
:107A20002372104B18BF0D211868FFF74FFF0E4946
:107A30000E48FFF767FEDCE71A6901321A615B69DD
:107A40009A42E7E7E3680133082B01D8E360D0E707
:107A50000023E360DFE7BDE8384005F021BB38BD17
:107A6000DC2D0020F42D0020F02D0020CC2D002056
:107A7000831E012B01D8FFF7ABBF704700F0FD0359
:107A8000012B08D1044B00225A74421E504250412F
:107A90001874FFF74DBF7047DC2D002041DF7047A1
:107AA000064B10B500241C70054B1C60BFF35F8FA4
:107AB0000449054800F032F8204610BD002E002091
:107AC000042E00207CDB0200F82D002007B50023E7
:107AD0000DF107008DF80730FEF7FAFFF1EE103ACE
:107AE00023F09F03E1EE103ABFF35F8F0A4B402271
:107AF000C3F884219DF80700FFF70EF805F0E0FABF
:107B000020B103B05DF804EBFFF7C8BF20BF40BF52
:107B100020BF03B05DF804FB00E100E00B684A6899
:107B20004360934208BF0023016008BF4360704771
:107B3000436843B10268916852680B4493424360C2
:107B400004BF0023436070474FF0704393F8E02F69
:107B5000062A10D1D3F8E42F12070CD1D3F8E80F7E
:107B600000F0F003302B08D000F0E000A0F140035B
:107B700058425841704700207047012070474FF02D
:107B8000704393F8E02F062A0CD1D3F8E42F1207A4
:107B900008D1D3F8E80F00F0F000A0F1300358420C
:107BA000584170470020704708B5FFF7CDFF40B13E
:107BB0004FF08053884AD3F82433C3F30423C2F828
:107BC0004035FFF7DCFF10B1844B854A5A67FFF759
:107BD000BBFF48B14FF080534FF08042D3F844329E
:107BE000C3F34233C2F83C35FFF7C9FF30B17D4AD9
:107BF000D2F8FC3023F08073C2F8FC30FFF7A4FF0A
:107C000040B14FF080430022C3F80C21C3F810218B
:107C1000C3F83825FFF7B3FF20B14FF080430322AC
:107C2000C3F8A025FFF7ABFF60B16F4B0522C3F887
:107C300010260122C3F888260022C3F818263F2206
:107C4000C3F814264FF0704393F8E02F062A50D162
:107C5000D3F8E42F11074CD1D3F8E83F03F0F00339
:107C6000502B46D14FF08052604BD2F80414C3F829
:107C70002015D2F80814C3F82415D2F80C14C3F850
:107C80002815D2F81014C3F82C15D2F81414C3F820
:107C90003015D2F81814C3F83415D2F81C14C3F8F0
:107CA0004015D2F82014C3F84415D2F82414C3F8B0
:107CB0004815D2F82814C3F84C15D2F82C14C3F880
:107CC0005015D2F83014C3F85415D2F83414C3F850
:107CD0006015D2F83814C3F86415D2F83C14C3F810
:107CE0006815D2F84014C3F86C15D2F84424C3F8D0
:107CF0007025FFF729FF48B14FF080534FF08042C5
:107D0000D3F8583203F04F03C2F8E43EFFF71CFFEC
:107D100048B14FF08043D3F80024D20744BF6FF03E
:107D20000102C3F800244FF08053D3F83021062A13
:107D30000AD1D3F83431062B01BF2D4AD2F83C3793
:107D400043F48063C2F83C37264AD2F8883043F4C3
:107D50007003C2F88830BFF34F8FBFF36F8F4FF0BF
:107D60001023D3F80022002A03DBD3F80432002BBF
:107D70002EDA204B0122C3F80425D3F80024002A70
:107D8000FBD04FF010221521C2F80012D3F80024C6
:107D9000002AFBD04FF010231522C3F80422154B04
:107DA000D3F80024002AFBD00022C3F80425D3F81E
:107DB0000024002AFBD0BFF34F8F0A490E4BCA683C
:107DC00002F4E0621343CB60BFF34F8F00BFFDE7C7
:107DD0000A4B0B4A1A6008BD0030014000C0074042
:107DE0000DF0ADBA00ED00E00050004000C00040D2
:107DF0000010004000E001400400FA05A42B002020
:107E00000090D003054A4FF0A043105CD3F804352E
:107E100023FA00F0C04300F0010070478CDB020041
:107E2000044B1A5C012393404FF0A042C2F80C357A
:107E3000704700BF8CDB0200044B1A5C01239340A7
:107E40004FF0A042C2F80835704700BF8CDB02003B
:107E500008B50020FFF7F0FF0120FFF7EDFF02203B
:107E6000FFF7EAFFBDE808400320FFF7E5BF08B5CC
:107E70000020FFF7D5FF0120FFF7D2FF0220FFF718
:107E8000CFFFBDE808400320FFF7CABF074A4FF005
:107E9000A041105CD1F804350122824022EA03009F
:107EA0001340C1F80805C1F80C3570478CDB02009F
:107EB000054A4FF0A043105CD3F8103523FA00F0C8
:107EC000C04300F00100704788DB02000D2809D094
:107ED0000E2809D00F2809D010280CBF03204FF01E
:107EE000FF30704700207047012070470220704724
:107EF000014B185C704700BF88DB0200C20708B561
:107F000001460CD54FF0A0430322C3F84427C3F821
:107F10004827C3F84C27C3F85027FFF799FF8B0772
:107F20000AD54FF0A0430C22C3F83427C3F83827F2
:107F3000C3F83C27C3F8402708BD000038B5074CFC
:107F4000051E04F1080318BF1C4623682BB11A68EC
:107F500022605B6828469847F7E738BD102E00205E
:107F600020B9054B01225A70FFF7E8BF012802D162
:107F7000014A9070F8E77047082E002020B9034BA3
:107F800001225A70FFF7DABF704700BF082E0020A9
:107F900038B50B4C237883B90A486360A36023612A
:107FA000E36000F063F8054605F08AF808B900F0D0
:107FB00069F801232370284638BD8525FBE700BFFB
:107FC000082E0020617F020037B50B4C00230DF115
:107FD00007008DF80730FEF77BFDE368013BE360A7
:107FE000E56815B900F062F8A5709DF80700FEF786
:107FF00093FD03B030BD00BF082E0020012813B54B
:1080000008D003281CD018B9114B0122C3F88020D6
:1080100002B010BD0F4C00230DF107008DF80730A2
:10802000FEF756FD23780BB9FFF7B2FFE3689DF822
:1080300007000133E3600123A370FEF76DFDE7E75E
:1080400000F020F802B0BDE81040FFF7BDBF00BF50
:1080500000E100E0082E002000F18040002382B003
:10806000036003680193019B02B07047044A1379CF
:1080700023B9012110609180184670478520704710
:108080001C2E0020084B1A68D20706D4E02283F881
:1080900000230122C3F880211A604FF0804301229F
:1080A000C3F81825704700BF00E100E04FF080439F
:1080B0000122DA60D3F81824D203FBD47047000001
:1080C0004FF0804110B5D1F8003163B14FF48070AA
:1080D000FFF7C2FF0D4B58790122C1F8082310B9F0
:1080E0005A711B6898474FF08042D2F8043163B14F
:1080F0004FF48270FFF7B0FF0223C2F80833034B3E
:10810000BDE810401B680120184710BD1C2E002040
:1081100000F1804000F5C040002382B00360036896
:108120000193019B02B07047800000F1A040D0F89D
:10813000002722F44032C0F80027D0F8003743EA85
:108140000141C0F800177047C208012300F0070082
:1081500003FA00F08B5C184388547047054B4FF0CE
:10816000FF32072843F8202084BFC01880F8482039
:10817000704700BF242E002038B5154D95F85840A3
:108180001CBB2022FF2105F1300005F02FFCE0B2DE
:108190000134FFF7E3FF0C2CF9D10E4B0022E02154
:1081A0006A6583F806134021C3F880114FF4BE704E
:1081B0001960FFF7ADFF084B4FF00041C3F80413FF
:1081C000012385F85830104638BD0820FCE700BF71
:1081D000242E002000E100E000600040034B93F8F3
:1081E0005800003818BF0120704700BF242E00201F
:1081F0002DE9F041DFF8E48008EB0003054693F930
:108200003030002B0F4664DA8B78C3F34003002B29
:108210000BBF082400240C2108218C4202D1042029
:10822000BDE8F08158F8240001303DD108EB05018C
:1082300066B248F8242081F830601BB908EB0403CB
:1082400083F84850BB785A070ED4D9072ED5AB0017
:1082500003F1A043D3F8002722F00202C3F800275D
:108260001D492846FFF770FFBB783A7813F00203E8
:1082700025D0A40004F1804404F5C0442D02D4F8B4
:10828000103523F4473323F44073C4F81035120437
:10829000D4F8103505F4F85502F4403215431D4367
:1082A000C4F810550020BBE70134B6E77A7805F52D
:1082B000E0734FF0A041920041F82320D0E7083E40
:1082C00048FA86F696F8505045EA821286F8502011
:1082D000E8E70820A4E700BF782E0020242E002025
:1082E00038B5204C251895F93020072A18DD083AB2
:1082F00044FA82F494F850309B09032B0BD14FF0D1
:10830000A043D3F81015C14001F001010231BDE8CE
:108310003840FFF709BF012B0CBF02210321F6E70C
:10832000D3B2072B1DD8930003F1804303F5C0435C
:10833000D3F8100540F00100C3F8100502F1400029
:1083400040B2800080B2FFF7E3FE51B195F93030C2
:1083500054F823302BB1012303FA02F2024BC3F885
:10836000042338BD242E0020006000404FF0A043BD
:10837000D3F8103523FA00F000F001007047000038
:108380002DE9F04F87B00024584D03944FF48072CC
:10839000012102F1804303F5C04390B21B68012B19
:1083A00006D1D5F804330B4202D0FFF7B1FE0C43DF
:1083B0000432B2F5907F4FEA4101EAD14B4BD3F83A
:1083C0007C31012B0AD14FF4BE70FFF7A1FE4FF0B4
:1083D000A04344F00044D3F810350393E3B2D3B183
:1083E000434F01260025344210D0AB0003F18043F7
:1083F00003F5C043D3F81005D3F8101557F825300E
:1084000023B1C1F30141C0F3042098470135082D81
:108410004FEA4606E7D1002C61DA00224FF0FF3325
:10842000CDE90423DFF8C880DFF8C890002637467E
:108430004FF0A04B19F9014B631C45D0C4F3C203A4
:108440000122E5B204F03F0004F0070402FA04F44C
:1084500006AA134413F8042C224235D008EB00027C
:10846000AD0992F9302058F822A0BAF1000F09D1D5
:10847000032D29D104A901930090FFF765FEDDE9E2
:10848000000301E0032DF5D000F5E07113F80C3C7A
:108490005BF821102342C1F3014105D0022913D119
:1084A000032D0CD1294604E003290DD1032D06D15B
:1084B000022100900136FFF737FE0098F6B2BAF1BC
:1084C000000F01D02946D0470137042FB2D136B171
:1084D0004FF0A043039AD3F81035934202D107B06E
:1084E000BDE8F08F0393049B05939DE70060004077
:1084F000242E0020742E0020014B1B68184700BF5B
:10850000802E002000F1804000F5E040002382B082
:10851000036003680193019B02B07047F0B5524BB2
:10852000524CD3F8043185B0002B3DD094F82E2066
:108530004FF48270FFF7E6FF2AB394F82F3013BB95
:10854000494AD2F80031002B32D04FF48070FFF747
:10855000D9FF638B94F82D00834250D921891B1ACF
:108560009BB289B26383CB1A616801EB4303C2F803
:108570002C36C2F830064FF48270FFF7C3FF3A4B37
:1085800001225A6014E0636802932389ADF80C302D
:10859000E36800218DF8041033BB2374236801A81D
:1085A0009847002384F82F3094F82E30002BC7D141
:1085B0002D4BD3F810315BB14FF48870FFF7A2FF59
:1085C0000023237402238DF8043001A82368984700
:1085D000254BD3F81431EBB14FF48A70FFF792FFBB
:1085E0000023237405B0F0BD208B6083636020817D
:1085F000E160002AD2D11C4B01221A60CEE7BAD129
:10860000E368012184F82F1013B100216183AEE7E4
:108610006383B0E766694FF000470125002EE1D083
:10862000B6FA86F227FA02F34632920026EA0306E9
:1086300002F1804303F5E0431B68002BEED01046A7
:10864000A2F58C72FFF75EFFD30882F00402C2F33A
:1086500080028DF808308DF8045023688DF80920C9
:1086600001A89847DAE700BF00700040882E00207C
:1086700038B51D4B044693F82C0098BB1B4A196073
:108680002178C2F8F0156178C2F8F415E57818740D
:10869000012183F82D00586183F82F0083F82E50B4
:1086A00083F82C106FF00043C2F808334FF4827047
:1086B000FFF728FF4FF48070FFF724FFA3780C48E2
:1086C0005B01DBB280F807338023C0F880310360A0
:1086D0000223C2F804330DB1C2F80413C2F8001526
:1086E000002038BD0820FCE7882E002000700040E4
:1086F00000E100E070B52C4B1A7C02F0FF05002A67
:108700004FD10A79012A9CBF284CC4F8005500F1CA
:108710000C0503EB4504247924B993F82D4001346A
:1087200083F82D4003EB4503CC790D7A8E781C71CC
:108730005D714B7836021B0106F4E06603F03003EE
:1087400033430E7806F003063343CE78360306F43F
:1087500080563343160406F4E02633434E79897974
:10876000360506F480160906334301F080710B4389
:108770000E4901EB0016000100F1804000F5E040D9
:10878000012AC6F81835C0F81455C0F81045C0F8CD
:108790001455C0F8104502D80123C1F80035002057
:1087A00000E0112070BD00BF882E00200070004046
:1087B00070B5264A264B05461220C2F808031C7CD9
:1087C000022C03D1C2F80403112070BD187C0128CB
:1087D0001CD1D86818B10223C2F80433F4E7DD6075
:1087E000198393F82E305BB9D2F80031002BFBD0FF
:1087F0004FF48070FFF786FEC2F82C56C2F8301690
:10880000124B0222C3F804230020DEE7022093F873
:108810002E40C2F80403012600201E745D601981F9
:10882000D8603CB1598393F82D30C2F82C56C2F869
:108830003036CAE7C2F82C564FF48070C2F83016B2
:10884000FFF760FE16602046BFE700BF00700040E3
:10885000882E0020074B197C0129CAB208D193F851
:108860002E00054B10B11A60002070475A60704707
:1088700008207047882E002000700040F0B51B4F84
:108880008BB207EB001443EA0243C4F81C35184BC3
:1088900040005C6900F1010C4FF0004611F5006FDB
:1088A00026FA0CF64FF0800505FA00F50BBFB4432D
:1088B00034435C615C610CBFC7F80853C7F80453CC
:1088C00040244FF000455969844025FA00F040F2F9
:1088D000FF75AA42054A0BBF8143014359615961A3
:1088E0000CBFC2F80843C2F80443F0BD007000405A
:1088F000882E002010B5124B1A7CF2B900F10C0141
:1089000003EB4102127922B193F82D20013A83F84A
:108910002D2003EB410300249C80030103F18043DD
:1089200003F5E0430749C3F8144540F2FF72C3F86A
:108930001045FFF7A3FF204610BD1120FCE700BF44
:10894000882E002000F8FFFF38B5124B6FF0004270
:10895000C3F80823104A8021C2F8801001229A60CF
:1089600042F21072D3F8141109B9013AFAD10B4D41
:108970000024C3F800452C7405EB44031B7F13B19E
:10898000E0B2FFF7B7FF0134082CF5D1002385F8DA
:108990002C3038BD0070004000E100E0882E00203F
:1089A0000023435082B043580193019B02B07047AB
:1089B00038B51D4602230B710B684A7104467BB122
:1089C00012F0040F0CBF82219221100748BF41F022
:1089D0002001D306236848BF21F08001C3F80013AB
:1089E00020684FF48271FFF7DBFF12F0800F2068E0
:1089F00005BF012343514019002038BD2DE9F04F38
:108A00004E4E077906EBC70385B01B7905460C4629
:108A10004FEAC709002B40F08F8046F83720013914
:108A20006A4604F103084FF0010A4FF0A0404FF0EE
:108A3000030B11F801CFBCF1FF0F79D02CF08003AC
:108A400013600AFA03FE03F5E0731CF0800F14BFF5
:108A5000C0F808E5C0F80CE540F823B0414502F144
:108A60000402E6D12868009BC0F86035019BC0F87D
:108A70006435029BC0F86835039BC0F86C35012350
:108A8000C0F8003561792389A279C0F80C15C0F8C7
:108A90000425C0F808356389C0F810350023C0F8F4
:108AA00000324FF48E71C0F80033FFF779FF286869
:108AB0004FF48871FFF774FF28684FF48A71FFF74D
:108AC0006FFF28684FF48271FFF76AFF56F837305E
:108AD0003BB32A68217942F30733002BA8BF03F187
:108AE0006040C2F307324FEA5313BCBF02F00F04D9
:108AF00013484FEA4111A8BF00F561404FEA8303D4
:108B0000C9B203F16043B4BF015580F8001303F507
:108B1000614302F01F02012101FA02F2C3F8802131
:108B20001A604E4401233371002005B0BDE8F08F78
:108B30004FF0FF33136091E70820F6E7B82E0020CE
:108B400014ED00E0F0B50E461D461C49037904689B
:108B5000D6F800E0B6F804C0B768C4F820E501EB29
:108B6000C301F368C4F824C5C4F82875C4F82C35CB
:108B7000C4F840E5C4F844C5C4F84875C4F84C3599
:108B800002F0010303EB5202C4F81425EA0712D4E1
:108B900015F0020203D0002B14BF08220422002B80
:108BA000C4F8002218BF0C23EAB208BF0823BDE8AE
:108BB000F040FFF7FDBE1022F1E700BFB82E002005
:108BC0002148D0F8103110B55BB14FF48871FFF730
:108BD000E7FE1E4B5A79510703D51B680BB10120E4
:108BE00098471948D0F814315BB14FF48A71FFF7F8
:108BF000D7FE164B5A79120703D51B680BB102201A
:108C000098471148D0F81C315BB14FF48E71FFF7D3
:108C1000C7FE0E4B587910F0100002D11B6803B14B
:108C200098470948D0F8043163B14FF48271FFF7D7
:108C3000B7FE064B01221A711B681BB1BDE810403C
:108C40000320184710BD00BF00C00140B82E00200F
:108C50000220FFF71BB900002DE9F04780460D46C2
:108C6000FFF734F90328044610D8012D10D0022D47
:108C700030D05DB91A48FDF71BFF1A4B04EB4402D4
:108C800013449D78184B1B5DAB4219D0BDE8F087AB
:108C9000144E00EB4003F218F55C5378470053B1D3
:108CA000DFF84C900E484A464FF40041FDF7B8FEFD
:108CB00008B989F8008027443E440B4BB2781A5516
:108CC000002DE3D0094B1B68002BDFD02846BDE800
:108CD000F047184700EB4004024804446578EFE78A
:108CE000E42E0020242F00203D2F0020382F0020CC
:108CF000C02E002000780221FFF7AEBF08B5094B57
:108D00001B7853B10020FFF797F80120FFF794F884
:108D1000BDE808400320FFF78FB8BDE80840FFF723
:108D200097B800BFC12E0020F8B5784C23780546CF
:108D30001BB100232370FFF7E1FF172D00F28380A2
:108D4000DFE805F00C13133E4F60717B8388838846
:108D5000909595959595BFC4CCD4DFDFFFF7CEFFF6
:108D60006B4B00241C702046F8BD0020FFF74AF82A
:108D7000F0B10020FFF760F8022D0CBF4FF4E16462
:108D80004FF47A64624B1D7000254FF400464FF497
:108D9000FA7029464FF47A720023E4FB060104F0CE
:108DA00041FD2A460146BDE8F8405A48FDF738BE65
:108DB000FFF736F8022D0CBFC8244FF4C874E1E762
:108DC0000020FFF71FF840B10020FFF735F84FF4FF
:108DD00048744F4B03221A70D6E7FFF721F8C824D6
:108DE000F7E70020FFF70EF838B10020FFF724F86E
:108DF0004FF47A64464B0422EDE7FFF711F84FF485
:108E0000C874F7E70020FEF7FDFF48B10020FFF728
:108E100013F83F4B05221A7041F69A110022C2E75F
:108E2000FEF7FEFFF5E70020FFF730F8384B06228B
:108E30001A70002240F6CD41B5E70020FEF7F0FFA2
:108E4000334B07221A7000248DE701202070FFF7B2
:108E50001DF8EEE701202070FFF718F800224FF40C
:108E60008041A0E7FFF703F8294B0C22EAE72A48E4
:108E70002A4EFDF71DFED5F1110504461CD0D8B9C8
:108E8000012D13D0C820454321464FF400474FF42D
:108E9000FA704FF47A720023C5FB070104F0C2FC9C
:108EA000224601461C48FDF7BBFD04460220FEF7A2
:108EB000B7FF0123337056E70220FEF7BDFF002302
:108EC000F8E7FFF71BFF124B1222BBE7FFF716FF75
:108ED0000020FEF7A5FF0E4B1322B3E7FFF70EFFAE
:108EE0000120FEF79DFF0A4B1422ABE7FFF706FFB8
:108EF0000020FEF795FF0120FEF792FF044B15229C
:108F0000A0E7FEF7B4FF024B1D709CE7342F002052
:108F10003C2F0020042F0020C42E0020C12E002052
:108F2000044B1B68DB0703D5034B1878FFF7FCBE27
:108F3000704700BF302F00203C2F002010B50029C3
:108F400014BF03240024FEF7D3FF800000F1A040EB
:108F5000D0F8002722F44032C0F80027D0F80037BC
:108F600043EA0443C0F80037002010BD032801D8AD
:108F7000FEF79EBF0020704738B51C4B18601C4B95
:108F800010F00204054619601AD01A4B1A480E2236
:108F90001A700F22DA7010229A7111225A7204216B
:108FA00040F26662FDF756FA044648B9FDF7A8FAA2
:108FB000044628B90146114A1148FDF71FFD044631
:108FC000EB0711D50120FEF799FF6CB921460D4A38
:108FD0000D48FDF713FD044630B9BDE838400B4A93
:108FE0000B480121FDF70ABD204638BD302F002077
:108FF000382F0020242F002090DB0200F58C020087
:10900000B4DB0200218F0200B8DB0200518C0200A9
:10901000B0DB0200032811D8012A0AD101290FD19F
:1090200000F10E02D2B20D4B00EB40001A540020AA
:1090300070470129F7D0022904D049B107207047B1
:109040000022F8E7054B00EB400018444270EEE7C1
:10905000024B00EB400018448270E8E7242F002008
:10906000032802D80121FFF769BF0620704708B521
:10907000012202210020FFF7CDFF08B1072810D1FF
:10908000072202210120FFF7C5FF08B1072808D1F8
:1090900000210A220846FFF7BDFF10B1072808BFCC
:1090A000002008BD0388102B10B502D0112B1ED054
:1090B00010BD1A4C2168B1B901220846FFF7AAFF7A
:1090C00008B1072824D1072202210120FFF7A2FFBF
:1090D00008B107281CD1042202210020FFF79AFFC3
:1090E00008B1072814D1236801332360E0E70B4A55
:1090F0001368013B1360002BDAD1FFF7B8FF00289B
:10910000D6D0074B1B68002BD2D0BDE810401847C3
:10911000034B1B68002BE6D09847E4E7482F00205C
:10912000442F002008B50020FFF79AFF08B1062859
:1091300006D10120FFF794FF10B1062808BF0020D8
:1091400008BD00000D4B10B518600C4629B1012078
:10915000FFF70CFF40B102232370094B1B6853B982
:10916000BDE81040FFF783BFFFF700FF08B10B23F6
:10917000F2E72070F1E7002010BD00BF442F00206F
:10918000482F002033DF704776DF704778DF704765
:109190007ADF70477CDF70478FDF70477047FDF7DD
:1091A000C5B90000014803F096BE00BFA030002002
:1091B0000C4B012801FB03F30B4993FBF1F303F57F
:1091C00061730A499BB205D021F820300130642830
:1091D000FAD17047002201EB82000132642A4380F9
:1091E000F9D17047905F0100F0D8FFFF00310020F7
:1091F0002DE9F04F2DED048B047883B00546002C4B
:1092000040F0CF80DFF87892FFF79EFB6D689249BF
:109210004846234635F813200468B2F5805F28BF1E
:1092200000221444012B40F8044BC8BF0C6803F122
:109230000103C4BF12190A60042B01F10401E9D132
:10924000864ADFF840B213780133DBB20193137022
:10925000BBF8003001339BB2B3F57A7FABF8003036
:109260004FD1DFF824A27E4C7E4F002500265AF80D
:10927000043B4FF47A78B3FBF8F81FFA88F84046BD
:1092800004F0AEFA40F69913984541EC180B00F241
:109290008F80B4F80080B8F1630F2AD802460B46DD
:1092A00065A1D1E9000104F001F932463B4604F022
:1092B00001F932463B4604F0FDF861A3D3E90023EF
:1092C00004F094F941EC180B404604F089FA0B467F
:1092D000024651EC180B03F0C7FF04F06DFA80B2A0
:1092E00064288ABF64232080238021882846FFF7D2
:1092F0005FFF00234AF8043C0234002D56D0ABF83F
:109300000030019B012B4CD1574BDFF880A11D7819
:10931000564B1C78564B019304F108035FFA83F80F
:109320004FF0000B59F8040B04F06EFA032D0646BB
:109330000F4667D8CAE900670135EDB24FF0010B5F
:10934000019A12F8013B01924A4A02EBC303D3E9A6
:109350000023FAE8020104F049F904F02DFA464A24
:1093600080B2631C1055DBB20234000AE4B2D05460
:10937000A0454FF0000349F8043CD3D13B4C84F89E
:109380000080BBF1000F01D0374B1D70334B00251F
:10939000B8F1200F1D7004D13749384803F066FD3D
:1093A000257003B0BDEC048BBDE8F08F01255EE7AE
:1093B00040F6CB4398459CD92088002899D004F0EA
:1093C0000FFA1DA3D3E9002341EC190B51EC180B44
:1093D00004F06CF832463B4604F06CF832463B46EB
:1093E00004F068F816A3D3E9002304F0FFF802465E
:1093F0000B4651EC190B04F059F804F0DDF981B279
:10940000218073E710A3D3E90023DAE9000104F017
:1094100051F80FA3D3E9002341EC180B304639462D
:1094200004F048F802460B4651EC180B03F01CFF01
:10943000CAE9000184E700BF000000000065A64003
:109440000000000000FEAF409A9999999999E93F70
:109450009A9999999999C93F983200207D2F0020B7
:10946000802F0020000024407E2F00204C2F002061
:10947000FC30002020DC02004D2F0020A030002016
:1094800090320020862F0020A0320020A832002039
:10949000072808B519D00A280AD0042807D1104B8C
:1094A00013211888FFF770FE30F0080309D108BDBA
:1094B000FFF738FE08B1FDF739F8FFF763FE002823
:1094C000F5D0BDE80840FDF731B8054B1A884FF6D6
:1094D000FF739A42EBD1034800F000FFE4E700BFBE
:1094E000B42B0020882F0020FDF720B808B530B13C
:1094F00002F0D6FB40B1BDE80840FDF717B80321E4
:10950000024800F088FDF5E708BD00BF882F002065
:109510001FB50388212B3BD005D8102B0CD0112B65
:109520002BD004B010BD3B2B01D0562BF9D1132109
:109530008088FFF729FE19E01C4B81881C481980A0
:1095400001F005FF08B1FCF7F1FF1A4B0FCB6C4699
:1095500084E80F000122214617480223FFF7F2FAA0
:10956000164800224FF4A471FDF75AFA0028D8D00B
:1095700004B0BDE81040FCF7D9BF0C4B4FF6FF72AA
:109580001A800F4B187804B0BDE81040FFF7AEBF4B
:10959000002380888DF8003069468DF80130FFF790
:1095A000FBFD0028BDD0FCF7C1FFBAE7B42B0020BB
:1095B000F0300020E0DB0200B82B002080300020DB
:1095C000842F002018B9024B1878FFF78FBF70471F
:1095D000842F002030B5604B604C186999698FB0BA
:1095E00002AA0190586903C2197F117021780522DF
:1095F00007290FD8DFE801F01004080A0C0E242612
:1096000001218DF80A1007E00221FAE70321F8E7AB
:109610000421F6E78DF80A20514DD3F81D00696842
:109620008DF80C2005AA03C2297A117061780522F1
:10963000072913D8DFE801F014080C0E10122729AF
:109640000621DEE70721DCE701218DF8161007E08F
:109650000221FAE70321F8E70421F6E78DF8162046
:10966000404DD3F8260069688DF8182008AA03C277
:10967000297A1170A278072A23D8DFE802F00B08B4
:109680001C1E202224260621DFE70721DDE7012218
:109690008DF82220344DD3F82F0069682B7A0BAA5D
:1096A00003C21370E378072B50D8DFE803F01310E0
:1096B000494B4D4F51530222EAE70322E8E70422C7
:1096C000E6E70522E4E70622E2E70722E0E70123D6
:1096D0008DF82E3002A90020FFF70CF808B1FCF736
:1096E00025FF05A90120FFF705F808B1FCF71EFFCB
:1096F00008A90220FEF7FEFF08B1FCF717FF0BA92F
:109700000320FEF7F7FF08B1FCF710FF174901A887
:10971000FEF7AEFF08B1FCF709FF15480421FFF77B
:1097200047F808B1FCF702FF12480421FFF740F8A0
:1097300008B1FCF7FBFE104BD3F804330FB030BD7B
:109740000223C5E70323C3E70423C1E70523BFE7DB
:109750000623BDE70723BBE7E0DB0200FC30002067
:10976000FDDB020006DC02000FDC0200F1910200CA
:10977000543000205C3000200070004008B5FFF736
:1097800029FFFFF767F818B1BDE80840FCF7CEBE27
:1097900008BD00004FF0804310B50122C3F87825C2
:1097A0008D4B00221A608D4B0522B2B01A705A7090
:1097B0009A70DA70FDF7F2F808B1FCF7B7FE884A44
:1097C00088480121FDF71AF908B1FCF7AFFE864978
:1097D0000320FFF7D1FB08B1FCF7A8FE07A9002082
:1097E000FFF7B0FC08B1FCF7A1FE9DF81C307F4CE0
:1097F000981E434243412370FEF752F908B1FCF72B
:1098000095FE03F0D7FB08B1FCF790FE002307A9F3
:109810000120079303F0A8FC08B1FCF787FE07A816
:1098200003F0F6FC08B1FCF781FE112370498DF8B6
:1098300008300C2202A8FFF7ADFC08B1FCF776FE59
:1098400040F24130FFF7A2FC08B1FCF76FFE0023A5
:10985000ADF820300823ADF81C301823ADF81E30C9
:1098600007A84FF41673ADF82230FFF791FC08B14A
:10987000FCF75CFE5F49604801F091FC08B1FCF721
:1098800055FE0021AC2207A804F0B0F802238DF8A1
:109890001C3040F20163ADF81E300323ADF82C30CC
:1098A000564B0C9301234FF4FA718DF8983047F220
:1098B0003053CDE929135248524B309307A900F099
:1098C0003AFB08B1FCF732FE4D48012100F030FBB5
:1098D0004D4B4E48019301A901F027FD08B1FCF75B
:1098E00025FE03230021142202A88DF8033004F082
:1098F0007DF801238DF80C300DF1030304934448E7
:10990000112302A98DF814308DF8173003F04EFAA8
:1099100008B1FCF70BFE4022002107A804F066F80E
:1099200007A83C4900F056FF112307A8ADF85830AE
:1099300003F0E2F808B1FCF7F9FD1422002107A8B2
:1099400004F054F84FF470234FF42032CDE908238B
:1099500003238DF828302E4B9B89ADF82A302E4BEF
:109960000C9307A82D4B0D9300F0D6FD08B1FCF722
:10997000DDFD0120FEF7C2FA294A00234FF4617190
:1099800022F823100133642BFAD100234FF46170C5
:1099900002EB83010133642B4880F9D1214B0793FB
:1099A00040F20713ADF8203042F210730022ADF8F8
:1099B00024301D488DF82220012307A9ADF8263058
:1099C000FFF71CF808B1FCF7B1FD2078FFF78EFD1A
:1099D000FEF77CF8FCE700BFC8320020FC30002016
:1099E0007D97020018DC020091940200842F002071
:1099F000BCDB0200A59102006C300020A82B0020E7
:109A0000882F0020C59502009F910200F0300020B1
:109A1000A0300020C9DB02009D910200E994020001
:109A20000031002091169217B82B00206DDF70478F
:109A300079DF70477DDF704764DF70472DE9F04FB5
:109A400085B000250E9CBDF83CB0B4F800A0019193
:109A5000074690461E46A9463A884A450DDC45B160
:109A60002388013BA3EB0A039BB2FF2B3AD806F8ED
:109A70000A30002005B0BDE8F08F7A6852F829005E
:109A8000039000220DF10B0103A8FFF7D5FF00287A
:109A9000F0D19DF80B20424521D12288002D14BF22
:109AA0000020022002EB0801014459451ADC3DB9AF
:109AB000013292B2019B2280B3542288013222806B
:109AC00022880DF10B01324403A8FFF7B5FF0028EF
:109AD000D0D121889DF80B200A442280012509F16C
:109AE0000109B9E70C20C5E72DE9F341089FBDF84E
:109AF00024801546CDE90078022204461E46FFF771
:109B00009DFF50B93346102229462046CDE90878FA
:109B100002B0BDE8F041FFF791BF02B0BDE8F081AF
:109B20002DE9F04F00231788138090F82D3085B071
:109B300006460D4614465BB3082F01D80C204EE1B3
:109B400002A8FFF773FF002840F049812388DDF861
:109B500009100822EA54238801339BB21B22238078
:109B6000EA54238801339BB2EA182380E950BDF8F8
:109B70000D30938023889DF8082006339BB212F0A5
:109B8000FE0218BF01222380EA5423880133238078
:109B9000B378FBB123880433BB42CFD802A8FFF7C8
:109BA00047FF002840F01B8123880322EA542388C2
:109BB00001339BB219222380EA542388BDF8082080
:109BC00001339BB2E9182380EA54120A4A702388B1
:109BD00002332380F2789AB12388D91CB942ADD8D8
:109BE0000221E954238801339BB201212380E954E7
:109BF00023880B449BB22380EA5423880B442380A0
:109C00007268AAB12388D91CB94297D8022192F967
:109C10000020E954238801339BB20A212380E954B0
:109C2000238801339BB22380EA54238801332380A5
:109C30003389002B40F0C780338A5BB1CDE9004700
:109C40002B460722032106F11000FFF74DFF0028E5
:109C500040F0C580338B5BB1CDE900472B46152220
:109C6000142106F11800FFF73FFF002840F0B780ED
:109C7000326A002A40F0B680D6F82480B8F1000F8E
:109C800031D0B8F804302188981C8A1C0244BA42AA
:109C90003FF654AFFE283FF651AF03336B54238891
:109CA00001339BB2FF222380EA54238801339BB205
:109CB0002380B8F80020EA54E918120A4A70208874
:109CC000023080B22080B8F8042062B1D8F80810C1
:109CD000002900F09180284403F05FFE2388B8F843
:109CE00004201344238096F82C30002B43D0B36A11
:109CF000002B00F081804FF000084FF00C0A4FF06D
:109D0000160BB16A5FFA88F20AFB02F201EB020954
:109D1000B9F80430981CFE283FF610AF20880333B2
:109D20002B54238801339BB2238005F803B023888A
:109D300001339BB223808A5AEA54E918120A4A7006
:109D40002088023080B22080B9F804205AB1D9F8B6
:109D50000810002950D0284403F01FFE2388B9F8CA
:109D600004201344238096F82C2008F101085FFAA0
:109D700088F39A42C5D8307888B33388012B3BD01A
:109D8000228802F1020CBC453FF6D8AE012805D16D
:109D90007378023313449F42FFF4D0AE023FBF1AE0
:109DA000BFB202A905EB0C00ADF80870FFF742FE48
:109DB000A8B93378022B58D1BDF80830BB426DD911
:109DC000ADF8087058E0CDE900472B460622022185
:109DD00006F10800FFF788FE00283FF42DAF05B01C
:109DE000BDE8F08FB4F800C00CF10603BB423FF6AB
:109DF000A5AE1188052901D80720F0E76FF4486E59
:109E000001EB0E039BB24FF27D3E7345F4D95388AC
:109E1000052BF1D96FF44860181880B27045EBD962
:109E20004FF6FF70814201D09942E5D8052305F82D
:109E30000C30238801339BB212212380E9542388FC
:109E400001339BB223801188E954E818090A417054
:109E5000238802339BB223805288EA54E918120AFD
:109E60004A7023880233238006E7012BA8D1737838
:109E70009F42A5D3ADF808300821BDF80830FE2B6D
:109E80003FF65CAE22880133AB542288013292B295
:109E90002280A954228813442380A0E70921ECE7FB
:109EA00070B5C0B14AB116880024B44203D3051975
:109EB0006D789D4208D0A14201D800200BE0055DDD
:109EC00001352C44A4B2F0E7A142F6D9A31C1380BB
:109ED000005D013880B270BD13B513460022ADF8A5
:109EE00006200DF106020446FFF7DAFF10B1BDF8B7
:109EF0000630E01802B010BD72DF704773DF7047A4
:109F000074DF704738B5012204460D46B0F898104A
:109F1000D0F89400FFF7E0FF00B1057004F13C02B7
:109F200004F1940104F15400BDE83840FFF7E4BFA8
:109F300080F830107047F8B504460F46002966D007
:109F4000002864D091F87A301BB191F89830002B3A
:109F50005FD1D7F8A030042B5BD0D7F89C30042B0E
:109F600057D04FF0000C84F802C007F178060FCEEE
:109F7000251D0FC50FCE0FC596E8070085E8070021
:109F800084F830C0D7F8A4306363D7F8A830A3634F
:109F900004F194024FF6FF73C4F8AAC0A4F8A830E5
:109FA000C4F8A420C4F8ADC022780AB984F85430AB
:109FB000224604F155011F25C4F89410384622F8B2
:109FC000985FFFF7ADFD08BB224604F17401C4F8A9
:109FD0009C1007F13C0022F8A05FFFF7A1FDA8B993
:109FE000A369A4F848304FF480730125A4F85030D9
:109FF00063692064014684F83C50636404F13C02C8
:10A0000004F15400FFF778FF00B92570F8BD0E2069
:10A01000FCE70720FAE72DE9F041077804460D46F2
:10A02000002F00F0108181700020FDF727FC06460C
:10A0300020B1012363700020BDE8F081E388C4F8FB
:10A04000AA0004F1AA08C4F8AD0013B1A378012B4B
:10A0500004D0E3794BB1A378022B06D1636BA3B193
:10A06000012284F8B1200820984704F1AB0204F1E2
:10A07000B10112F8013B5BB99142FAD16A1E032A81
:10A080004FD8DFE802F0070D111484F8B130ECE787
:10A090003B46F3E7A2791AB194F8242002B95BB9E0
:10A0A000E2790AB1002B3ED1237A002B3DD1637AAD
:10A0B000002B0CBF00250425636BA570002B36D048
:10A0C000033D012D33D862798AB394F8B22072BB74
:10A0D00084F8B420012284F8B3200720984704F1C3
:10A0E0003C0518220021284603F080FCE26A012387
:10A0F000511E994284F83C3098BFD3B284F8513055
:10A1000094F8243098BF3E461BB1A6B1A26A84F8E9
:10A110005220A278042A1ED8DFE802F07E0F283CE5
:10A1200060000025C8E70225C6E70325C4E7002331
:10A1300084F8B330D3E70122E9E7012384F8313012
:10A140000023C4E91083C4F8A430022384F83C300F
:10A150008023A4F84830A378002B61D1636B002BD7
:10A160003FF469AF94F83100984764E7002B14BFBF
:10A170000723032384F83C302369A4F848300023E4
:10A180000222C4F8A430E36884F83120C4F8408087
:10A190006364E0E762696264A269A4F8482013B1CD
:10A1A000062384F83C306379B3B194F8B2309BB99C
:10A1B00094F8B43083B1022384F85030042120464F
:10A1C000FFF7A0FE0028C6D1052384F8313004F142
:10A1D0009403C4F8A430BEE70323F6E7E26962649F
:10A1E000226AA4F8482013B1062384F83C3063792E
:10A1F00083B194F8B2306BB994F8B43053B1022300
:10A2000084F8503004212046FFF77CFE0028A2D1BC
:10A210000623DAE70423D8E7002384F831309AE7ED
:10A22000D4F8A4102A4604F15400FFF765FE002874
:10A230007FF402AF94F8301094F85400FFF75EFEFC
:10A2400000288BD0F8E60820F6E60388112B10B51D
:10A250000C460AD0262B1FD0102B05D1C37B012B17
:10A2600002D18388A1F8A83010BD0022838881F82C
:10A27000B220B1F8A8209A42F6D10B79002BF3D185
:10A2800001212046FFF7C7FE0028EDD0A36B002B6D
:10A29000EAD0BDE810401847037A013B012BE3D810
:10A2A000897805230131B1FBF3F303EB8303C91A6A
:10A2B000C9B2E6E70238012810B50C460DD84B7834
:10A2C0005BB100234B7020468978FFF7A4FE20B1D4
:10A2D000A36B13B1BDE81040184710BD38B5044654
:10A2E00090F85400FFF70CFE012384F8B2300023ED
:10A2F00084F8B43084F8503006212046FFF702FE7F
:10A30000054638B9A1782046FFF785FE10B1A36B4A
:10A3100003B19847284638BD75DF704776DF704730
:10A320007ADF70477BDF7047034B1A8882420CBF8D
:10A3300018460020704700BFE8320020024B9B699E
:10A3400003B11847704700BFCC32002073B585B207
:10A350002846FFF7E9FF044638B3174E027A337BED
:10A360009A420CD200F10A012846FFF7D5FFF0B15E
:10A3700011281AD002B0BDE87040FFF7DFBF0023FC
:10A380000372337C43B13B212846FFF7C7FF30F00F
:10A39000080301D0FFF7D2FF736933B100228DF8B3
:10A3A0000420ADF8065001A8984702B070BD237A8A
:10A3B00001332372F9E700BFCC32002037B50B46DA
:10A3C000497A0F4A79B9D2E901141D7A0246002D63
:10A3D00018BF21465868FCF723FB78B103B0BDE8ED
:10A3E0003040FFF7ABBF00211972536933B101222E
:10A3F000ADF806008DF8042001A8984703B030BDE1
:10A40000CC3200204B8802889A4212D842889A4265
:10A410000FD380888B8840F2F311884294BF021AD0
:10A42000421A9A4205D80844984234BF00200120BD
:10A4300070470020704700000388122B70B501465A
:10A4400059D004D8102B1ED0112B44D070BD502BE6
:10A45000FCD12F4BC288DB899A42F7D1038A022BA9
:10A46000F4D186883046FFF75FFF05460028EDD01F
:10A4700001F1120000F0AAF938BB6868FCF718FB7C
:10A480000028E3D009E0C37B012BDFD14FF6FF703A
:10A49000FFF74AFF054620B90420BDE87040FFF7EA
:10A4A0004DBF1C4A8E880680002303721368C0F8D3
:10A4B0000A305368C0F80E3010310A30FFF7A2FF9F
:10A4C000134B6872DB89002BC0D129463046BDE8AA
:10A4D0007040FFF773BF8088FFF726FF044600280F
:10A4E000B4D04068FCF7E4FA08B1FFF727FF4FF655
:10A4F000FF732380AAE786883046FFF715FF0546DD
:10A500000028A3D008310A30FFF77CFF6872DCE72F
:10A51000CC320020FC320020F8B5064648B3054690
:10A520000FCD154F3C460FC495E8070084E807009F
:10A530003068124C3C60B0B1FFF7F2FEC0B932682F
:10A5400013682360536863600D480E4A4FF6FF732B
:10A5500003800D4B40F8043F0021FCF74FFA002820
:10A5600018BF032004E02046FFF7DCFE0028EBD0F4
:10A57000F8BD0E20FCE700BFCC320020FC320020EA
:10A58000E83200204DA3020004330020F7B517463F
:10A5900001900E4691B1019C6CB100252C462946D4
:10A5A00001A8FDF7D2F818B13946A8B2B047013476
:10A5B0000135142DF3D1204603B0F0BD0C46FAE767
:10A5C00073B50191019C06466CB100252C462946C5
:10A5D00001A8FDF7BAF818B106EB440301349D80D9
:10A5E0000135142DF3D13046346002B070BD000047
:10A5F0002DE9F04703888488112B8CB005463DD0A7
:10A600001A2B42D0102B19D1DFF8C080D8F80830AF
:10A61000DB430093D8F804106846FDF7ABF80099C7
:10A6200001A8FFF7CDFF0DF108090027019B9F420C
:10A6300007D3132C12D90420FBF778FF0CB0BDE828
:10A64000F08739F802AB00260136514608EB860048
:10A65000FDF771F81D2EF7D10137E7E716482146BF
:10A66000FDF760F815482146FDF75CF8EB7B012B00
:10A67000E4D013482146FDF755F8DFE70E482146A0
:10A680000CB0BDE8F047FDF756B8037A0D481F2B14
:10A690004FEA131521460AD9FDF744F8022D0A485E
:10A6A0002146EDD00CB0BDE8F047FDF73BB8FDF713
:10A6B00042F805482146E3E72C33002028330020E8
:10A6C000303300203433002038330020243300207E
:10A6D0001328014602D80248FDF737B8002070471A
:10A6E0002833002007B50190FFF7F2FF019930B140
:10A6F0000448FDF72AF8002814BF0220012003B007
:10A700005DF804FB3033002007B50190FFF7E0FF50
:10A71000019928B1044803B05DF804EBFDF715B8C2
:10A7200003B05DF804FB00BF3433002070B50A4E5F
:10A73000054630460C46FDF708F858B12846FFF7A5
:10A74000C7FF38B10634294606EB8400BDE87040E7
:10A75000FCF7FBBF002070BD24330020F8B50D4C82
:10A76000054620460E461746FCF7EFFF80B1284607
:10A77000FFF7AEFF60B1B01D04EB800029461FB1AA
:10A78000BDE8F840FCF7CEBFBDE8F840FCF7D3BF0A
:10A79000F8BD00BF2433002073B50B4D0192044671
:10A7A0000E4601462846FCF7D0FF50B1043405EBB5
:10A7B0008404019AA068314602B0BDE87040FFF7FA
:10A7C000E5BE02B070BD00BF24330020008800F059
:10A7D0000100704738B5044608460D4603F039F9C4
:10A7E0006560208038BD10B50446408800F07AFBD3
:10A7F000A0802046BDE8104001F044BA30B587B0D3
:10A8000005460C461422002101A803F0EFF80723A7
:10A8100001A88DF80430ADF806500394FFF7E3FF6C
:10A8200007B030BD30B587B005461422002101A81D
:10A8300003F0DCF84FF6FF739D42ADF8065023D0CD
:10A84000284600F0FAF91128044617D007D860B15D
:10A850000B2811D021462846FFF7D0FF03E043F232
:10A8600002039842F6D1002209E00E2301A88DF8D8
:10A870000430FFF7B8FFF6E70F23F7E70122034B99
:10A8800028461978FFF76AFF07B030BD9D330020D6
:10A89000FFF7C8BF024B034918780022FFF77CBFBF
:10A8A0009F330020BDA80200024B03491878002204
:10A8B000FFF772BF9E3300205DA9020070B5254EE0
:10A8C00086B031780446FFF731FF054600283ED1B7
:10A8D000204600F005FA1128014623D008D80628A2
:10A8E00022D0082820D078B12046FFF787FF19E052
:10A8F00043F20203984215D043F201439842F3D148
:10A900002046FFF78FFF0DE02946142201A803F02F
:10A910006DF8102301A88DF80430ADF80640FFF75C
:10A9200062FF0125012205E0204600F0DBFA00F07D
:10A93000F1F90022084B20461978FFF70FFF317814
:10A940002A46204606B0BDE87040FFF707BF06B0B4
:10A9500070BD00BFA03300209F33002070B50021E0
:10A9600086B006461D4801F05CFB0546A0B33046A4
:10A9700000F01EF9862801460ED006D8D0B1112865
:10A9800028D03046FFF73AFF03E043F20203984233
:10A99000F7D1002425460FE01422002101A803F07E
:10A9A00025F8062301A88DF80430ADF80660FFF7FE
:10A9B0001AFFEEE72C460546094B2A461978304621
:10A9C000FFF7CCFE44B90548214606B0BDE870400B
:10A9D00001F034BB0024EFE706B070BD9C330020CB
:10A9E0009E33002010B50378044673B94088FFF702
:10A9F00019FF608800F061F938B1044B608819785C
:10AA0000BDE810400122FFF7A9BE10BD9F33002012
:10AA100037B50378082B04462CD1417A51BB057A0F
:10AA2000072D1BD0082D2AD0012D23D180886A46FE
:10AA3000294600F075FFE8B9019B1B78D3B1A088C7
:10AA400000F076FA4FF6FF73984213D00E4B2A4669
:10AA50001978FFF783FEFFF71DFF0BE0808800F0F9
:10AA600067FA4FF6FF73984204D0084B0122197819
:10AA7000FFF774FE03B0BDE83040FFF715BF044890
:10AA800001F0DCFAF6E700BF9F3300209E33002080
:10AA90009C33002010B503888488522B86B016D0D2
:10AAA000542B22D0502B15D1037B012B12D1827A4B
:10AAB000012A0FD1018942F6021399420AD11B4B98
:10AAC00020461978FFF74AFEFFF7EEFE02E0204627
:10AAD000FFF7A8FE164B174918780022FFF75CFE17
:10AAE00006B0BDE81040FFF7D5BE1422002101A832
:10AAF00002F07CFF112320468DF80430ADF80640AB
:10AB000000F0F0F9ADF8080000F004F90A4B204617
:10AB100019780022FFF722FE084B20461978002200
:10AB2000FFF71CFE01A8FFF75EFED3E79E3300206F
:10AB30009D33002091A80200A03300209F33002005
:10AB4000AFDF7047B1DF7047B2DF7047B3DF7047E8
:10AB500073B50F4B0F4D93E803006C4684E8030078
:10AB600000222888214600F0CAFF4FF6FF762B8886
:10AB7000B34201D0112801D102B070BD184600F0D7
:10AB8000B0FF00222146288000F0B9FFEFE700BFA8
:10AB900060DC0200A2330020044B1A884FF6FF73DA
:10ABA0009A4201D0FFF7D4BF704700BFA233002004
:10ABB0002DE9F743804600F095F94FF6FF73984270
:10ABC000064637D001274FF003093A466B46082165
:10ABD000304600F0A9FE0137BFB2054628BB0199F7
:10ABE0000A46032342F8049B06314046FFF7ACFFB8
:10ABF000044648B932460821304600F05FFF04465B
:10AC0000204603B0BDE8F0830C280CD0052800D105
:10AC10002C460821304600F0EDFE002818BF032422
:10AC2000002DD2D1ECE70125F3E7072814BF044635
:10AC30000C24E5E743F20204E2E72DE9F34107467D
:10AC400000F050F94FF6FF73984218D10024032505
:10AC500026464FF001082B46224631463846FFF77C
:10AC600071FF042821D0082825D00B281ED115F00B
:10AC700002030FD196B9ACB902B0BDE8F0816A46C3
:10AC8000082100F04DFE0028E0D1019B9C881D6842
:10AC90009E1DDEE701254FF00008DCE703251C467A
:10ACA0001E46F8E703253446F5E71120B8F1000FFA
:10ACB00008BF0B20E0E70020F8E71FB50DF1070300
:10ACC000039300F00FF902AA012100F029FE20B938
:10ACD000039B187805B05DF804FB0020FAE700003C
:10ACE00070B505460A48FFF731FF70B9084C43F2CA
:10ACF000030621884FF6FF722846FFF721FFB04276
:10AD000004D1238801332380F3E7032070BD00BF03
:10AD1000A433002013B5074A044692E803006B46AB
:10AD200083E8030000221946204600F0E8FE02B046
:10AD300010BD00BF68DC020046DF704770B5084DEB
:10AD4000084E002431786888FFF7F0FC08B9E0B2BB
:10AD500070BD0134142C05F10C05F3D1FF20F7E789
:10AD6000A8330020A633002010B50A4B19780446FA
:10AD7000FFF7DCFC58B1084A00235188A14201D1F9
:10AD8000D8B210BD0133142B02F10C02F5D1FF2013
:10AD9000F7E700BFA6330020A833002010B50C460B
:10ADA000FFF7E2FFFF281FBF0C235843014B1C5243
:10ADB00010BD00BFA833002038B505460C4609B9C0
:10ADC000FF2038BD4FF6FF739842F9D00E4B012299
:10ADD0001978FFF7C3FC2846FFF7C6FFFF2803D109
:10ADE000FFF7ACFFFF28EBD008490C2242438B1839
:10ADF0005D804FF6FF758D5222685A60A2881A81D5
:10AE0000A2799A72DDE700BFA6330020A8330020A4
:10AE1000421E00F10F0312F8010F10B99A42FAD145
:10AE200070470120704708B570B171B103780A7896
:10AE3000534013F0FE0F08D106220131013002F019
:10AE400058FDB0FA80F0400908BD0020FCE72DE96C
:10AE5000F04700F101084F1C06460D4600F11109AC
:10AE600001F1110A10223946404602F042FD044623
:10AE7000D0B94046FFF7CCFF18B13846FFF7C8FFFE
:10AE8000044651464846FFF7CEFF737C03F0FC03AF
:10AE9000042B05D06B7C03F0FC03042B18BF044685
:10AEA00004F00100BDE8F0870024EAE77FB505461D
:10AEB0000E4600F041FB02AA0DF10601072000F04A
:10AEC00043FB10B94FF6FF7409E0BDF80640B442E9
:10AED000F1D003992846FFF7BAFF0028EBD02046AF
:10AEE00004B070BD08B5FFF73FFFFF281DBF0C235E
:10AEF0005843034B4FF6FF7018BF185A08BD00BFE8
:10AF0000A833002010B50C46FFF72EFFFF280BD00A
:10AF1000064B0C2202FB0030436823600389A380A8
:10AF2000837AA371002010BD0520FCE7A833002020
:10AF3000084A30B500230C2404FB03F18D5A8542E6
:10AF400002D10A44508830BD0133142BF4D14FF69E
:10AF5000FF70F8E7A8330020038843B9821C0A3049
:10AF600012F8013B1BB98242FAD118467047012002
:10AF7000704710B50446FFF7EFFF58B122880B88E1
:10AF80009A4208D108220231A01C02F0B2FCB0FAA9
:10AF900080F0400910BD0020FCE730B585B00446C4
:10AFA00000F0CAFA02AA0DF10601072000F0CCFA5F
:10AFB00010B94FF6FF700FE0039D204605F14601E2
:10AFC000FFF7D7FF30B905F12A012046FFF7D1FF7F
:10AFD0000028E7D0BDF8060005B030BDFFF7DEBEA3
:10AFE00038B50446FFF7A4FF0546204600F016FDDD
:10AFF0004FF6FF718D42044603D010B92846FFF783
:10B00000CDFE204638BD70B58CB014466A460D465C
:10B0100000F11003164613F8011D02F8011B9842B7
:10B02000F9D10D22002104A802F0E0FC2B788DF864
:10B030001F306B788DF81E303046AB788DF81D30A0
:10B04000FFF77AFE9DF82F3023709DF82E30637045
:10B050009DF82D30A3700CB070BD1FB50346084697
:10B060001A7802F0FE02042A1BD1DA78B3F8011034
:10B070008DF806209A88ADF804109B79ADF80C2065
:10B0800003A902AA8DF80E30FFF7BDFF032202A923
:10B0900001A802F02EFCB0FA80F0400905B05DF87E
:10B0A00004FB0020FAE730B50388102B93B04AD197
:10B0B000041D0FCC07AD0FC50FCC0FC594E80700DA
:10B0C0009DF8203003F0FE03062B85E8070009D029
:10B0D00000F032FA9DF82030032B4FEA530204D9D6
:10B0E000022A39D04FF6FF7410E002AA0DF10601D2
:10B0F000072000F029FA0028F4D0039908A811319C
:10B10000FFF791FE0028F0D0BDF80640BDF81C0006
:10B1100008A9FFF751FE4FF6FF739C4213D0BDF80C
:10B120001C002146FFF73AFEBDF81C30ADF80A308E
:10B1300002A80023ADF80C408DF8083000F0A4FD03
:10B1400002A8FFF74FFC13B030BD039908A80131E6
:10B15000FFF783FF0028D7D102AA0DF106010720CF
:10B1600000F0F2F90028F0D1BCE790DF7047A5DFCE
:10B170007047B5DF70471FB50023ADF80810ADF874
:10B180000A106A4602A9ADF80C30ADF80E300093F3
:10B19000ADF80430FFF7E9FF05B05DF804FB80B1BE
:10B1A0004FF0F7130360FB230371F723C3801723CA
:10B1B000038141F6FB3200230161438182811846FD
:10B1C00070470E20704713B5034680880C46A0B91F
:10B1D0001A88242A7DD012D8112A56D0232A00F0AA
:10B1E0008880102A2ED0A37A3BB1E1880020FFF797
:10B1F000BEFF10B94FF48073638102B010BD3A2ACC
:10B200004CD0552AEFD1DB88C988A072172B38BFE4
:10B2100017238B4228BF0B462381FFF7AAFFE27A50
:10B22000002AE0D12369002BDDD040F67721ADF86C
:10B2300002202289ADF80010ADF8042069462046AE
:10B240009847D0E7DB7B0A790A73012B13D0022BD6
:10B2500014D0E18823898B4205D20020FFF787FFB5
:10B2600070B90123E372217B637B8B42BBD2002048
:10B27000FFF781FFB7E70B88E380EAE74B88FBE73E
:10B28000112804BF0123A372EDE7F723CB80172316
:10B290000B8141F6FB3348818B81A4E75B89CA8827
:10B2A000934228BF1346172B0A6938BF17230B8117
:10B2B00062B1C97A51B140F67721ADF80010ADF80E
:10B2C0000200ADF8043069462046904700236381B0
:10B2D00089E71A7A0B694A73002B84D04DF67A21DC
:10B2E0008DF80500ADF80010ADF802008DF80420CF
:10B2F000A4E7197A237B994228BF1946B8E7B0DF43
:10B30000704766DF704710B5002104464088FFF79C
:10B31000F8FF034608B9237210BD112801D101239B
:10B32000F9E76368BDE81040184760B159B1037888
:10B33000DE2B0AD00B684360DE2303704FF6FF73E9
:10B340004380002070470E2070470820704728B1C6
:10B350000378DE2B04D14180002070470E20704717
:10B3600008207047F0B5054685B00C46002942D04C
:10B37000002840D00B78DE2B3DD182884B889A4242
:10B3800004D10B7A13B10846FFF7BDFF2B88112BB0
:10B3900033D0512B0FD0012B2DD12B7A012B2AD159
:10B3A000A9886288914226D12046237205B0BDE863
:10B3B000F040FFF7A8BFAE886388B3421BD1AF79D6
:10B3C000022F18D1AD7B2B1F022B14D80021102285
:10B3D000684602F00BFB052D18BF4FF4C073694699
:10B3E000304618BFADF804308DF80070FFF787FFC6
:10B3F00008B16368984705B0F0BD6388AA889A428F
:10B4000004BF4FF6FF736380F5E7012804D00438CA
:10B4100004288CBF0020012070474FF6FF73438043
:10B4200000F004BAF0B51E4E00238BB04FF6FF704B
:10B43000CDE90033337000F0F5FB4FF6FF7704469B
:10B44000BC4211D0A4F58045ADB26A4602A9284697
:10B45000FCF7DEF80A2809D02846FCF799F80828F6
:10B4600005460BD1012333700BB0F0BD204600F030
:10B470007DFB204600F0D6FB0446E1E7002DF3D02B
:10B48000142200210DEB020002F0B0FA072305A8F8
:10B490008DF81430ADF818400795FFF7BEFFE3E7CD
:10B4A000A034002007B50023A1F58041A0F580401D
:10B4B000CDE9003389B26B4680B2FCF78FF80028E3
:10B4C00018BF052003B05DF804FBF0B5FF2887B076
:10B4D00004460F4615461E4629D80846FFF795FF35
:10B4E00028B303AA2046FFF7DDFF18B10524204644
:10B4F00007B0F0BD01A903A8FBF7B2FF044600287E
:10B50000F4D1019BAF705B882B802EB9029B6B60DE
:10B5100003A8FBF7C9FFEAE73168B1EB830F4FEAF5
:10B52000830206D30299686802F037FAF0E707242D
:10B53000DDE70424DBE70000024B0022C3E9002220
:10B54000704700BF98340020F0B587B00646FFF77B
:10B550005CFF0F4615460446F8B1A6F58040104A38
:10B5600003A980B2FCF747F818B10024204607B0C1
:10B57000F0BD01A903A8FBF773FF0028F5D1019BDB
:10B58000AE705A889B882A8003F58043029A6A60CD
:10B5900003A83B80FBF788FFE8E70124E6E700BF4C
:10B5A0009834002008B5034680780A46FFF72DFF3F
:10B5B00040B119881046FBF799FF092804D8034BBE
:10B5C000185C08BD0720FCE70320FAE778DC0200DE
:10B5D00007B5019001A8FBF7A3FF002818BF0320BF
:10B5E00003B05DF804FB70B588B0FF2804460D4633
:10B5F00001921E4643D889780846FFF706FF0028C7
:10B600003DD0A4F58043ADF80830A1F58043ADF8F6
:10B610000A306B68039305AA2B8804932046FFF732
:10B6200041FF0528019B13D163B902A905A8FBF7C7
:10B630009DFF0728044624D013D8C8B10324204610
:10B6400008B070BD01AA02A905A8FBF793FFF0E7B7
:10B6500013B101A8FBF764FF02A905A8FBF790FF4F
:10B66000E7E708280FD00E2814BF03241124E6E7CB
:10B67000002EE4D0314605A8FBF7D7FFDFE707240B
:10B68000DDE78624DBE71124D9E74FF6FF7000F0F1
:10B6900055BAFF2808B505D800F056FAFFF7C2FEE4
:10B6A000002008BD0720FCE700F076BA00F0A0BA41
:10B6B00000F0B8BA30B50A68064B012A01D900205B
:10B6C00005E01401E55A854202D10A60181930BD1F
:10B6D0000132F2E7B434002037B500230D460446AA
:10B6E000019301A9FFF7E6FF38B18378AB4206D199
:10B6F000837B9B0703D183680BB903B030BD019BEB
:10B700000133019301A92046ECE710B5044600F08F
:10B7100071FB204601F04CF92046FFF73DFA204628
:10B72000BDE81040FFF774B98378013B072B07D8B9
:10B73000DFE803F007060606060704091423038062
:10B7400070470123FBE743689B8809339B08F6E7B2
:10B7500070B50E4E04460025237BAB420ED84FF643
:10B76000FF732380A3700023C4E901334FF47F43A8
:10B77000A381A37B23F00303A37370BD617B2944E2
:10B78000C9B2304600F0EBFB0135E5E7A4340020F8
:10B7900073B504468378417B22480025CDE90055E6
:10B7A0008DF8023000F0C4FBF8B1237BA278019041
:10B7B00003EB83039B0068468DF80220ADF8003050
:10B7C000FFF7B2FF2346014633F8086B6268304644
:10B7D000FFF709FF11280FD005D840B1072818BF7F
:10B7E000032002B070BD862811D00320F9E7A37BA7
:10B7F00023F00303A373F4E7A37B23F0030343F0D5
:10B800000203A373084B01221A702846E9E7A37BC1
:10B8100023F0030343F00103A373034B01221A70C7
:10B82000DFE700BFA4340020A13400202DE9F0415F
:10B83000374FC368BA68934286B0054618D0BA69D4
:10B84000934217D1012407EB04142B78314E092BB6
:10B8500012D0132B34D0082B08D195F80980B8F1F9
:10B86000000F03D16CB32046FFF772FF002428E0DD
:10B870000024E8E70024E8E7687A0028F6D104B35A
:10B88000A37BA06043F00203A3730123337004463B
:10B89000BB7B980703D413F0010305D0D4B11C4837
:10B8A000FFF776FFC0B90123BA7F910702D4D20710
:10B8B00029D544B31848FFF76BFF40B101230CE0D2
:10B8C00001242846FFF721FF3378002BE0D106B092
:10B8D000BDE8F0812346E7E700231B018628FB5AD9
:10B8E000ADF808304FF6FF720EBF06230723039012
:10B8F00001A8ADF806200CBF8DF804308DF8043097
:10B90000FFF703FFE3E7002BE1D13370DFE700BF70
:10B91000B4340020A1340020C4340020FFF7B5BEA9
:10B920000023FFF7D2BD00002DE9F84381460F4602
:10B9300014469846002B57D0CB1F012B02D9072065
:10B94000BDE8F883531E012BF9D8FFF7ADFE06467C
:10B950000028F4D039464846FFF7BEFE054618BB1E
:10B96000FF214FF6FF70FFF7B7FE0546D0B1A0F8F4
:10B97000009087706B7BFF2B1BD11D48214600F088
:10B9800005FBFF28687315D14FF6FF732B8000234A
:10B99000C5E901334FF47F43AB81AB7BA87023F043
:10B9A0000303AB731120CBE7037BA342E2D00F204C
:10B9B000C6E70026697B0E482C7300F0B9FAA8B1DF
:10B9C00004EB840424010334C4F38D0488F802706A
:10B9D000C8F80400A8F8004026B1082F02D1A4003E
:10B9E000063C84800020ABE70E20A9E70320A7E7F0
:10B9F000A434002038B5FFF76FFE044660B14068FC
:10BA000010B1FFF7E5FD28B900252046FFF7A0FE9D
:10BA1000284638BD0325F8E70525F9E737B50024A2
:10BA20000546019401A9FFF745FE58B93CB92846DF
:10BA3000FFF72FFE044610B1072818BF0324204645
:10BA400003B030BD81782846FFF7D4FF10B1052838
:10BA500018BF0324019B0133019301A92846E2E7A3
:10BA6000CB1F012B73B50D4620D8FFF735FE0446DA
:10BA7000F0B14668F6B9417B0F4800F059FACDE9BC
:10BA800000668DF8025070B1237B019003EB8303B5
:10BA90009B006846211DADF80030FFF745FEFFF71B
:10BAA00081FD092800D1032002B070BD0720FBE70B
:10BAB0000520F9E70020F7E7A434002038B5CB1FB4
:10BAC000012B0C46154608D8FFF706FE38B18470E6
