:020000022000DC
:1060000000000120396202009162020093620200E6
:10601000956202009762020099620200000000008F
:106020000000000000000000000000009B62020071
:106030009D620200000000009F620200A162020057
:1060400095910200A7620200CD950200AB620200AA
:10605000AD620200AF62020055940200F1950200A9
:10606000B5620200B7620200B9620200BB620200C0
:10607000BD620200BF620200C1620200C362020090
:10608000C5620200D56F0200C9620200CB62020045
:1060900071700200CF62020081E60200D36202004A
:1060A000D5620200D7620200D9620200DB62020000
:1060B000959C0200DF620200A3620200A36202005C
:1060C000E1620200E3620200E5620200E7620200B0
:0C60D000E9620200EB620200ED620200D7
:1060DC00354936480A1A02D0072291438D46344975
:1060EC0034480A1A06D00722914381F30988022208
:1060FC0082F3148830483149314A00F044F8314871
:10610C003149324A00F03FF831483249324A00F006
:10611C003AF832483249334A00F035F832483349BC
:10612C00334A00F030F833483349344A00F02BF846
:10613C0033483449344A00F026F8344834490022B4
:10614C0000F02CF833483449002200F027F833488B
:10615C003349091A082902DB002202604160314AE6
:10616C0090471F481F49884205D00268043003B489
:10617C00904703BCF7E700208646EC460020002140
:10618C00294A9047FEE7884207D0521A05D0037877
:10619C0001300B700131013AF9D17047884202D0BD
:1061AC0002700130FAE770470000012000E0002087
:1061BC00000001200000012044050300F02B00200A
:1061CC00602C0020F0620200F06202000EF302006C
:1061DC0044050300F02B0020F02B0020B0F402004B
:1061EC00B0F40200B0F40200B0F40200B0F402000B
:1061FC00B0F40200B0F40200B0F402004205030057
:10620C00B4050300602C0020602C0020602C0020C2
:10621C00AA4D0020AC4D0020AC4D0020AC4D002010
:10622C00AC6D00205D620200CDAA02000F484FF059
:10623C000701884385460E4880470E48016841F4A3
:10624C0070010160BFF34F8FBFF36F8FFFF740BF3B
:10625C0009480A490A4A884207D0521A05D00378DD
:10626C0001300B700131013AF9D170470000012067
:10627C007D8C020088ED00E050F40200902B002091
:10628C00F02B0020FEE7FEE7FEE7FEE7FEE7FEE769
:10629C00FEE7FEE7FEE7FEE7FEE7FEE7FEE7FEE7CA
:1062AC00FEE7FEE7FEE7FEE7FEE7FEE7FEE7FEE7BA
:1062BC00FEE7FEE7FEE7FEE7FEE7FEE7FEE7FEE7AA
:1062CC00FEE7FEE7FEE7FEE7FEE7FEE7FEE7FEE79A
:1062DC00FEE7FEE7FEE7FEE7FEE7FEE7FEE7FEE78A
:0462EC00FEE700BF0A
:1062F0007047000007B5044B0093044A402300F0A8
:1063000032F803B05DF804FB11630200612C002039
:106310002DE9F84388461446B2B10F4B0F4E0325C2
:10632000002743F00109224608EB0701002004F092
:10633000A7FD0744241A48B933782BB14FF47A40AB
:10634000C847013D02D13570BDE8F88301233370A1
:10635000002CE8D1F8E700BFB0F40200602C002068
:10636000704704F0BDBDF0B595B01D461646084611
:106370000C4602F070FB1A9B0D93CDE908650025D1
:106380002B46082205A920460A958DF82C500C951D
:1063900002F09CFB079B0293069B03939DF814302D
:1063A0008DF8115003F00302012A1DD1BDF814200D
:1063B000059DC3F3C203C2F383168DF81030B200FB
:1063C00008230EA9204602F081FBC5F3952508ABF2
:1063D0000093324602AB0EA9284600F075FB20461A
:1063E00002F03DFB15B0F0BD022AF8D1BDF8165001
:1063F000C3F3C203C5F389158DF810300827082DA3
:106400002E4628BF08263B4632460EA9204602F0FB
:106410005DFBAD1B08AB02AA31460EA8374400F065
:10642000B7FB002DEBD1DAE710B5054CFFF799FF6C
:106430000421204600F0B6FA0123637210BD00BFAC
:10644000F02B0020037813F0030F03F0040202D0B6
:1064500012B910467047B2B103F00303012B03D009
:10646000022B09D0012070470A6800880232C0F36D
:10647000831002440A60F5E70B684288023303EB9D
:1064800092130B60EEE70B684288013303EB921323
:106490000288F4E72DE9F04FDFF830A187B00F460E
:1064A00000230446861C0DF1070015468DF80730C1
:1064B00000F0D4FFDAF800103960DAE90132134451
:1064C00001335B1A0AF21C470AF583690AF2144881
:1064D000B3421CD30020002D73D004F00F039B01A6
:1064E00043F0050363F30F00DAF80020DAF8083010
:1064F0001340033332444AF823009DF80700CAF8DA
:10650000002000F0CFFF012007B0BDE8F08F01218F
:10651000384601F024FE484601F039FE404601F0BD
:1065200036FEDAF80400DAF808B0029000EA0B0050
:1065300003300AEB800002A9FFF784FF029B50BBE7
:106540000BEA03020AEB820203F1020CD268039207
:10655000013303EA0B0B0AEB8B0B02F00302012A57
:10656000DBF80C10CDF808C023D0022A16D08346E1
:10657000404601F00FFE10B1029BCAF804305946A4
:10658000384601F0ECFDDAE901231344DAF8002083
:1065900001339B1A9CE70BEA0300C9E7BDF80E30F4
:1065A000C3F3891303334FEA114B0CEB93030293AC
:1065B000DEE7BDF80C30C3F383134FEA114B63449D
:1065C000F5E7A40544F006008EE700BF742D002017
:1065D00008B50F4B0F48FF229A600022C3F8182419
:1065E000C3E90022C3F81424012283F8202402F016
:1065F000EBF938B9084A094B09499B1ADB080246EE
:106600009A4200D108BD21F822200132F8E700BFEC
:10661000742D002010F4020078F3020010F4020040
:10662000902B002030B50A4C71B10A4A0A49121B5E
:10663000D20800239A4201D1002030BD31F8235006
:10664000854202D00133F5E7034654F83300F4E7FE
:1066500078F3020010F40200922B0020094B01395C
:1066600003EBC000032909D8DFE801F00A020406A1
:1066700004207047007970474079704700207047C8
:106680000220704778F30200034BD3E90030C31AAD
:1066900058425841704700BF742D00202DE9F04347
:1066A00087B0FFF7F1FF0646002840F0FE80804CDF
:1066B000C4F81804BFF34F8F6368A56802932B409A
:1066C000033304EB830002A9FFF7BCFE029A0746DE
:1066D000002865D105EA020304EB8303911C013213
:1066E000DB6803932A4004EB820203F00303D268C1
:1066F0000291022B04926BD1BDF80E306D48C3F3AA
:106700008918B8F1500FC14628BF4FF0500909F160
:10671000080169F38F13C1F30901ADF80E3002F0DF
:106720006BF90646002800F0AE8002F094F93B4673
:10673000082203A9304602F0A0F9029925EA0102D5
:106740000132B9EB820F4FEA82033AD95FFA89F935
:106750009BB32940DDB2A9EB050903315FFA89F744
:10676000A946554D04EB810108234A46304602F004
:1067700084F945B109F108095FFA89F33A462946D7
:10678000304602F07AF9029B08F1030803EB980304
:106790000293D4F81834002B4FD1D4F810545DE094
:1067A0002368934204D86360304607B0BDE8F083A5
:1067B0002A40033204EB820085E73F491D461F460D
:1067C000D2E72940033108234A4604EB8101D7E789
:1067D000012B58D1BDF80C303648C3F3831106297C
:1067E00028BF062161F38913023101F00F018900EE
:1067F000ADF80C3002F000F90646002843D002F054
:106800002AF93B46082203A9304602F036F9BDF8C2
:106810000C20C2F38312BB00974203F10803B8D2E5
:1068200002994A1C29400331029204EB810104229F
:10683000304602F022F90137E9E7304602F00FF95D
:10684000FFF722FF80F00100C6B2ADE76B7A23B1FB
:106850002B6831461B68284698476D68002DF5D196
:10686000304602F0FCF80DF107008DF8075000F0FB
:10687000F5FDD4F818340BB9029B63609DF807004E
:1068800000F010FEDCE7D4F8104444B90B4B0C497F
:106890001888000440F0020000F060F8D0E7236898
:1068A00020469B6898476468EFE700267CE700BFB6
:1068B000742D002010F40200802D0020AC2B00204D
:1068C000C4F402002DE9F74F224E04460F469246CB
:1068D00001A901221846D6F808909B46FFF7DAFD79
:1068E00020B3019D4FF00008AA1CD84508EB020117
:1068F00026D11948002101F0F7FB80F310000004B5
:1069000040EA1440E4006B1C04F0380403EA090375
:1069100005EA090544F0010406EB8303033544EA64
:10692000881444EA8724D86046F8254096F8203435
:106930001BB1FFF7B3FE0028FBD103B0BDE8F08F19
:1069400009EA010106EB81015AF82830CB6008F111
:106950000108CAE7742D00209031002000231A4658
:10696000FFF7B0BF07B50123019201AAFFF7AAFF05
:1069700003B05DF804FB07B5CDE9002302236A46A6
:10698000FFF7A0FF03B05DF804FB1FB5CDE90123BD
:10699000069B039301AA0323FFF794FF05B05DF85C
:1069A00004FB000030B50E4CD4F810240346002040
:1069B000114629B9187242B9C4F810345A6030BD72
:1069C0000D7A854205D04968F3E7516859605360F4
:1069D000F5E701300A28EBD14FF0FF30EFE700BFB9
:1069E000742D002038B5074B0125D3F8104483F8E7
:1069F000205404B938BD2368657220465B68984707
:106A00006468F6E7742D002030B5C38885B004466D
:106A10000D4633B1144A00921449154A284601F034
:106A20001CFC217A05291DD0637A4BB1A088FFF7A1
:106A300015FE104B104953F82020284601F00DFC9C
:106A4000227A0E4BA08853F8222003920021FFF7F0
:106A5000E9FD039A0A490346284605B0BDE83040DF
:106A600001F0FBBB05B030BD0CF50200F4F40200F0
:106A7000ECF4020078F5020011F502009CF502002A
:106A800014F5020007B503460846197A052911D006
:106A90005B7A2BB1094A0A49019001F0DEFB0198AB
:106AA0000849019001F0D9FB019803B05DF804EBAF
:106AB00001F0C8BB002AF8D0F2E700BF0CF50200D5
:106AC00011F5020009F502002DE9F04385B01F46DB
:106AD0000C9D002395F80C902B7306460C469046AF
:106AE00029463846FFF790FFB8F1060F09D8DFE8CE
:106AF00008F00412181F283340003146284601F0E0
:106B0000ACFB002229463846FFF7BCFF85F80C9005
:106B100005B0BDE8F08322683146284601F09DFBB0
:106B2000EFE7D4E900233146284601F096FBE8E779
:106B3000A36800933146D4E90023284601F08DFB79
:106B4000DFE7E3680193A36800933146D4E90023AB
:106B5000284601F082FBD4E723690293E36801939E
:106B6000A36800933146D4E90023284601F075FB61
:106B7000C7E76369039323690293E3680193A368FA
:106B800000933146D4E90023284601F066FBB8E7BC
:106B900008292DE9F74F80460E4617461C4639D87E
:106BA000002593F80C901D7319461046FFF72CFF33
:106BB000DFF880A0DFF880B0AE422ED918F80520AB
:106BC0005946204601F049FB0135082DF4D11849FA
:106BD000DFF868A0DFF868B0204601F03EFB002532
:106BE000AE421FD918F805200192104608F088FA25
:106BF0000028019A594608BF2E22204601F02DFB9D
:106C00000135082DECD1012221463846FFF73AFF25
:106C100084F80C9003B0BDE8F08F5146204601F097
:106C20001CFBD1E75146204601F017FBE8E700BF07
:106C300028F5020024F502001EF5020026F50200E8
:106C40002AF502002DE9F84F2F4F304E4FF0000883
:106C50002F4B1B785FFA88F5AB4201D8BDE8F88F5F
:106C6000D7F8009019F835000124A0F12002C0F1F6
:106C7000200304FA02F224FA03F31343D6E90012C4
:106C800004FA00FC01EA0C0B02EA030E5BEA0E0EAA
:106C900009EBC50A35D021EA0C0122EA0303C6E953
:106CA000001302F0CDFB024619F83500194DA0F192
:106CB0002003C0F1200124FA01F104FA03F30B438D
:106CC000D5E900C1C0F120050B40A0F1200122FA56
:106CD00005F5844002FA01F1294304EA0C0402FAA2
:106CE00000F58B4208BFAC420BD1DAF8043043B157
:106CF0009AF801104C1E614261418D1A6942694146
:106D0000984708F10108A3E7D0310020C8310020DE
:106D100098310020C0310020F8B507461E4800F029
:106D20008DFBB8BB01251D4EA7F12004C7F1200340
:106D300025FA03F305FA04F41C43D6E90023BD4009
:106D400002EA050003EA040101431DD1384602F0BE
:106D500077FB134BD3E9001288B129432243C3E9DF
:106D60000012D6E900232A432343C6E900230D4B32
:106D7000094819680022BDE8F84000F017BB21EA75
:106D8000050122EA0402EAE722EA050223EA0403F3
:106D9000C6E90023F8BD00BFA0310020C8310020A3
:106DA000C03100209C310020042A2DE9F341054622
:106DB0000C4616463BD902F07BFAE8B11D4B1E4942
:106DC0001D601E4BDFF888801C701D4B00221E606A
:106DD0000023C1E900231B49C1E90023013CE4B2BF
:106DE00000260327FF2C0ED1174A1848002102B0B5
:106DF000BDE8F04100F0C8BA02F028FA0028DDD062
:106E000002B0BDE8F08105EBC40315F834009B78AF
:106E10008DF80660424601A98DF804708DF80530A2
:106E200002F050FA013CE4B20028DBD0E8E707208A
:106E3000E6E700BFD0310020C031002098310020AB
:106E40009C310020C8310020456C0200B0F50200E2
:106E5000196D020070B5084D084E00242B789C4235
:106E600001D3002070BD3368012113F8340002F013
:106E7000A1FA0134F2E700BF98310020D0310020A0
:106E80001FB50021039001AA44F20100CDE90111D0
:106E900000F004F805B05DF804FB000010B572B610
:106EA000FFF7A0FDFFF7FAFB0028FBD1104C1149BA
:106EB0002088000440F00100FFF750FD0E4BD3F88E
:106EC000F030DB0700D500BE20880C49000440F0FC
:106ED0000200FFF743FDBFF34F8F0749084BCA6815
:106EE00002F4E0621343CB60BFF34F8F00BFFDE7B6
:106EF000AC2B0020B4F5020000ED00E0C0F502006C
:106F00000400FA05094B5A7899780132D2B29142BD
:106F100008BF0022197891421FBF027058781822CA
:106F200002FB003014BF043000207047D431002031
:106F300073B5054600240DF107000E468DF8074095
:106F400000F08CFA0DF10600FFF7DCFF90B106703F
:106F5000094B9DF8062045605A709DF8070000F027
:106F6000A1FA24B9054B4FF48012C3F80021204642
:106F700002B070BD0424F0E7D431002000E100E04D
:106F8000024B4FF43C6043F001031847D0F5020078
:106F900038B50C4B0C4C4FF40032C3F8802001255F
:106FA0004FF48033C4F84833C4F808336560FFF702
:106FB000E7FF064BA56000241C60FFF7E1FF044BD0
:106FC0001C7038BD00E100E000100140F0320020EC
:106FD000E1320020F8B51F4B1F491B680025C1F89E
:106FE0004051C1F84451C1F84851C1F84C51C1F861
:106FF0000051C1F804514BB3D1F804451749096851
:10700000641A24F07F442F461A68A24209D8A41AB1
:1070100015441A7CDE691AB1D3E905201F74904724
:10702000AEB90F4A0F4B11781B788B4205D1013353
:10703000DBB2022B08BF0023137012780A4B43F80F
:1070400022500A4B4FF48012C3F80021F8BD33469A
:10705000DAE700BFF432002000100140F0320020D7
:10706000ED320020EC320020E432002000E100E0AC
:107070002DE9F04FA14AA24913780978A14D994210
:1070800085B03CD00133DBB2022B08BF0023137064
:107090009D4912789D4B0F6853F822003B1823F04E
:1070A0007F4300220B602B6816461446944613B9A2
:1070B00042B12B6006E0196881420ED902B12B6003
:1070C000091A196001272B68DFF848A201934FF0D5
:1070D0000008BEB9DFF844B260E0401A0C44D96839
:1070E000D3F81CE0C3F800C031B13A1922F07F4256
:1070F000C3E90121DE611E4673460122D7E700265F
:107100003746E0E73446F6697F4B60681B68DFF876
:1071100010C2A168C21A22F07F42624500F2A68026
:107120000A442260012222742A680023C4E9013340
:10713000E361002A40F0A3802C60CAE79BF80210AC
:107140005A1CD2B291428BF8002004BF00228BF867
:107150000020182202FB03B32A6819799C680229CF
:1071600075D003297FD0012918D1207CB0B9D3E98B
:107170000312A2605A69E2609A69654BA2611A78AB
:10718000002A18BF01466160BEE78C4200F094807F
:107190008946C9690029F8D1002323749BF800307F
:1071A0009BF801209A42C9D12B68B8F1000F04D195
:1071B000019A9A4201D1002F43D0002B79D0D3F805
:1071C00000A0544D504BD5F804751C68DFF854816D
:1071D0003E1B98F8003026F07F4603369BB94FF4EB
:1071E0008033C5F84433C5F804334B4B4FF40032B9
:1071F0004FF00109C3F880211A60C5F80090FFF72D
:10720000BFFE88F80090B2452CBF5444A41924F066
:107210007F44C5F84045D5F80435DB1B23F07F4398
:10722000E41B033324F07F44A3420AD9D5F8043584
:10723000C5F84035FFF7A4FE374B4FF40032C3F8D2
:107240000021334B00221A7005B0BDE8F08F1146C3
:1072500091469FE71174D2690123002AFAD1002BCD
:107260009CD02A609AE700231946F6E71B1A23F000
:107270007F438B4234BFCB1A0023236052E721683F
:107280001368994213D85B1A1360E26154E7091A34
:10729000D8691A4638B1034618688842F7D3401AAD
:1072A0001860184613462160E061DC6111E713465F
:1072B000F2E7FFF76DFEC4E74C4511D1D3692B60AF
:1072C00073B9DFF844E00120CDE90212CAF80800E2
:1072D000CEF800300E4B1870FFF752FEDDE90212B7
:1072E0000B68C969C9F81C1011B1086803440B6028
:1072F0002B68934218BF4FF001084DE7EC32002095
:10730000ED320020F4320020F0320020E432002080
:10731000E03200200010014000E100E0D431002004
:10732000FEFF7F00E132002008B5FFF731FE104B71
:1073300000200B2218809A700E4B18600E4B1870AC
:107340000E4B18700E4B4FF48012E021C3F88021D1
:1073500083F814131A6002F18042A2F56F22C2F87A
:10736000080583F81113074BD2F804251A6008BDED
:10737000D4310020F4320020EC320020ED32002025
:1073800000E100E0F0320020074B9B784BB132B1B6
:1073900028B10368187C20B959745A6170470720D6
:1073A00070470820704700BFD43100202DE9F74313
:1073B000DFF8848098F8023005460E461746ABB3D6
:1073C000A0B3042930D9436983B3437C0024012B43
:1073D0000DF107000CBF8946A1468DF8074000F06B
:1073E0003DF80DF10600FFF78DFDD8B101230370C4
:1073F0000F4B4560D3F80435C0E90497C0E9023665
:107400009DF8063088F801309DF8070000F04AF832
:1074100024B9084B4FF48012C3F80021204603B072
:10742000BDE8F0830424EFE70724F7E70824F5E735
:107430000010014000E100E0D4310020064A9278BB
:107440003AB130B1426922B1002202740221FFF741
:107450006FBD0820704700BFD431002070B5EFF336
:10746000108672B60C4A946801239CB993600B4B4A
:107470000B4DD3F8801029401160C3F88050D3F829
:10748000841051604FF0FF32C3F88420047006B9B5
:1074900062B670BD0370FAE7F832002000E100E048
:1074A000FC06FFBD084B9A6810B55AB150B9EFF30E
:1074B000108172B6054A1C6814605C68546098605C
:1074C00001B962B610BD00BFF832002000E100E053
:1074D00070B5064D0646002455F8043B0BB1304606
:1074E00098470134042CF7D170BD00BF1033002041
:1074F0004388033300EB8303994209D382884FF614
:10750000FF739A4206D00088B0FA80F040097047B5
:107510000220704701207047033080B240F2FD33F3
:10752000984230B51FD8124B1A783AB91C895D8938
:107530002C440444A4B2B4F5806F0AD31A7DA2B9D6
:107540009A8BDC8B2244024492B2B2F5806F0CD24B
:1075500001220A801446142202FB04335A89104483
:107560005881002030BD0920FCE70720FAE700BF62
:10757000443300200B4A0C495388142000FB0311AC
:10758000CB6833B90420496810700122074801F024
:10759000ADB807490523137002238B8001220968C7
:1075A0000023F3E72833002044330020DC2B0020A5
:1075B0007033002007B5002305490093054A096888
:1075C0000548082301F00AF803B05DF804FB00BF8A
:1075D00070330020F4F50200DC2B002007B50023F7
:1075E00001460093034A0448082300F0F7FF03B064
:1075F0005DF804FBECF50200DC2B002013B5002342
:107600000C4600930146084A0848042300F0E6FFB0
:1076100038B9074B142101FB043101230B7402B06C
:1076200010BD0E20FBE700BFE8F50200DC2B0020B8
:107630004433002037B50A480A4B42689C881968D1
:1076400053880325033305709BB2002000909B00F4
:1076500001EB8401044800F0C1FF03B030BD00BF5E
:107660002833002070330020DC2B002010B50146A9
:10767000044800F0A8FC1C220446002107F0C2FDCB
:10768000204610BDFC2B002038B5144B14220D46AB
:1076900002FB00302B68446804F58051A3B15C887C
:1076A000033403EB84048C4215D22368013312D0D7
:1076B0002046FFF71DFF012808D002280BD0002824
:1076C000F1D12C60012038BD0834ECE76388033326
:1076D00004EB8304E7E70020F5E700BF4433002014
:1076E000426873B504460D4662B3234BD9688A429B
:1076F00028D31B699A4225D812F0030322D11F49CF
:107700000089098988421DD120689168884219D171
:107710001B4841688A4203D901F580518A420DD342
:1077200081698A420CD901F580518A4208D201222E
:107730002A80B3FA83F0400902B070BD1A46F7E719
:107740000A23F6E700262E800196288801A9FFF774
:107750009BFF30B92B8801339BB2012B2B80F3D9CF
:10776000EAE7019B226899689142EED16360034B7E
:107770001B892381E0E700BFDC2B00202833002099
:10778000443300202DE9F8431C461C4B1B78064669
:107790000F4615466BB372B36CB3DFF868804FF0D9
:1077A0001409A388012B01D90A2020E009FB03F367
:1077B00018F803302BB9A0882146FFF765FF20B9E0
:1077C0002060A3880133A380EBE723681EB199886A
:1077D00032889142EFD11FB119883A889142EAD19B
:1077E0009A68C5E90023064B1B892B810020BDE860
:1077F000F8830220FBE70520F9E700BF20330020D3
:10780000283300204433002008B5074B5888191D41
:10781000FFF73AFF18B1BDE80840FFF70BBFBDE81E
:107820000840FFF7A7BE00BF283300202DE9F0472E
:107830009F4FDFF8A08288B006463B6823B99D4879
:10784000414600F0FAFB38603D6829784B1E052B55
:1078500007D8DFE813F01F00770077000701070162
:107860005B010F241422002103A807F0CBFC41F692
:107870001D539C4208BF00243B6804941A78023AC6
:10788000042A00F2F981DFE812F0DA01E6010802C9
:107890001002170226B1884B00225A600124E1E74A
:1078A0002B79032B1CD8DFE803F014022934834A18
:1078B0001378022B19D0137D022B4FF0010316D140
:1078C00014214B43D1180020D0544868FFF786FE9E
:1078D00003E001232B71FFF76DFE002800F0BD804F
:1078E000754B00225A600E24BCE70023E8E7724A79
:1078F00013700023536041F61D54B3E7704971487B
:10790000002302222B718A800968012200F0EEFE1A
:10791000E3E76B4C00262E712068FFF75FFE6A4B91
:10792000DFF898C15B882568142253430CEB0302EF
:107930000CF8036051685560A5881581022221600A
:10794000A280CAE7B5F814A0AA7DDFF87091AEB1A5
:10795000022AEB8806D9142101FB0A91DA1C088956
:1079600002440A81142202FB0A99C3F57F43B9F845
:107970000A20FD331344A9F80A308FE7142303FBD0
:107980000A9318895C6804EB8004062A68D8DFE84B
:1079900002F0274D35431D59040041F61D54AA7DC0
:1079A000EB88022A06D9142101FB0A91DA1C088906
:1079B00002440A81142202FB0A99C3F57F43B9F8F5
:1079C0000A20FD331344A9F80A304BE73F484049E9
:1079D00000234360AB690360FFF782FE002859D0A3
:1079E0000223AB75002300930423EA18214635488F
:1079F00000F0F4FD002830D00E24D0E72B69002BD6
:107A000014BF03230123AB750023009305F10C027F
:107A1000042304F10801EAE70123AB750022EB8897
:107A200000922A699B0004F10C01E0E703290CBFD6
:107A300005230623AB7500230093042305F10802F8
:107A4000E118D4E70623AB75214B19881F4B586802
:107A5000FFF7D4FD04460028A1D108B0BDE8F087A7
:107A60000F249CE7002E7FF419AF2B79012B33D024
:107A7000022B3FF440AF002B7FF4F3AE02232B71B7
:107A80000DF10A01EB68039303A8CDE90466FFF743
:107A900027FE08B90A24E5E60498BDF80A10838891
:107AA000EB8003882B81FFF7A9FD044627E000BF88
:107AB00040330020FC2B00202033002044330020E2
:107AC00070330020DC2B00202833002004330020FA
:107AD0007833002038330020DFF8F89103AA4B46B2
:107AE0003146A81DFFF74EFE044660B9B9F80410F0
:107AF0000498FFF783FD04460A2C3FF4FCAE002CEB
:107B00007FF4B0AEA9E7C9E90066F5E7002E7FF47F
:107B1000C5AE6B4B1A7BBAB11E731A78013A062AAE
:107B20003FF69FAE01A151F822F000BFD37B0200C7
:107B3000F97B0200177C02001D7C020063780200C2
:107B4000237C0200357C02001A78072AE5D801A1BF
:107B500051F822F0757B02001B7B02001B7B0200A8
:107B60009B7B0200AF7B0200CF7B0200CF7B020039
:107B7000977B02001A89534901321A8100225A80E8
:107B80001A730A78B2FA82F252099A720A7DB2FA2C
:107B900082F25209DA72012207E04B4958688A885A
:107BA0004088033202448A8002221A70B5E75C885A
:107BB000444A4549142505FB04220868546850606E
:107BC0008888108102228A800C600622EDE7072255
:107BD000EBE79A7A32B9DA7A8AB900221A705A80B7
:107BE0005A6088E6374900229A72CA68002AF2D1A0
:107BF000097C0029EFD05A80FFF706FE55E70022E6
:107C0000DA72304A116A0029E7D192F82420002A5A
:107C1000E3D00122EFE7FFF70DFD46E7FFF7AAFCEF
:107C200043E75A88274B142101FB02335868FFF7BA
:107C3000D5FC3AE700225A60FFF7BCFC35E7012289
:107C40008DF80C201A89ADF818209A88DB68ADF8F9
:107C50001A20059310E002228DF80C201A89ADF845
:107C600018209A88ADF81A20DA689B7D05929A1F31
:107C7000534253418DF81C3003A8FFF729FC00261E
:107C8000414612483E6000F003FA1148012100F01D
:107C900072FA00287FF4D1ADDFE603228DF80C20C4
:107CA000DA88ADF818201A89D0E704228DF80C2064
:107CB000DB88ADF81830DFE705238DF80C30DBE703
:107CC000283300204433002070330020FC2B002098
:107CD0006C3300207C3300204068FFF7A7BD000014
:107CE00008B50548012100F02EFA18B9BDE8084092
:107CF000FFF79CBD08BD00BF6C3300202DE9F341A8
:107D00009846354B1B7806460D46002B5BD0002964
:107D10005BD009884FF6FF73994258D06B88002BCF
:107D200055D06B689B0754D14AB92F890DF10201D8
:107D30003846FFF7F1FB30B102B0BDE8F08113889F
:107D40005788ADF8023001A8FFF790FC044658B9F7
:107D5000BDF80220214B142101FB0233588903385E
:107D6000C01B58810820E7E780F800800023837556
:107D7000BDF8023083826B6803610121184800F06E
:107D8000EEF92B882381B8F1030F6B88A38004BF21
:107D90000423A3754FF0000508BF3368E06008BFF7
:107DA000A3611048E780658101A900F036F936B17A
:107DB000E36833600C4B75601B89B5723381FFF744
:107DC0008FFF0020B8E70220B6E70520B4E70420C3
:107DD000B2E70320B0E700BF203300204433002087
:107DE0003C330020FC2B00202833002073B50D46C7
:107DF0000446C8B1C1B10DF10601FFF771FCA8B18D
:107E0000BDF806300A486668142202FB030001210F
:107E10000C3000F0A4F963682E600C336B60012312
:107E2000A372002002B070BD0520FBE70A20F9E72D
:107E30004433002013B50446A8B10DF10601FFF745
:107E40004FFC90B1BDF806200A4B142101FB023310
:107E5000DA6862B1A27A52B1DA680020013ADA60D7
:107E6000A07202B010BD0520FBE70A20F9E706204A
:107E7000F7E700BF443300200B4B1B7837B50446AF
:107E80000D4663B168B10DF106012846FFF744FBCA
:107E900018B9BDF806302380658003B030BD0220DC
:107EA000FBE70520F9E700BF20330020104B1B78CB
:107EB00010B5B3B1B8B10188022916D80D4A43886C
:107EC000142404FB01229C1C51898C420DDAC3F559
:107ED0007F43FD330B4453810023038043801846C6
:107EE00010BD0220FCE70520FAE70420F8E700BFF8
:107EF000203300204433002002230022FFF7FEBE7F
:107F000012B10223FFF7FABE0520704718B1032310
:107F10000022FFF7F3BE052070470000104B1B78CE
:107F200013B50446ABB14FF6FF73984213D001A8C6
:107F3000FFF79CFB88B10523037001230371C48004
:107F400001A9084800F069F8FFF7CAFE002002B056
:107F500010BD0220FBE70420F9E70820F7E700BF87
:107F600020330020FC2B002007B5ADF80600ADF84B
:107F700004100DF1060001A9FFF704FC03B05DF841
:107F800004FB07B51346ADF806000A4600200DF1C4
:107F90000601FFF7F7FB03B05DF804FB07B51346D6
:107FA000ADF806000A460DF106000021FFF7EAFBD6
:107FB00003B05DF804FB20B119B103680B60002029
:107FC00070470520704737B550E8013F9DB2C4891E
:107FD00025448489A54228BF2D1B0489A54202BFE0
:107FE000BFF32F8F002207E0C5EA030540E80154E4
:107FF000002CE9D14FF001028DF803200193019A82
:108000000A609DF8031001F0FF0321B1006810FA27
:1080100082F003B030BD1846FBE70A884B889A42CD
:1080200009D150E8012FC2EA024240E80123002BA7
:10803000F7D1012070470020704737B550E8023F64
:108040001FFAA3F5C488A54202BFBFF32F8F0022F9
:108050000DE0C48925448489A54228BF2D1BC3EAAD
:10806000054540E80254002CE8D14FF001028DF89C
:1080700003200193019A0A609DF8031001F0FF03A9
:1080800021B1006800EB124003B030BD1846FBE799
:108090000A884B889A4209D150E8022FC2EA22424C
:1080A00040E80223002BF7D10120704700207047E1
:1080B00001F01F024B090121914000EB830000F009
:1080C0001EB801F01F0301229A404B0900EB830008
:1080D000D14300F02CB84B0901F01F0150F82300E8
:1080E000C84000F00100704710B5034653E8000F88
:1080F0000A4643E8002494F0000FF7D110BD10B5F4
:10810000034653E8002F42EA010043E8000494F0DC
:10811000000FF6D110BD10B5034653E8000F00EA7A
:10812000010243E8002494F0000FF6D110BD10B511
:10813000034653E8002F02EA010043E8000494F0EC
:10814000000FF6D110BD10B5034653E8000F00EB49
:10815000010243E8002494F0000FF6D110BD10B5E1
:10816000034653E8002F02EB010043E8000494F0BB
:10817000000FF6D110BD10B5034653E8002FA2EB57
:10818000010043E8000494F0000FF6D110BD012176
:10819000FFF7B5BF0021FFF7BEBF10B590B1D0E922
:1081A000012301689B1ADBB20A60013BDBB2FF2BA3
:1081B000026802D10020107110BD11684C1C1460BF
:1081C0000B70F2E70E20F7E737B5054600240DF1F6
:1081D00007008DF80740FFF741F92A686B681168BE
:1081E00099420ED9481E106011F8013CEC68A98A2A
:1081F00001FB0344AB6811791B1ADBB2994238BF0B
:1082000013719DF80700FFF74DF9204603B030BD0C
:1082100037B5054600230DF107000C468DF80730F1
:10822000FFF71CF92A681368591C1160E968641A81
:10823000A98AB4FBF1F41C709DF80700FFF732F92E
:1082400003B030BD826810B504462AB143690168A5
:10825000006998470023A36010BD0EB403B50399CD
:1082600021B104AB01AA019300F06EF802B05DF8F1
:1082700004EB03B07047826830B40468551C856015
:10828000A154D0E901329A4202D330BCFFF7DABFE1
:1082900030BC70472DE9F84F9846DDE90A43154692
:1082A00082460F460A464FF00109AA420FD2C14545
:1082B00038BFC14613F0010B01D16CB9002401266F
:1082C000B8F1010F1BD908F1FF386E43F8E709F147
:1082D0000109B2FBF5F2E8E79B070ED5B8F1000FF4
:1082E0000CBF30262026A145E9D2013C314650463C
:1082F000FFF7C1FF002CF6D1E0E72026F3E7B7FB3C
:10830000F6F39D42E1D9DFF83C80B7FBF6F3504627
:1083100018F8031006FB1377FFF7ADFF3346AB42A7
:10832000B6FBF5F6F1D2BBF1000F02D00CB1A145BE
:1083300001D3BDE8F88F20215046013CFFF79BFF99
:10834000F4E700BFFCF502002DE9F74F054617469C
:108350008846002900F03E8118F8011B49B92B7BA3
:10836000002B00F03781284603B0BDE8F04FFFF73F
:1083700069BF252940F0B780002698F800302D2BE2
:10838000424608F1010823D0302B24D02B2B25D0D6
:1083900000242A2B02F1010123D13B681A1D1B681E
:1083A0003A601C440A4613782E2B26D101324FF036
:1083B000000A104610F8011BA1F1300CBCF1090FA6
:1083C0001DD80A2303FB0A13A3F1300A0246F0E783
:1083D00046F00106D1E746F00206CEE746F0040675
:1083E000CBE711F8013CA3F130000928DBD80A22C1
:1083F00002FB0434303C0A46CBE74FF0000A12F887
:10840000011B01F0FB0068289046F8D0782909D8B4
:108410006F290CD8632962D022D8252963D0582926
:1084200000F0888098F80030002B95D197E77039DC
:108430000829F7D801A353F821F000BFAF85020047
:10844000258402002584020045850200258402005F
:108450002385020025840200258402003585020060
:10846000642901D06929DDD13A68D2F80090111D44
:1084700089EAE9723960A2EBE9724FF0010B092A2F
:1084800035DCD34538BFD3462CB1B9F1000F01DB41
:10849000720700D5013CB30702D5BAF1000F03D033
:1084A000F00701D44CBB0024B9F1000F2DDAC9F15B
:1084B00000092D212846FFF7DEFE06F00302022AFE
:1084C00004D1BAF1000F01D11CBB0024CDE9004654
:1084D00053460A2249462846FFF7DCFEA2E73B68DE
:1084E0001A1D19783A602846FFF7C5FE9AE70A2355
:1084F0000BF1010BB2FBF3F2C1E7A345D4D220216B
:108500002846013CFFF7B7FECCE77107D5D52B21F4
:10851000D0E7A345DAD230212846013CFFF7ABFE75
:10852000D2E73968CDE900460A1D3A6053460A226F
:108530000968D0E739680A1D3A60CDE9004653461C
:108540001022F5E73B681A1D3A6016F00106D3F8D1
:10855000009024D1B9F1000F03D0484606F0A7FEE1
:108560000646B4421DD809F1FF3919F8011F002948
:108570003FF458AF2846FFF77EFEF6E7284601365F
:10858000FFF779FE19F806100029F7D1A642BFF4CB
:1085900049AF20212846013CFFF76DFEF6E7002693
:1085A000F0E720212846013CFFF765FED9E73B684C
:1085B0001A1D3A60302128461C68FFF75CFE7821BE
:1085C0002846FFF758FE00220823CDE90032214655
:1085D000102280E703B0BDE8F08F00BF2DE9F7431C
:1085E000DDF8288078B9364B364A1888364B0E2489
:1085F00000040094354940F00100FEF7C6F920461A
:1086000003B0BDE8F0833AB92D4B314A18882E4BA0
:108610000E2400040094EDE7D0F800E0BEF1000F56
:1086200007D1274B2B4A1888274B082400040094B5
:10863000E0E73BB9224B284A1888234B0924000461
:108640000094D7E74568D5F80490B3FBF9F509FB2A
:1086500015353DB11A4B214A18881B4B09240004DB
:108660000094C7E78D0707D0154B1D4A1888164B95
:10867000102400040094BDE712F0030F07D0104B44
:10868000184A1888104B102400040094B2E7C568FB
:10869000A9420DD34D1EEC180569AC4208D8CDF89F
:1086A0002880DEF80C40A44603B0BDE8F0436047E4
:1086B000034B0D4A1888044B10240004009499E7DA
:1086C000C82B00200CF60200B5F7020011F60200DC
:1086D0008EF602003AF602004DF6020094F6020011
:1086E000BEF60200D6F60200F9F60200F7B570B940
:1086F000254B264A1888264B0E2400040094254951
:1087000040F00100FEF741F9204603B0F0BDD0F87B
:1087100000C0BCF1000F07D11B4B1F4A18881C4B2F
:10872000082400040094EAE73AB9174B1B4A18885A
:10873000174B092400040094E1E74568D5F800E0F0
:108740000EF1FF350D4207D00F4B154A1888104B1C
:10875000102400040094D2E7C568A9420CD34D1E32
:108760000EFB02540569AC4206D8DCF81040A44662
:1087700003B0BDE8F0406047034B0A4A1888044B39
:10878000102400040094BAE7C82B00200CF6020065
:10879000A2F7020011F602003AF602004DF60200BE
:1087A00020F7020046F7020070B550B90E4D0F4C8D
:1087B0000026641B1423B4FBF3F4B44208D1002058
:1087C00010E00368002BF1D0BDE87040DB6918476A
:1087D0002B6813B901361435EFE7DB692846984753
:1087E0000028F7D070BD00BFDC2B0020F02B00204C
:1087F00029DF704728DF704770B503689E6886B030
:1088000004460D466EB114220021684606F0FAFCBB
:10881000A3680593237901952BB1012B0DD06846F0
:10882000B04706B070BD01238DF800302369029374
:10883000E368039363690493F1E702238DF8003042
:10884000E3681B030293F5E7034B187A0122B0FAA1
:1088500080F05A74400970478433002038B5234DA6
:10886000234C2B7A3BB923492348FFF7E6FB2060D2
:1088700008B9686038BD022324682B72237973B16C
:10888000012B24D020460321FFF7B6FF00232B72D3
:108890006B6018491848BDE83840FFF7F9BBD4E9C8
:1088A0000523D21AB2F5805FD4E9031028BF4FF434
:1088B00080529208012A38BF012219441844FFF758
:1088C00097FF50B11128DDD101232B72D2E7D4E9F3
:1088D00003031844FFF78EFFF3E72B7C002BC9D16D
:1088E000BDE83840022000F009B800BF8433002002
:1088F0009C33002098330020102C002038B5234CE6
:10890000237A002B41D0022B09D1032830D0204BF1
:1089100000221B68E2601A793AB1012A22D0637CF6
:108920007BBBBDE83840FFF799BFD3E905128D1A2C
:10893000B5F5805F94BF521902F580529A61914259
:10894000EDD102284FF0000308BF19462372104BE7
:1089500018BF0D211868FFF74FFF0E490E48FFF7AB
:1089600097FBDCE71A6901321A615B699A42E7E713
:10897000E3680133082B01D8E360D0E70023E3600C
:10898000DFE7BDE8384005F051BE38BD8433002034
:108990009C33002098330020102C0020831E012BD4
:1089A00001D8FFF7ABBF704700F0FD03012B08D1E2
:1089B000044B00225A74421E504250411874FFF773
:1089C0004DBF704784330020FFF7E7BBF8B5467909
:1089D0000146721E0546002393422D6803D30024EE
:1089E000A64202D8F8BD0133F6E70F682846FFF724
:1089F0000FFC01343946F3E72DE9F843868ACD1C94
:108A00000746FFF7E1FB043E35440446B5FBF6F5A7
:108A1000F0B14FF48073EDB28380C680013D0760F2
:108A200081464FF00008A84512D23846FFF7CCFB2C
:108A3000064648B163790133637108F10108C9F84A
:108A4000000007608146EEE72046FFF7BFFF34468F
:108A50002046BDE8F88301210430FFF780BB10B544
:108A6000012104460430FFF786FBC0B220B920463E
:108A7000BDE81040FFF7AABF10BD2DE9F843B0F8DC
:108A8000068004330546B3FBF8F40F46164608FB90
:108A900014333CB9A8EB0309B14528BFB14626B948
:108AA000BDE8F8832D68013CF3E70433E818A6EB32
:108AB00009064A46391906F07CFBB0454C442D683E
:108AC000C1464FF0000328BFB146E8E72DE9F8435F
:108AD000B0F8068004330546B3FBF8F40F4616469B
:108AE00008FB14333CB9A8EB0309B14528BFB146D4
:108AF00026B9BDE8F8832D68013CF3E70433E91893
:108B0000A6EB09064A46381906F053FBB0454C441B
:108B10002D68C1464FF0000328BFB146E8E741DFAA
:108B200070470000064B10B500241C70054B1C60FC
:108B3000BFF35F8F0449054800F032F8204610BDAE
:108B4000A8330020AC330020E0F70200A03300205F
:108B500007B500230DF107008DF80730FEF77EFC06
:108B6000F1EE103A23F09F03E1EE103ABFF35F8F6E
:108B70000A4B4022C3F884219DF80700FEF792FCBF
:108B800005F064FD20B103B05DF804EBFFF7C7BF4B
:108B900020BF40BF20BF03B05DF804FB00E100E050
:108BA0000B684A684360934208BF0023016008BF16
:108BB00043607047436843B10268916852680B4450
:108BC0009342436004BF00234360704710B50D49D2
:108BD000A1F59472914201D800200FE08C1AE30FA6
:108BE00003EBE4035B1002EBC30452F8333083421F
:108BF00005D802D204F10802ECE7606810BD2146F6
:108C0000E8E700BFE4FC020008B5FFF7DFFF024B16
:108C1000002808BF184608BDA6FB02004FF07043AD
:108C200093F8E02F062A10D1D3F8E42F12070CD1C5
:108C3000D3F8E80F00F0F003302B08D000F0E0008C
:108C4000A0F140035842584170470020704701206E
:108C500070474FF0704393F8E02F062A0CD1D3F8F9
:108C6000E42F120708D1D3F8E80F00F0F000A0F1CC
:108C700030035842584170470020704708B5FFF74D
:108C8000CDFF40B14FF08053884AD3F82433C3F36B
:108C90000423C2F84035FFF7DCFF10B1844B854A4E
:108CA0005A67FFF7BBFF48B14FF080534FF0804247
:108CB000D3F84432C3F34233C2F83C35FFF7C9FF5F
:108CC00030B17D4AD2F8FC3023F08073C2F8FC301A
:108CD000FFF7A4FF40B14FF080430022C3F80C21FE
:108CE000C3F81021C3F83825FFF7B3FF20B14FF0C8
:108CF00080430322C3F8A025FFF7ABFF60B16F4BA1
:108D00000522C3F810260122C3F888260022C3F8E2
:108D100018263F22C3F814264FF0704393F8E02F33
:108D2000062A50D1D3F8E42F11074CD1D3F8E83FED
:108D300003F0F003502B46D14FF08052604BD2F835
:108D40000414C3F82015D2F80814C3F82415D2F877
:108D50000C14C3F82815D2F81014C3F82C15D2F847
:108D60001414C3F83015D2F81814C3F83415D2F817
:108D70001C14C3F84015D2F82014C3F84415D2F8D7
:108D80002414C3F84815D2F82814C3F84C15D2F8A7
:108D90002C14C3F85015D2F83014C3F85415D2F877
:108DA0003414C3F86015D2F83814C3F86415D2F837
:108DB0003C14C3F86815D2F84014C3F86C15D2F807
:108DC0004424C3F87025FFF729FF48B14FF08053C2
:108DD0004FF08042D3F8583203F04F03C2F8E43E1C
:108DE000FFF71CFF48B14FF08043D3F80024D207AF
:108DF00044BF6FF00102C3F800244FF08053D3F852
:108E00003021062A0AD1D3F83431062B01BF2D4A6E
:108E1000D2F83C3743F48063C2F83C37264AD2F894
:108E2000883043F47003C2F88830BFF34F8FBFF32C
:108E30006F8F4FF01023D3F80022002A03DBD3F802
:108E40000432002B2EDA204B0122C3F80425D3F87C
:108E50000024002AFBD04FF010221521C2F8001286
:108E6000D3F80024002AFBD04FF010231522C3F8BA
:108E70000422154BD3F80024002AFBD00022C3F8AB
:108E80000425D3F80024002AFBD0BFF34F8F0A49F2
:108E90000E4BCA6802F4E0621343CB60BFF34F8FFE
:108EA00000BFFDE70A4B0B4A1A6008BD00300140C5
:108EB00000C007400DF0ADBA00ED00E000500040EA
:108EC00000C000400010004000E001400400FA052E
:108ED000242C00200090D003054A4FF0A043105CE2
:108EE000D3F8043523FA00F0C04300F001007047C6
:108EF000E8FC0200044B1A5C012393404FF0A042AF
:108F0000C2F80C35704700BFE8FC0200044B1A5C45
:108F1000012393404FF0A042C2F80835704700BFCC
:108F2000E8FC020008B50020FFF7F0FF0120FFF782
:108F3000EDFF0220FFF7EAFFBDE808400320FFF73E
:108F4000E5BF08B50020FFF7D5FF0120FFF7D2FFEE
:108F50000220FFF7CFFFBDE808400320FFF7CABF9C
:108F6000074A4FF0A041105CD1F80435012282403D
:108F700022EA03001340C1F80805C1F80C35704718
:108F8000E8FC0200054A4FF0A043105CD3F810350E
:108F900023FA00F0C04300F001007047E4FC020037
:108FA0000D2809D00E2809D00F2809D010280CBF91
:108FB00003204FF0FF3070470020704701207047BA
:108FC00002207047014B185C704700BFE4FC0200B0
:108FD000C20708B501460CD54FF0A0430322C3F8E1
:108FE0004427C3F84827C3F84C27C3F85027FFF796
:108FF00099FF8B070AD54FF0A0430C22C3F8342702
:10900000C3F83827C3F83C27C3F8402708BD000041
:1090100038B5074C051E04F1080318BF1C46236829
:109020002BB11A6822605B6828469847F7E738BD7D
:10903000B833002020B9054B01225A70FFF7E8BF72
:10904000012802D1014A9070F8E77047B033002040
:1090500020B9034B01225A70FFF7DABF704700BFF7
:10906000B033002038B50B4C237883B90A486360CD
:10907000A3602361E36000F063F8054605F0E6FABB
:1090800008B900F069F801232370284638BD85250A
:10909000FBE700BFB03300203590020037B50B4C22
:1090A00000230DF107008DF80730FEF7D7F9E368CC
:1090B000013BE360E56815B900F062F8A5709DF822
:1090C0000700FEF7EFF903B030BD00BFB03300205A
:1090D000012813B508D003281CD018B9114B012260
:1090E000C3F8802002B010BD0F4C00230DF1070023
:1090F0008DF80730FEF7B2F923780BB9FFF7B2FF0E
:10910000E3689DF807000133E3600123A370FEF7D5
:10911000C9F9E7E700F020F802B0BDE81040FFF71A
:10912000BDBF00BF00E100E0B033002000F180408F
:10913000002382B0036003680193019B02B0704773
:10914000044A137923B901211060918018467047B1
:1091500085207047C4330020084B1A68D20706D414
:10916000E02283F800230122C3F880211A604FF027
:1091700080430122C3F81825704700BF00E100E0DA
:109180004FF080430122DA60D3F81824D203FBD4D5
:10919000704700004FF0804110B5D1F8003163B145
:1091A0004FF48070FFF7C2FF0D4B58790122C1F8D0
:1091B000082310B95A711B6898474FF08042D2F8C3
:1091C000043163B14FF48270FFF7B0FF0223C2F89D
:1091D0000833034BBDE810401B680120184710BD41
:1091E000C433002000F1804000F5C040002382B06D
:1091F000036003680193019B02B07047800000F197
:10920000A040D0F8002722F44032C0F80027D0F860
:10921000003743EA0141C0F800177047C208012334
:1092200000F0070003FA00F08B5C18438854704785
:10923000054B4FF0FF32072843F8202084BFC018A9
:1092400080F84820704700BFCC33002038B5154D5A
:1092500095F858401CBB2022FF2105F1300005F095
:10926000D1FFE0B20134FFF7E3FF0C2CF9D10E4B34
:109270000022E0216A6583F806134021C3F88011BB
:109280004FF4BE701960FFF7ADFF084B4FF000417F
:10929000C3F80413012385F85830104638BD082060
:1092A000FCE700BFCC33002000E100E0006000409C
:1092B000034B93F85800003818BF0120704700BFD7
:1092C000CC3300202DE9F041DFF8E48008EB000307
:1092D000054693F93030002B0F4664DA8B78C3F3E0
:1092E0004003002B0BBF082400240C2108218C42D2
:1092F00002D10420BDE8F08158F8240001303DD1AE
:1093000008EB050166B248F8242081F830601BB9EB
:1093100008EB040383F84850BB785A070ED4D907EA
:109320002ED5AB0003F1A043D3F8002722F00202B0
:10933000C3F800271D492846FFF770FFBB783A782D
:1093400013F0020325D0A40004F1804404F5C044C6
:109350002D02D4F8103523F4473323F44073C4F8B6
:1093600010351204D4F8103505F4F85502F44032E3
:1093700015431D43C4F810550020BBE70134B6E780
:109380007A7805F5E0734FF0A041920041F8232070
:10939000D0E7083E48FA86F696F8505045EA821221
:1093A00086F85020E8E70820A4E700BF203400201A
:1093B000CC33002038B5204C251895F93020072AE9
:1093C00018DD083A44FA82F494F850309B09032BD4
:1093D0000BD14FF0A043D3F81015C14001F00101AB
:1093E0000231BDE83840FFF709BF012B0CBF022155
:1093F0000321F6E7D3B2072B1DD8930003F1804376
:1094000003F5C043D3F8100540F00100C3F8100580
:1094100002F1400040B2800080B2FFF7E3FE51B19C
:1094200095F9303054F823302BB1012303FA02F2BE
:10943000024BC3F8042338BDCC3300200060004049
:109440004FF0A043D3F8103523FA00F000F00100EC
:10945000704700002DE9F04F87B00024584D039469
:109460004FF48072012102F1804303F5C04390B2B2
:109470001B68012B06D1D5F804330B4202D0FFF74D
:10948000B1FE0C430432B2F5907F4FEA4101EAD1BC
:109490004B4BD3F87C31012B0AD14FF4BE70FFF750
:1094A000A1FE4FF0A04344F00044D3F810350393DD
:1094B000E3B2D3B1434F00250126344210D0AB00B4
:1094C00003F1804303F5C043D3F81005D3F810151A
:1094D00057F8253023B1C1F30141C0F30420984768
:1094E0000135082D4FEA4606E7D1002C61DA00224B
:1094F0004FF0FF33CDE90423DFF8C880DFF8C890D0
:1095000000273E464FF0A04B19F9014B631C45D094
:10951000C4F3C2030122E5B204F03F0004F00704E3
:1095200002FA04F406AA134413F8042C224235D09C
:1095300008EB0002AD0992F9302058F822A0BAF1E8
:10954000000F09D1032D29D104A901930090FFF741
:1095500065FEDDE9000301E0032DF5D000F5E071C3
:1095600013F80C3C5BF821102342C1F3014105D0F4
:10957000022913D1032D0CD1294604E003290DD172
:10958000032D06D1022100900136FFF737FE009827
:10959000F6B2BAF1000F01D02946D0470137042FA7
:1095A000B2D136B14FF0A043039AD3F810359342AD
:1095B00002D107B0BDE8F08F0393049B05939DE7AC
:1095C00000600040CC3300201C340020014B1B689D
:1095D000184700BF2834002000F1804000F5E0402B
:1095E000002382B0036003680193019B02B07047BF
:1095F000F0B5524B524CD3F8043185B0002B3DD01E
:1096000094F82E204FF48270FFF7E6FF2AB394F807
:109610002F3013BB494AD2F80031002B32D04FF41F
:109620008070FFF7D9FF638B94F82D00834250D9E7
:1096300021891B1A9BB289B26383CB1A616801EB43
:109640004303C2F82C36C2F830064FF48270FFF79D
:10965000C3FF3A4B01225A6014E0636802932389E6
:10966000ADF80C30E36800218DF8041033BB23748F
:10967000236801A89847002384F82F3094F82E30EF
:10968000002BC7D12D4BD3F810315BB14FF488704C
:10969000FFF7A2FF0023237402238DF8043001A8F2
:1096A00023689847254BD3F81431EBB14FF48A70F7
:1096B000FFF792FF0023237405B0F0BD208B608379
:1096C00063602081E160002AD2D11C4B01221A6024
:1096D000CEE7BAD1E368012184F82F1013B100213D
:1096E0006183AEE76383B0E766694FF00047012509
:1096F000002EE1D0B6FA86F227FA02F34632920043
:1097000026EA030602F1804303F5E0431B68002BC1
:10971000EED01046A2F58C72FFF75EFFD30882F000
:109720000402C2F380028DF808308DF804502368DB
:109730008DF8092001A89847DAE700BF00700040C3
:109740003034002038B51D4B044693F82C0098BBEC
:109750001B4A19602178C2F8F0156178C2F8F41537
:10976000E5781874012183F82D00586183F82F00E3
:1097700083F82E5083F82C106FF00043C2F80833A2
:109780004FF48270FFF728FF4FF48070FFF724FF3B
:10979000A3780C485B01DBB280F807338023C0F864
:1097A000803103600223C2F804330DB1C2F8041300
:1097B000C2F80015002038BD0820FCE73034002036
:1097C0000070004000E100E070B52C4B1A7C02F004
:1097D000FF05002A4FD10A79012A9CBF284CC4F802
:1097E000005500F10C0503EB4504247924B993F8E6
:1097F0002D40013483F82D4003EB4503CC790D7ADD
:109800008E781C715D714B7836021B0106F4E066A0
:1098100003F0300333430E7806F003063343CE786B
:10982000360306F480563343160406F4E026334329
:109830004E798979360506F480160906334301F01E
:1098400080710B430E4901EB0016000100F18040CE
:1098500000F5E040012AC6F81835C0F81455C0F8E4
:109860001045C0F81455C0F8104502D80123C1F8BE
:109870000035002000E0112070BD00BF3034002012
:109880000070004070B5264A264B05461220C2F8EB
:1098900008031C7C022C03D1C2F80403112070BD04
:1098A000187C01281CD1D86818B10223C2F80433EF
:1098B000F4E7DD60198393F82E305BB9D2F80031FC
:1098C000002BFBD04FF48070FFF786FEC2F82C56B9
:1098D000C2F83016124B0222C3F804230020DEE740
:1098E000022093F82E40C2F80403012600201E74C3
:1098F0005D601981D8603CB1598393F82D30C2F86E
:109900002C56C2F83036CAE7C2F82C564FF4807095
:10991000C2F83016FFF760FE16602046BFE700BFB2
:109920000070004030340020074B197C0129CAB276
:1099300008D193F82E00054B10B11A600020704733
:109940005A60704708207047303400200070004093
:10995000F0B51B4F8BB207EB001443EA0243C4F887
:109960001C35184B40005C6900F1010C4FF00046BB
:1099700011F5006F26FA0CF64FF0800505FA00F598
:109980000BBFB44334435C615C610CBFC7F8085340
:10999000C7F8045340244FF000455969844025FA24
:1099A00000F040F2FF75AA42054A0BBF8143014314
:1099B000596159610CBFC2F80843C2F80443F0BDB5
:1099C000007000403034002010B5124B1A7CF2B900
:1099D00000F10C0103EB4102127922B193F82D2022
:1099E000013A83F82D2003EB410300249C800301FE
:1099F00003F1804303F5E0430749C3F8144540F2FF
:109A0000FF72C3F81045FFF7A3FF204610BD1120D9
:109A1000FCE700BF3034002000F8FFFF38B5124BE0
:109A20006FF00042C3F80823104A8021C2F880106A
:109A300001229A6042F21072D3F8141109B9013A66
:109A4000FAD10B4D0024C3F800452C7405EB4403F8
:109A50001B7F13B1E0B2FFF7B7FF0134082CF5D13B
:109A6000002385F82C3038BD0070004000E100E094
:109A7000303400200023435082B043580193019BAF
:109A800002B0704738B51D4602230B710B684A714E
:109A900004467BB112F0040F0CBF82219221100703
:109AA00048BF41F02001D306236848BF21F0800160
:109AB000C3F8001320684FF48271FFF7DBFF12F048
:109AC000800F206805BF012343514019002038BD95
:109AD0002DE9F04F4E4E077906EBC70385B01B7991
:109AE00005460C464FEAC709002B40F08F8046F828
:109AF000372001396A4604F103084FF0010A4FF09C
:109B0000A0404FF0030B11F801CFBCF1FF0F79D04B
:109B10002CF0800313600AFA03FE03F5E0731CF0D7
:109B2000800F14BFC0F808E5C0F80CE540F823B07A
:109B3000414502F10402E6D12868009BC0F8603577
:109B4000019BC0F86435029BC0F86835039BC0F8E0
:109B50006C350123C0F8003561792389A279C0F8FA
:109B60000C15C0F80425C0F808356389C0F8103515
:109B70000023C0F800324FF48E71C0F80033FFF7B5
:109B800079FF28684FF48871FFF774FF28684FF455
:109B90008A71FFF76FFF28684FF48271FFF76AFF41
:109BA00056F837303BB32A68217942F30733002B4C
:109BB000A8BF03F16040C2F307324FEA5313BCBFA2
:109BC00002F00F0413484FEA4111A8BF00F56140AD
:109BD0004FEA8303C9B203F16043B4BF015580F873
:109BE000001303F5614302F01F02012101FA02F2A2
:109BF000C3F880211A604E4401233371002005B060
:109C0000BDE8F08F4FF0FF33136091E70820F6E7CF
:109C10006034002014ED00E0F0B50E461D461C49EE
:109C200003790468D6F800E0B6F804C0B768C4F851
:109C300020E501EBC301F368C4F824C5C4F8287516
:109C4000C4F82C35C4F840E5C4F844C5C4F84875D8
:109C5000C4F84C3502F0010303EB5202C4F814259A
:109C6000EA0712D415F0020203D0002B14BF082219
:109C70000422002BC4F8002218BF0C23EAB208BF4C
:109C80000823BDE8F040FFF7FDBE1022F1E700BF5A
:109C9000603400202148D0F8103110B55BB14FF48A
:109CA0008871FFF7E7FE1E4B5A79510703D51B68F1
:109CB0000BB1012098471948D0F814315BB14FF42B
:109CC0008A71FFF7D7FE164B5A79120703D51B6826
:109CD0000BB1022098471148D0F81C315BB14FF40A
:109CE0008E71FFF7C7FE0E4B587910F0100002D1AD
:109CF0001B6803B198470948D0F8043163B14FF4A9
:109D00008271FFF7B7FE064B01221A711B681BB167
:109D1000BDE810400320184710BD00BF00C001403F
:109D2000603400200220FFF71BB900002DE9F04746
:109D300080460D46FFF734F90328044610D8012D5C
:109D400010D0022D30D05DB91A48FDF777FB1A4BC1
:109D500004EB440213449D78184B1B5DAB4219D0B1
:109D6000BDE8F087144E00EB4003F218F55C537821
:109D7000470053B1DFF84C900E484A464FF400417B
:109D8000FDF714FB08B989F8008027443E440B4BCB
:109D9000B2781A55002DE3D0094B1B68002BDFD099
:109DA0002846BDE8F047184700EB40040248044449
:109DB0006578EFE78C340020CC340020E5340020B7
:109DC000E03400206834002000780221FFF7AEBFA5
:109DD00008B5094B1B7853B10020FFF797F8012015
:109DE000FFF794F8BDE808400320FFF78FB8BDE8FF
:109DF0000840FFF797B800BF69340020F8B5784CE9
:109E0000237805461BB100232370FFF7E1FF172DD0
:109E100000F28380DFE805F00C13133E4F60717B86
:109E200083888388909595959595BFC4CCD4DFDFC2
:109E3000FFF7CEFF6B4B00241C702046F8BD0020BE
:109E4000FFF74AF8F0B10020FFF760F8022D0CBFD1
:109E50004FF4E1644FF47A64624B1D7000254FF4B7
:109E600000464FF4FA7029464FF47A720023E4FB5F
:109E7000060105F085F82A460146BDE8F8405A4833
:109E8000FDF794BAFFF736F8022D0CBFC8244FF443
:109E9000C874E1E70020FFF71FF840B10020FFF78A
:109EA00035F84FF448744F4B03221A70D6E7FFF78A
:109EB00021F8C824F7E70020FFF70EF838B100209A
:109EC000FFF724F84FF47A64464B0422EDE7FFF7DE
:109ED00011F84FF4C874F7E70020FEF7FDFF48B112
:109EE0000020FFF713F83F4B05221A7041F69A1134
:109EF0000022C2E7FEF7FEFFF5E70020FFF730F88B
:109F0000384B06221A70002240F6CD41B5E70020FA
:109F1000FEF7F0FF334B07221A7000248DE7012073
:109F20002070FFF71DF8EEE701202070FFF718F80A
:109F300000224FF48041A0E7FFF703F8294B0C22E1
:109F4000EAE72A482A4EFDF779FAD5F111050446C9
:109F50001CD0D8B9012D13D0C820454321464FF459
:109F600000474FF4FA704FF47A720023C5FB0701E3
:109F700005F006F8224601461C48FDF717FA04468C
:109F80000220FEF7B7FF0123337056E70220FEF7E9
:109F9000BDFF0023F8E7FFF71BFF124B1222BBE7C0
:109FA000FFF716FF0020FEF7A5FF0E4B1322B3E7C5
:109FB000FFF70EFF0120FEF79DFF0A4B1422ABE7CF
:109FC000FFF706FF0020FEF795FF0120FEF792FF46
:109FD000044B1522A0E7FEF7B4FF024B1D709CE76F
:109FE000DC340020E4340020AC3400206C34002049
:109FF00069340020044B1B68DB0703D5034B18783A
:10A00000FFF7FCBE704700BFD8340020E4340020C6
:10A0100010B5002914BF03240024FEF7D3FF8000ED
:10A0200000F1A040D0F8002722F44032C0F8002709
:10A03000D0F8003743EA0443C0F80037002010BDD1
:10A04000032801D8FEF79EBF0020704738B51C4B8F
:10A0500018601C4B10F00204054619601AD01A4B08
:10A060001A480E221A700F22DA7010229A711122E9
:10A070005A72042140F26662FCF796FE044648B923
:10A08000FCF7E8FE044628B90146114A1148FDF7DD
:10A090007BF90446EB0711D50120FEF799FF6CB957
:10A0A00021460D4A0D48FDF76FF9044630B9BDE869
:10A0B00038400B4A0B480121FDF766B9204638BDF0
:10A0C000D8340020E0340020CC34002018FD0200F9
:10A0D000C99D02003CFD0200F59F020040FD020008
:10A0E000259D020038FD0200032811D8012A0AD15B
:10A0F00001290FD100F10E02D2B20D4B00EB40004E
:10A100001A54002070470129F7D0022904D049B120
:10A11000072070470022F8E7054B00EB4000184489
:10A120004270EEE7024B00EB400018448270E8E713
:10A13000CC340020032802D80121FFF769BF062094
:10A14000704708B5012202210020FFF7CDFF08B1BA
:10A15000072810D1072202210120FFF7C5FF08B10F
:10A16000072808D100210A220846FFF7BDFF10B1D9
:10A17000072808BF002008BD0388102B10B502D0A7
:10A18000112B1ED010BD1A4C2168B1B9012208460E
:10A19000FFF7AAFF08B1072824D1072202210120D6
:10A1A000FFF7A2FF08B107281CD1042202210020DA
:10A1B000FFF79AFF08B1072814D123680133236001
:10A1C000E0E70B4A1368013B1360002BDAD1FFF77D
:10A1D000B8FF0028D6D0074B1B68002BD2D0BDE8B3
:10A1E00010401847034B1B68002BE6D09847E4E764
:10A1F000F0340020EC34002008B50020FFF79AFF6F
:10A2000008B1062806D10120FFF794FF10B10628F7
:10A2100008BF002008BD00000D4B10B518600C46AB
:10A2200029B10120FFF70CFF40B102232370094B35
:10A230001B6853B9BDE81040FFF783BFFFF700FF6D
:10A2400008B10B23F2E72070F1E7002010BD00BF3A
:10A25000EC340020F034002033DF704776DF7047A5
:10A2600078DF70477ADF70477CDF70478FDF704799
:10A270007047FCF705BE00000C4B012801FB03F3FF
:10A280000B4993FBF1F303F561730A499BB205D0C7
:10A2900021F8203001306428FAD17047002201EB08
:10A2A00082000132642A4380F9D17047905F010037
:10A2B000F0D8FFFF484600200A8840F677239A42EC
:10A2C00010B50C4609D1084B4A8818888B88074975
:10A2D000000440F00300FCF74EFB21460448BDE8B3
:10A2E000104004F0BEB800BFAC2B002044FD0200BB
:10A2F000E8450020000000002DE9F04F2DED028B15
:10A30000047883B00546002C40F05681FFF786FBA9
:10A31000B94B6D68B94900931846234635F81320A8
:10A320000468B2F5805F28BF00221444012B40F876
:10A33000044BC8BF0C6803F10103C4BF12190A60C3
:10A34000042B01F10401E9D1B5F9040007EE900AEC
:10A35000F8EEE77A17EE900A04F0CEFDA0A3D3E959
:10A36000002304F011FCA0A3D3E9002304F0A8FC0F
:10A3700004F0DCFD0646B5F9060007EE900AF8EE9B
:10A38000E77A17EE900A04F0B7FD95A3D3E900230E
:10A3900004F0FAFB94A3D3E9002304F091FC04F049
:10A3A000C5FD974B1C88974B0546002C40F0A081BB
:10A3B0001E60954B1860954A954D137801331370C4
:10A3C0002B888F4A01339BB20134B3F57A7F2B80FF
:10A3D000148052D1DFF880B28E4C8F4F4FF0000ABC
:10A3E00000265BF8043BB5F80080B3FBF8F81FFAD1
:10A3F00088F8404604F05EFD40F69913984541EC1C
:10A40000180B00F22D81B4F80080B8F1630F00F250
:10A41000DB8002460B4676A1D1E9000104F0B0FBD7
:10A4200032463B4604F0B0FB32463B4604F0ACFB00
:10A430006DA3D3E9002304F043FC41EC180B404624
:10A4400004F038FD0B46024651EC180B04F076FA86
:10A4500004F01CFD80B264288ABF6423208023801E
:10A4600021885046FFF708FF00234BF8043C0234D4
:10A47000BAF1000F00F0A5802B80644B1B78012BF4
:10A4800040F09A80654BDFF8D4A11D78644BDFF86B
:10A49000BC911C78634B019304F108035FFA83F8C5
:10A4A0004FF0000B009B53F8040B009304F016FDD3
:10A4B000032D06460F4600F20281CAE90067013506
:10A4C000EDB24FF0010B019A12F8013B0192564A8E
:10A4D00002EBC303D3E90023FAE8020104F0F0FB26
:10A4E00004F0D4FC631C80B2DBB209F80400000A5B
:10A4F00009F80300009B02341A46E4B20023A04589
:10A5000042F8043CCED1464C84F80080BBF1000FE9
:10A5100001D0424B1D703D4A00231370384B1B88FD
:10A52000B3F5FA7F2ED1414E41493088000440F006
:10A530000300FCF713FAFCF7B1F805460028FAD13E
:10A540003C4B3D49D3ED007A3388FDEEE77A1B049E
:10A5500017EE902A43F00300FCF704FA374B384912
:10A56000D3ED007A3388FDEEE77A1B0417EE902ACC
:10A5700043F00300FCF7F6F9214B324A1D801388A3
:10A58000013313802F4D2B88062B0CD1274B2E49DE
:10A590001888000440F00300FCF7E0F9FCF77EF8AF
:10A5A0000028FBD128802378202B05D12749284873
:10A5B00003F022FF0023237003B0BDEC028BBDE843
:10A5C000F08F4FF0010A0CE7184B2249188800045D
:10A5D00040F00300FCF7C2F946E700BFAFF300808C
:10A5E000333333333333E33F0000000000FEAF402A
:10A5F000000000000065A640DC470020E447002082
:10A60000D8470020F4340020C43C0020C54400207A
:10A61000CE440020C844002000002440C64400204E
:10A62000944400204446002068FE0200AC2B002029
:10A63000ABFD020000430020BEFD0200303B0020C5
:10A64000D1FD0200DA470020E5FD0200954400201C
:10A65000E845002073FD0200EC470020F847002089
:10A6600040F6CB4398457FF6FFAE208810B304F048
:10A6700021FC4AA3D3E900238046894651EC180BFC
:10A6800004F07EFA32463B4604F07EFA32463B4600
:10A6900004F07AFA43A3D3E9002304F011FB024645
:10A6A0000B464046494604F06BFA04F0EFFB81B2DA
:10A6B0002180D6E6364B37491888000488E730A356
:10A6C000D3E90023DAE9000104F05EFA2EA3D3E90E
:10A6D000002341EC180B3046394604F055FA024687
:10A6E0000B4651EC180B04F029F9CAE90001EAE61F
:10A6F000621E03EB840B03EB82034FEA820A1868A5
:10A7000004F0FAFB1EA3D3E9002304F03DFA8046CF
:10A710003046894604F0F0FB1BA3D3E9002304F084
:10A7200033FA02460B464046494604F007F904F066
:10A73000FDFB194BCBF80000A70003EB07085344BF
:10A74000186804F0D9FB0EA3D3E9002304F01CFA27
:10A75000064628460F4604F0CFFB0BA3D3E900239F
:10A7600004F012FA02460B463046394604F0E6F889
:10A7700004F0DCFBC8F800001DE600BFAFF300806A
:10A780009A9999999999E93F9A9999999999C93F6B
:10A79000AC2B00208FFD0200C43C00200000000014
:10A7A0000065A6400000000000FEAF40072808B585
:10A7B00019D00A280AD0042807D1104B1321188871
:10A7C000FFF74CFD30F0080309D108BDFFF714FD79
:10A7D00008B1FCF755FBFFF73FFD0028F5D0BDE8B9
:10A7E0000840FCF74DBB054B1A884FF6FF739A42A1
:10A7F000EBD1034800F0CEFFE4E700BF342C00208B
:10A80000D0440020FCF73CBB08B530B102F00EFD8F
:10A8100040B1BDE80840FCF733BB0321024800F01B
:10A8200056FEF5E708BD00BFD04400201FB50388E1
:10A83000212B44D005D8102B0CD0112B2BD004B0D9
:10A8400010BD3B2B01D0562BF9D113218088FFF787
:10A8500005FD19E0214B81882148198002F03CF860
:10A8600008B1FCF70DFB1F4B0FCB6C4684E80F00C3
:10A87000012221461C480223FFF7CEF91B48002283
:10A880004FF4A471FCF792FD0028D8D004B0BDE8C5
:10A890001040FCF7F5BA164B027A1B8815491B04C9
:10A8A00043F00300FCF75EF80C4B4FF6FF721A8082
:10A8B000114B187804B0BDE81040FFF7A5BF002386
:10A8C00080888DF8003069468DF80130FFF7CEFCA6
:10A8D0000028B4D0FCF7D4FAB1E700BF342C002034
:10A8E000384600202CFE0200382C0020C8450020ED
:10A8F000AC2B0020F2FD0200CC44002018B9024B22
:10A900001878FFF781BF7047CC44002030B5604B0A
:10A91000604C186999698FB002AA0190586903C206
:10A92000197F11702178052207290FD8DFE801F07F
:10A930001004080A0C0E242601218DF80A1007E0E5
:10A940000221FAE70321F8E70421F6E78DF80A204F
:10A95000514DD3F81D0069688DF80C2005AA03C27B
:10A96000297A117061780522072913D8DFE801F0F0
:10A9700014080C0E101227290621DEE70721DCE758
:10A9800001218DF8161007E00221FAE70321F8E70C
:10A990000421F6E78DF81620404DD3F826006968AB
:10A9A0008DF8182008AA03C2297A1170A278072A04
:10A9B00023D8DFE802F00B081C1E202224260621E3
:10A9C000DFE70721DDE701228DF82220344DD3F89F
:10A9D0002F0069682B7A0BAA03C21370E378072B48
:10A9E00050D8DFE803F01310494B4D4F515302226A
:10A9F000EAE70322E8E70422E6E70522E4E7062285
:10AA0000E2E70722E0E701238DF82E3002A90020BB
:10AA1000FEF7DAFE08B1FCF733FA05A90120FEF7CC
:10AA2000D3FE08B1FCF72CFA08A90220FEF7CCFEF1
:10AA300008B1FCF725FA0BA90320FEF7C5FE08B103
:10AA4000FCF71EFA174901A8FEF77CFE08B1FCF7D7
:10AA500017FA15480421FEF715FF08B1FCF710FAA4
:10AA600012480421FEF70EFF08B1FCF709FA104B5B
:10AA7000D3F804330FB030BD0223C5E70323C3E787
:10AA80000423C1E70523BFE70623BDE70723BBE790
:10AA90002CFE02004446002049FE020052FE020045
:10AAA0005BFE0200F9A202009C450020A4450020A4
:10AAB0000070004008B5FFF729FFFEF735FF18B119
:10AAC000BDE80840FCF7DCB908BD00004FF080434A
:10AAD000012210B5C3F87825934B00201860934BE2
:10AAE00005221A705A709A70DA70914B1880914B47
:10AAF000B2B04FF400411880FBF76AFD08B1FCF7D3
:10AB0000BFF9FBF791FCFCF70FFC08B1FCF7B8F9B3
:10AB1000894A8A480121FCF737FC08B1FCF7B0F9F3
:10AB200087490320FFF792FA08B1FCF7A9F907A9B2
:10AB30000020FFF771FB08B1FCF7A2F99DF81C306B
:10AB4000804C981E434243412370FDF7EBFF08B150
:10AB5000FCF796F903F0F4FC08B1FCF791F9002337
:10AB600007A90120079303F0C5FD08B1FCF788F998
:10AB700007A803F077FE08B1FCF782F911237249A8
:10AB80008DF808300C2202A8FFF76EFB08B1FCF725
:10AB900077F940F24130FFF763FB08B1FCF770F939
:10ABA0000023ADF820300823ADF81C301823ADF891
:10ABB0001E3007A84FF41673ADF82230FFF752FB92
:10ABC00008B1FCF75DF96149614801F077FD08B112
:10ABD000FCF756F90021AC2207A804F013FB02236E
:10ABE0008DF81C3040F20163ADF81E300323ADF840
:10ABF0002C30584B0C9301234FF4FA718DF8983098
:10AC000047F23053CDE929135348544B309307A9E9
:10AC100000F0EDFB08B1FCF733F94F48012100F0DB
:10AC2000E3FB4F4B4F48019301A901F043FE08B1EC
:10AC3000FCF726F903230021142202A88DF8033023
:10AC400004F0E0FA01238DF80C300DF103030493B6
:10AC50004548112302A98DF814308DF8173003F000
:10AC60006BFB08B1FCF70CF94022002107A804F0A7
:10AC7000C9FA07A83D4901F009F8112307A8ADF862
:10AC8000583003F0FFF908B1FCF7FAF8142200215C
:10AC900007A804F0B7FA4FF470234FF42032CDE93F
:10ACA000082303238DF828302F4B9B89ADF82A30D9
:10ACB0002F4B0C9307A82F4B0D9300F089FE08B182
:10ACC000FCF7DEF80120FEF783F92B4A00234FF44E
:10ACD000617122F823100133642BFAD100234FF461
:10ACE000617002EB83010133642B4880F9D1234B5F
:10ACF000079340F20713ADF8203042F210730022A0
:10AD0000ADF824301E488DF82220012307A9ADF8A4
:10AD10002630FEF7DDFE08B1FCF7B2F82078FFF729
:10AD200073FDFDF715FFFCE718480020444600209E
:10AD3000D8470020DA470020B5AA020064FE0200CE
:10AD4000ADA70200CC4400200BFE0200B9A2020015
:10AD5000B4450020282C0020D0440020FDA802008B
:10AD600073A2020038460020E845002018FE0200C9
:10AD700071A2020005A80200484600209116921711
:10AD8000382C00200369C26893429CBF80681B185E
:10AD9000013B981A70472DE9F843D0E90294054623
:10ADA000A9EB04084068904520440F46144404D998
:10ADB00004F0FFF9EC60BDE8F8834246A4EB090417
:10ADC00004F0F7F96868224607EB0801F0E72DE97F
:10ADD000F843C5680646894617464FF000083469AF
:10ADE000B3687068A54228BFE418013C621B5C1B75
:10ADF000BC4228BF3C46944228BF144649462844DA
:10AE0000224604F0D6F9B3682544AB4208BF0025BA
:10AE10003F1BA044A144F560E1D14046BDE8F88362
:10AE200010B5114C114AA2610223C4E90433104B3E
:10AE3000E361A2644FF400730E4A0F492362E26497
:10AE400000231022E01DA3626362E362A3656365D1
:10AE5000E365226504F009FA0849204604F005FA82
:10AE60002023A37110BD00BF1C480020A8FE0200D3
:10AE7000A448002094480020B1FE0200B5FE020064
:10AE800070B5164B182400FB04451D4404FB003329
:10AE90001646DC6A012C0ED0022C18D0E4B92846E4
:10AEA000FFF770FF864204D832462846FFF773FF4B
:10AEB0003446204670BD2846FFF764FF864234467C
:10AEC00028BF044622462846FFF765FFF1E72846DB
:10AED000BDE87040FFF77BBF0024EAE71C48002074
:10AEE000FFF79EBF6DDF704779DF70477DDF7047EA
:10AEF00064DF70472DE9F04F85B000250E9CBDF84A
:10AF00003CB0B4F800A00191074690461E46A94601
:10AF10003A884A450DDC45B12388013BA3EB0A037F
:10AF20009BB2FF2B3AD806F80A30002005B0BDE8E6
:10AF3000F08F7A6852F82900039000220DF10B017E
:10AF400003A8FFF7D5FF0028F0D19DF80B2042455C
:10AF500021D12288002D14BF0020022002EB08011D
:10AF6000014459451ADC3DB9013292B2019B22805D
:10AF7000B35422880132228022880DF10B01324421
:10AF800003A8FFF7B5FF0028D0D121889DF80B203A
:10AF90000A442280012509F10109B9E70C20C5E71F
:10AFA0002DE9F341089FBDF824801546CDE90078CE
:10AFB000022204461E46FFF79DFF50B93346102279
:10AFC00029462046CDE9087802B0BDE8F041FFF7F8
:10AFD00091BF02B0BDE8F0812DE9F04F0023178842
:10AFE000138090F82D3085B006460D4614465BB3AD
:10AFF000082F01D80C204EE102A8FFF773FF0028AC
:10B0000040F049812388DDF809100822EA5423889A
:10B0100001339BB21B222380EA54238801339BB265
:10B02000EA182380E950BDF80D30938023889DF8FD
:10B03000082006339BB212F0FE0218BF01222380C3
:10B04000EA54238801332380B378FBB12388043387
:10B05000BB42CFD802A8FFF747FF002840F01B8172
:10B0600023880322EA54238801339BB219222380C8
:10B07000EA542388BDF8082001339BB2E9182380E5
:10B08000EA54120A4A70238802332380F2789AB174
:10B090002388D91CB942ADD80221E9542388013351
:10B0A0009BB201212380E95423880B449BB2238067
:10B0B000EA5423880B4423807268AAB12388D91CE0
:10B0C000B94297D8022192F90020E954238801332C
:10B0D0009BB20A212380E954238801339BB2238049
:10B0E000EA542388013323803389002B40F0C78042
:10B0F000338A5BB1CDE900472B460722032106F1D5
:10B100001000FFF74DFF002840F0C580338B5BB186
:10B11000CDE900472B461522142106F11800FFF750
:10B120003FFF002840F0B780326A002A40F0B68026
:10B13000D6F82480B8F1000F31D0B8F80430218857
:10B14000981C8A1C0244BA423FF654AFFE283FF6D0
:10B1500051AF03336B54238801339BB2FF2223800A
:10B16000EA54238801339BB22380B8F80020EA54C4
:10B17000E918120A4A702088023080B22080B8F89C
:10B18000042062B1D8F80810002900F0918028440A
:10B1900004F00FF82388B8F804201344238096F8AD
:10B1A0002C30002B43D0B36A002B00F081804FF08D
:10B1B00000084FF00C0A4FF0160BB16A5FFA88F2E4
:10B1C0000AFB02F201EB0209B9F80430981CFE28D0
:10B1D0003FF610AF208803332B54238801339BB2F2
:10B1E000238005F803B0238801339BB223808A5A59
:10B1F000EA54E918120A4A702088023080B220808E
:10B20000B9F804205AB1D9F80810002950D02844C0
:10B2100003F0CFFF2388B9F804201344238096F865
:10B220002C2008F101085FFA88F39A42C5D83078DB
:10B2300088B33388012B3BD0228802F1020CBC4535
:10B240003FF6D8AE012805D17378023313449F42EC
:10B25000FFF4D0AE023FBF1ABFB202A905EB0C004B
:10B26000ADF80870FFF742FEA8B93378022B58D129
:10B27000BDF80830BB426DD9ADF8087058E0CDE993
:10B2800000472B460622022106F10800FFF788FE40
:10B2900000283FF42DAF05B0BDE8F08FB4F800C032
:10B2A0000CF10603BB423FF6A5AE1188052901D873
:10B2B0000720F0E76FF4486E01EB0E039BB24FF2EC
:10B2C0007D3E7345F4D95388052BF1D96FF448605E
:10B2D000181880B27045EBD94FF6FF70814201D04B
:10B2E0009942E5D8052305F80C30238801339BB239
:10B2F00012212380E954238801339BB223801188D3
:10B30000E954E818090A4170238802339BB223806C
:10B310005288EA54E918120A4A70238802332380BB
:10B3200006E7012BA8D173789F42A5D3ADF808306A
:10B330000821BDF80830FE2B3FF65CAE22880133B1
:10B34000AB542288013292B22280A954228813443D
:10B350002380A0E70921ECE770B5C0B14AB1168897
:10B360000024B44203D305196D789D4208D0A14250
:10B3700001D800200BE0055D01352C44A4B2F0E7B4
:10B38000A142F6D9A31C1380005D013880B270BDC4
:10B3900013B513460022ADF806200DF1060204464F
:10B3A000FFF7DAFF10B1BDF80630E01802B010BDAB
:10B3B00072DF704773DF704774DF704738B5012262
:10B3C00004460D46B0F89810D0F89400FFF7E0FF5F
:10B3D00000B1057004F13C0204F1940104F1540041
:10B3E000BDE83840FFF7E4BF80F830107047F8B58B
:10B3F00004460F46002966D0002864D091F87A30C0
:10B400001BB191F89830002B5FD1D7F8A030042BF6
:10B410005BD0D7F89C30042B57D04FF0000C84F849
:10B4200002C007F178060FCE251D0FC50FCE0FC540
:10B4300096E8070085E8070084F830C0D7F8A43004
:10B440006363D7F8A830A36304F194024FF6FF7347
:10B45000C4F8AAC0A4F8A830C4F8A420C4F8ADC0A9
:10B4600022780AB984F85430224604F155011F2588
:10B47000C4F89410384622F8985FFFF7ADFD08BB7A
:10B48000224604F17401C4F89C1007F13C0022F834
:10B49000A05FFFF7A1FDA8B9A369A4F848304FF455
:10B4A00080730125A4F8503063692064014684F854
:10B4B0003C50636404F13C0204F15400FFF778FF50
:10B4C00000B92570F8BD0E20FCE70720FAE72DE94A
:10B4D000F041077804460D46002F00F0108181707E
:10B4E0000020FDF761F9064620B1012363700020BA
:10B4F000BDE8F081E388C4F8AA0004F1AA08C4F802
:10B50000AD0013B1A378012B04D0E3794BB1A3783C
:10B51000022B06D1636BA3B1012284F8B12008206D
:10B52000984704F1AB0204F1B10112F8013B5BB999
:10B530009142FAD16A1E032A4FD8DFE802F0070DC4
:10B54000111484F8B130ECE73B46F3E7A2791AB165
:10B5500094F8242002B95BB9E2790AB1002B3ED1FC
:10B56000237A002B3DD1637A002B0CBF00250425E4
:10B57000636BA570002B36D0033D012D33D8627963
:10B580008AB394F8B22072BB84F8B420012284F804
:10B59000B3200720984704F13C05182200212846D3
:10B5A00003F030FEE26A0123511E994284F83C30D8
:10B5B00098BFD3B284F8513094F8243098BF3E46F7
:10B5C0001BB1A6B1A26A84F85220A278042A1ED820
:10B5D000DFE802F07E0F283C60000025C8E7022566
:10B5E000C6E70325C4E7002384F8B330D3E701227C
:10B5F000E9E7012384F831300023C4E91083C4F85B
:10B60000A430022384F83C308023A4F84830A37887
:10B61000002B61D1636B002B3FF469AF94F83100CC
:10B62000984764E7002B14BF0723032384F83C30BA
:10B630002369A4F8483000230222C4F8A430E36848
:10B6400084F83120C4F840806364E0E76269626492
:10B65000A269A4F8482013B1062384F83C3063792A
:10B66000B3B194F8B2309BB994F8B43083B10223EB
:10B6700084F8503004212046FFF7A0FE0028C6D1F0
:10B68000052384F8313004F19403C4F8A430BEE7F4
:10B690000323F6E7E2696264226AA4F8482013B142
:10B6A000062384F83C30637983B194F8B2306BB9E7
:10B6B00094F8B43053B1022384F85030042120466A
:10B6C000FFF77CFE0028A2D10623DAE70423D8E79F
:10B6D000002384F831309AE7D4F8A4102A4604F104
:10B6E0005400FFF765FE00287FF402AF94F8301095
:10B6F00094F85400FFF75EFE00288BD0F8E608208F
:10B70000F6E60388112B10B50C460AD0262B1FD065
:10B71000102B05D1C37B012B02D18388A1F8A8305F
:10B7200010BD0022838881F8B220B1F8A8209A4287
:10B73000F6D10B79002BF3D101212046FFF7C7FE8C
:10B740000028EDD0A36B002BEAD0BDE810401847CD
:10B75000037A013B012BE3D8897805230131B1FB42
:10B76000F3F303EB8303C91AC9B2E6E702380128F1
:10B7700010B50C460DD84B785BB100234B702046BA
:10B780008978FFF7A4FE20B1A36B13B1BDE8104088
:10B79000184710BD38B5044690F85400FFF70CFE6A
:10B7A000012384F8B230002384F8B43084F8503098
:10B7B00006212046FFF702FE054638B9A17820464B
:10B7C000FFF785FE10B1A36B03B19847284638BD3B
:10B7D00075DF704776DF70477ADF70477BDF704731
:10B7E000034B1A8882420CBF18460020704700BFE6
:10B7F000C04A0020024B9B6903B11847704700BF45
:10B80000A44A002073B585B22846FFF7E9FF044635
:10B8100038B3174E027A337B9A420CD200F10A01F8
:10B820002846FFF7D5FFF0B111281AD002B0BDE8C5
:10B830007040FFF7DFBF00230372337C43B13B212D
:10B840002846FFF7C7FF30F0080301D0FFF7D2FF0B
:10B85000736933B100228DF80420ADF8065001A8B9
:10B86000984702B070BD237A01332372F9E700BF15
:10B87000A44A002037B50B46497A0F4A79B9D2E974
:10B8800001141D7A0246002D18BF21465868FBF7A7
:10B890008DFD78B103B0BDE83040FFF7ABBF0021AC
:10B8A0001972536933B10122ADF806008DF80420F6
:10B8B00001A8984703B030BDA44A00204B880288F5
:10B8C0009A4212D842889A420FD380888B8840F2DD
:10B8D000F311884294BF021A421A9A4205D80844CA
:10B8E000984234BF002001207047002070470000BC
:10B8F0000388122B70B5014659D004D8102B1ED0E6
:10B90000112B44D070BD502BFCD12F4BC288DB894A
:10B910009A42F7D1038A022BF4D186883046FFF78A
:10B920005FFF05460028EDD001F1120000F0AAF9F2
:10B9300038BB6868FBF782FD0028E3D009E0C37BD1
:10B94000012BDFD14FF6FF70FFF74AFF054620B904
:10B950000420BDE87040FFF74DBF1C4A8E8806806A
:10B96000002303721368C0F80A305368C0F80E3021
:10B9700010310A30FFF7A2FF134B6872DB89002BEE
:10B98000C0D129463046BDE87040FFF773BF8088BC
:10B99000FFF726FF04460028B4D04068FBF74EFDB1
:10B9A00008B1FFF727FF4FF6FF732380AAE78688C9
:10B9B0003046FFF715FF05460028A3D008310A30AE
:10B9C000FFF77CFF6872DCE7A44A0020D44A00201D
:10B9D000F8B5064648B305460FCD154F3C460FC493
:10B9E00095E8070084E807003068124C3C60B0B16D
:10B9F000FFF7F2FEC0B932681368236053686360D2
:10BA00000D480E4A4FF6FF7303800D4B40F8043F7C
:10BA10000021FBF7B9FC002818BF032004E02046F2
:10BA2000FFF7DCFE0028EBD0F8BD0E20FCE700BFDE
:10BA3000A44A0020D44A0020C04A002005B80200D1
:10BA4000DC4A0020F7B5174601900E4691B1019CE3
:10BA50006CB100252C46294601A8FCF73CFB18B127
:10BA60003946A8B2B04701340135142DF3D1204630
:10BA700003B0F0BD0C46FAE773B50191019C064690
:10BA80006CB100252C46294601A8FCF724FB18B10F
:10BA900006EB440301349D800135142DF3D130466B
:10BAA000346002B070BD00002DE9F047038884883F
:10BAB000112B8CB005463DD01A2B42D0102B19D13A
:10BAC000DFF8C080D8F80830DB430093D8F80410C2
