:020000022000DC
:1060000000000120D1620200F9620200FB6202007E
:10601000FD620200FF620200016302000000000056
:106020000000000000000000000000000363020008
:10603000056302000000000007630200096302001C
:1060400019AF02000B630200E1A5020085A1020066
:106050000B6302000B63020079AF020091AA0200F9
:106060000B6302000B6302000B6302000B63020070
:106070000B6302000B6302000B6302000B63020060
:106080000B630200FD7302000B6302000D6302004C
:106090009D7402000B630200751203000B63020083
:1060A0000B6302000B6302000B6302000B63020030
:1060B000D9A902000B6302000000000000000000EC
:1060C0000B6302000B6302000B6302000B63020010
:1060D0000B6302000B6302000B6302000000000070
:1060E00000000000000000000000000000000000B0
:1060F00000000000000000000000000000000000A0
:10610000000000000000000000000000000000008F
:10611000000000000000000000000000000000007F
:10612000000000000000000000000000000000006F
:10613000000000000000000000000000000000005F
:10614000000000000000000000000000000000004F
:10615000000000000000000000000000000000003F
:10616000000000000000000000000000000000002F
:10617000000000000000000000000000000000001F
:10618000000000000000000000000000000000000F
:1061900000000000000000000000000000000000FF
:1061A00000000000000000000000000000000000EF
:1061B00000000000000000000000000000000000DF
:1061C00000000000000000000000000000000000CF
:1061D00000000000000000000000000000000000BF
:1061E00000000000000000000000000000000000AF
:1061F000000000000000000000000000000000009F
:1062000010B5054C237833B9044B13B10448AFF3F0
:1062100000800123237010BDA02E0020000000008C
:10622000402A0300084B10B51BB108490848AFF3DA
:1062300000800848036803B910BD074B002BFBD052
:10624000BDE81040184700BF00000000A42E002049
:10625000402A0300302E002000000000154B002BC8
:1062600008BF134B9D46A3F5803A00218B460F468D
:106270001348144A121A0BF036FA0F4B002B00D0B9
:1062800098470E4B002B00D09847002000210400B7
:106290000D000D48002802D00C48AFF300800BF031
:1062A0009FF92000290005F0BDFF0BF085F900BF24
:1062B00000000800000001200000000000000000B5
:1062C000A02E0020B43C00200000000000000000D0
:1062D0000649074A074B9B1A03DD043BC858D050B8
:1062E000FBDC03F003FDFFF7B9FF0000AC2B03005C
:1062F000982B0020A02E0020FEE7FEE7FEE7FEE739
:10630000FEE7FEE7FEE7FEE7FEE7FEE700B5294B06
:106310001A6885B022B1284AD2F80423D20732D4B1
:10632000264B1A6822B1244AD2F80423900735D4A8
:10633000234B1A6822B1204AD2F80423510717D4FC
:10634000204B1A6822B11C4AD2F80423120702D447
:1063500005B05DF804FB00221A601B4A1B6800931D
:106360004FF486701368009A984705B05DF804FBF7
:1063700000221A60144A1B6801934FF4847013685A
:10638000019A9847DCE700221A600F4A1B680393C2
:106390004FF480701368039A9847C1E700221A608F
:1063A000094A1B6802934FF482701368029A984757
:1063B000BEE700BF00310140003001400431014020
:1063C000083101400C310140BC2E0020F0B595B0E1
:1063D000002415460F4608461E4603F07BFB384650
:1063E00023460822089505A91A9D0D9509960A9439
:1063F0008DF82C400C9403F0BFFB9DF81430079DE2
:10640000BDF81800BDF81A108DF8114003F0030212
:10641000012A0295ADF80C00ADF80E1028D0022A22
:1064200004D0384603F05AFB15B0F0BDBDF8165045
:10643000C3F3C2038DF81030C5F389150826082D63
:106440002C4628BF0824334622460EA9384603F0BE
:1064500093FB2D1B214608AB02AA0EA8264400F090
:1064600069FE002DEBD1384603F038FB15B0F0BDC6
:10647000BDF81460059DC6F38316C3F3C204B200D1
:106480000EA9384608238DF81040C5F3952503F072
:1064900073FB08AB0093324628460EA902AB00F00E
:1064A000A3FDBEE7704700BF00B583B0044B009367
:1064B000044A4023FFF78AFF03B05DF804FB00BFE6
:1064C000C9640200C42E002038B50F480F4D037870
:1064D0000F4CEB5C00252570D2B273B90C3005F07F
:1064E000DBF918B10B4A532100F0FAFE0A4B1B7876
:1064F00013B12378002BFCD038BD043005F01EFC0E
:106500000028EFD1F2E700BF982B0020B03C00201C
:10651000C02E002064170300C12E002030B517489C
:10652000174A0378D35C89B01BBB0C3005F04EF9D9
:10653000144D0FCD6C460FC495E80F00062584E876
:106540000F004FF0FF334FF0EB74002269460B4809
:106550000095019302930393069404F001F818B197
:10656000094A432100F0BCFE084B00221A7009B012
:1065700030BD043005F07AFBDAE700BF982B00202D
:10658000B03C00204417030064170300C12E002014
:1065900030B5114D0FCD89B06C460FC495E80F0092
:1065A000062584E80F004FF0FF334FF0EB74002214
:1065B00069460A480095019302930393069403F0F9
:1065C000CFFF18B1064A432100F08AFE054B002296
:1065D0001A7009B030BD00BF44170300982B00208B
:1065E00064170300C12E002010B5054CFFF7D0FF43
:1065F0002046042100F0B8FC0123637210BD00BFE7
:10660000AC2B0020F0B53A4D85B005F5836002F063
:106610001DFB05F2144002F019FB6A68AE6802EA3D
:106620000604A11C05EB810111F8043F13F0030FD0
:1066300003F0030E03F004071BD007F0FF0017B3AD
:10664000BEF1010F44D0BEF1020FEFD14B88C3F36E
:10665000891302331A4406EA0204A31C05EB8303E0
:10666000191D1B7913F0030F03F0030E03F0040749
:10667000E3D15807E4D40B884988C3F3891303EBAB
:1066800091130133E6E705EB8404531C1E40E368D5
:10669000019305EB860503F00303E9680291012BE2
:1066A00002F102041BD0022B17D1BDF80630BDF851
:1066B0000A50C3F38913033304EB93040C4E06F220
:1066C000144002F0D1FA00B17460284605B0F0BD64
:1066D0000B88C3F383130233BCE70546EEE7BDF82E
:1066E0000430BDF80A50C3F383131C44E6E700BF2F
:1066F000042F00200F4B104810B50022FF24012169
:10670000C3F818249C6083F820141A605A60C3F8F8
:10671000142403F097F960B9084B094A9B1ADB0867
:1067200005D0084A22F8200001308342FAD1002027
:1067300010BD10BD042F0020642B0300642B030048
:10674000B42A0300342E002021B9124A02EBC00003
:106750000068704730B410490E4D491BC9080ED06F
:106760000E4B5A88824218BF002205D10FE0DC8808
:10677000844203F1040305D001329142F7D1002095
:1067800030BC704705EBC200006830BC704728463B
:10679000FAE700BFB42A0300642B0300342E002064
:1067A000094B013903EBC00003290BD8DFE801F0E6
:1067B000020806040220704740797047007970474C
:1067C0000420704700207047B42A03002DE9F04FE1
:1067D000964C626823689A4285B069D00023C4F859
:1067E0001834BFF34F8F6168A568266813E002F084
:1067F000040E0EF0FF07BEF1000F25D002F00302D9
:10680000012A4FD0022A04D15B88C3F389130233D3
:1068100019448E4213D901EA050004EB80030C33BE
:106820001A789707E3D15007E8D41A885888C2F33A
:10683000891303EB9013013319448E42EBD80020E7
:10684000666005B0BDE8F08F04EB80004B1CC268A9
:1068500001922B4004EB830302F00302DB680293F6
:10686000022A01F10208DFF8C49125D0012A7AD06A
:10687000D4F8105435B12B6828469B6898476D684A
:10688000002DF8D16A4B6B491888000440F00200D3
:1068900000F0D4F894E80900181A18BF012005B0D8
:1068A000BDE8F08F1B88C3F3831302331944B0E7AC
:1068B000002005B0BDE8F08FBDF806305E48C3F398
:1068C000891BBBF1500FDA46A8BF4FF0500A6AF39C
:1068D0008F130AF10801ADF8063003F0B5F806464B
:1068E0000028C5D003F0F6F83B4625EA0807013733
:1068F000082201A93046BF0003F010F9BA4540F262
:106900008880002F6FD1524609F10C0108233046D0
:1069100003F004F90BF1030708EB9707D4F81834D8
:10692000424A002B5BD1D2F810544DB16B7A3146FC
:10693000284613B12B681B6898476D68002DF5D168
:10694000304603F0CBF804A8002300F80D3D01F019
:106950006DF8D4F81834354A03B957609DF8030030
:1069600001F08CF896E7BDF804303348C3F3831286
:10697000062A28BF0622911C62F389138900ADF80C
:10698000043003F061F8064600283FF471AF03F0CD
:10699000A1F83B46082201A9304603F0BFF8BDF834
:1069A000043013F4707F3FD0BA464FF0080905EA6F
:1069B000080104EB81014B460C310422304603F000
:1069C000ADF8BDF804300AF1010AC3F3831308F1EE
:1069D0000107534509F10409B846E8D89EE7304657
:1069E00003F07CF856E705EA080109EB8101C7EBE3
:1069F0000A053A4630460C31EDB2082303F08EF812
:106A00002A4607F1080309F10C01304603F086F825
:106A100080E705EA080109EB81010C3152460823A1
:106A2000304603F07BF875E7474677E7042F0020F0
:106A3000582E0020C4170300642B03002DE9F043F7
:106A400083B002AB002203F8012DDFF8D8800546A1
:106A500018460F46D8F8086000F0E8FFD8F808207C
:106A6000D8F80430D8F80040134401331B1B012B25
:106A700054D801212A4802F0CDF8FFF7C3FD0146A2
:106A8000274802F0C7F898E80A00D8F8082013440D
:106A900001335B1A012BECD90A404FF0010908EBD6
:106AA000820249F004036FF38913D360D8F80030F1
:106AB0009DF807000233C8F8003000F0DFFF002126
:106AC000174802F071F880F3100004EB090333401B
:106AD000344008EB83030004023408EB840440EAEA
:106AE0001540D860237965F3C5032371A3886FF33C
:106AF0008913A380626867F39F22134669F3010339
:106B00006FF382036260237198F820341BB1FFF7A2
:106B10005DFE0028FBD103B0BDE8F0832146BBE752
:106B200020330020042F00202DE9F04782B002AB73
:106B3000002403F8014DDFF8E890064618460F469A
:106B40009046D9F8085000F071FFD9F80810D9F82C
:106B50000430D9F800400B4401331B1B022B5AD8D8
:106B600001212E4802F056F8FFF74CFD01462B4854
:106B700002F050F899E80C00D9F808100B440133E2
:106B80009B1A022BECD94FF0010A0A4009EB820252
:106B90004AF004036AF38913D360D9F800309DF8F2
:106BA00007000333C9F8003000F068FFA31C2B4036
:106BB00009EB830300211948C3F80C8001F0F4FFAE
:106BC00080F3100004EB0A032B402C4009EB8303F5
:106BD0000004023409EB840440EA1640D8602379AB
:106BE00066F3C5032371A3886AF38913A3806268DF
:106BF00067F39F2213466AF301036FF38203626017
:106C0000237199F820341BB1FFF7E0FD0028FBD178
:106C100002B0BDE8F0872246B5E700BF2033002070
:106C2000042F00202DE9F04F85B004AD002405F8B5
:106C3000014D3A4C01930746284688469246A6687D
:106C400000F0F4FEA168636825680B4401335B1B08
:106C5000032B60D80121324801F0DCFFFFF7D2FCA2
:106C600001462F4801F0D6FF94E80C00A1680B44C0
:106C700001339B1A032BEDD94FF0010B0A404FF063
:106C8000020904EB82024BF0040169F38911D1601F
:106C900022689DF80F000432226000F0EFFE05EB41
:106CA0000900EA1C304004EB8000324004EB820211
:106CB000C0F80CA0019B1A48D360002101F074FFBA
:106CC00080F3100005EB0B023240354004EB8202EA
:106CD00000044D4404EB850540EA1740D0602A7952
:106CE00067F3C5022A71AA8869F38912AA806A68C3
:106CF00068F39F2213466BF301036FF382036A600C
:106D00002B7194F820341BB1FFF760FD0028FBD1F4
:106D100005B0BDE8F08F2A46AEE700BF042F002083
:106D2000203300202DE9F04F85B004AD002405F894
:106D3000014D3F4C0193804628469346A6688946FC
:106D400000F074FEA26863682568134401335B1B7E
:106D5000042B6AD80121374801F05CFFFFF752FC91
:106D60000146344801F056FF94E80A00A268134433
:106D700001335B1A042BEDD90A40012704EB820191
:106D80004FF0030A47F004006AF38910C8602168D5
:106D90009DF80F000531216000F070FEA91C05EB85
:106DA0000A0C05F1040E31400CEA060C04EB8101DB
:106DB00004EB8C0C0EEA060E019BC1F80CB004EB40
:106DC0008E0ECCF80C3000210E9B1A48CEF80C30F9
:106DD00001F0EAFE80F31000E9193140354004EB80
:106DE00081010004023504EB850540EA1840C860C3
:106DF000297968F3C5012971A9886AF38911A980E5
:106E0000696869F39F210A4667F3010213466FF32D
:106E1000820369602B7194F820341BB1FFF7D6FC14
:106E20000028FBD105B0BDE8F08F2946A4E700BFDC
:106E3000042F0020203300202DE9F04786B006AD56
:106E4000002405F8154D464C0F9E0E9F019280467A
:106E5000109A02932846049605928946A5680397DE
:106E600000F0E4FDA26863682668134401339B1BAD
:106E7000062B73D801213B4801F0CCFEFFF7C2FB83
:106E80000146384801F0C6FE94E80A00A26813449F
:106E900001335B1A062BEDD90A40012704EB82026D
:106EA0004FF0050A47F004036AF38913D36023689F
:106EB0009DF803000733236000F0E0FDB21C2A4078
:106EC00006F1030E0EEA050E04EB8202301D019B53
:106ED000D360284004EB8E0E06EB0A01029BCEF82D
:106EE0000C3004EB80002940B21D039BC36004EB0F
:106EF00081012A4004EB8202049BCB601948059B68
:106F0000D360002101F050FE80F31000F3192B40F4
:106F1000354004EB83030004023504EB850540EAA9
:106F20001840D8602B7968F3C5032B71AB886AF3DE
:106F30008913AB806A6869F39F22134667F30103E4
:106F40006FF382036A602B7194F820341BB1FFF752
:106F50003DFC0028FBD106B0BDE8F08731469BE739
:106F6000042F00202033002030B4144DD5F81044F5
:106F7000002154B1237A8B4214D0234602E01A7ABE
:106F80008A420FD05B68002BF9D10172D5F810341A
:106F90000A4A7BB15B684360D2F8103458600846F7
:106FA00030BC704701310A29E3D14FF0FF31084668
:106FB00030BC7047C2F810044360F0E7042F002093
:106FC00038B5084BD3F81044012583F820543CB160
:106FD0002368657220465B6898476468002CF7D187
:106FE00038BD00BF042F00202DE9F04784B01D46B6
:106FF0000C9C002394F80C802373EB8881460E468A
:107000001746002B3BD1297A05290FD06B7A002B2C
:107010003DD1404BA88853F821A00021FFF794FBF5
:10702000524603463C49204601F098FE062F0FD8F1
:10703000DFE807F0484D535A04633900F168B0683F
:1070400096E80C00019100904946204601F086FE2A
:107050002B7A052B05D06B7A5BB93049204601F0BD
:107060007DFE204601F06EFE84F80C8004B0BDE881
:10707000F0872B4A2B49204601F070FEEDE7284AA5
:1070800000922949294A204601F068FEBBE7A888FA
:10709000FFF786FB264B234953F82020204601F0BA
:1070A0005DFE297AB5E77069316996E80C000390B6
:1070B000B068F76802918DE881004946204601F0EA
:1070C0004DFEC5E74946204601F048FEC0E732685C
:1070D0004946204601F042FEBAE7494696E80C00D0
:1070E000204601F03BFEB3E7B16896E80C0020466D
:1070F0000091494601F032FEAAE7B068F7683169AD
:1071000096E80C0002918DE881004946204601F086
:1071100025FE9DE7F01703005418030060180300D4
:107120004818030050180300301803002818030003
:1071300004180300082900D970472DE9F0471D46BF
:10714000002395F80CA02B73D38882B09146074694
:107150000E46002B62D199F80810052911D099F834
:107160000930002B62D1384BB9F8040053F82140A4
:107170000021FFF7E9FA224603463449284601F088
:10718000EDFD002405E03A5D013401F0E7FD082C37
:107190000AD0A6422E492846F5D82E492846013461
:1071A00001F0DCFD082CF4D12B49284601F0D6FD76
:1071B000002411E017F804800AF044FA40442749FB
:1071C000437813F0970F14BF42462E22284601340D
:1071D00001F0C4FD082C08D0A64221492846E9D870
:1071E000013401F0BBFD082CF6D199F80830052BCD
:1071F00002D099F809305BB91A49284601F0AEFD72
:10720000284601F09FFD85F80CA002B0BDE8F0878C
:10721000154A1649284601F0A1FDEDE7124A0092F1
:107220001349144A284601F099FD94E7B9F804007F
:10723000FFF7B6FA104B0D4953F82020284601F00D
:107240008DFD99F808108EE7F0170300541803001D
:10725000641803006C18030070180300741803000E
:107260005C1803006018030048180300501803005E
:1072700030180300281803000418030030B482B04B
:1072800001248DF80740154B9DF80750186044F213
:107290000104A04259609A6014D044F2020188426D
:1072A00008D072B69DF80730002BFBD162B602B051
:1072B00030BC7047DA60DA6812889A61DA6852681E
:1072C000DA61EEE71A611A6992685A611A691268FE
:1072D0009A611A695268DA61E3E700BFF833002067
:1072E00000B583B002900091019244F20100714612
:1072F0006A4600F003F803B000BD00BF2DE9F0437B
:10730000044685B00E46154672B6FFF759FEFFF7E4
:107310005DFA0028FBD141F201039C4254D03ED9D2
:1073200044F201039C421AD044F202039C4241D130
:107330002A4A2B8810882A496A68000440F0010014
:10734000FFF770FC274B1B68DB0700D500BE2A4601
:107350003146204605B0BDE8F043FFF78FBFD5F8B2
:107360000890DFF878804846B8F8007002F088FC92
:107370002B68019302963F046B68009347F0010766
:1073800003464A4638461849FFF756FDB8F800004C
:107390001649000440F00100FFF750FBD2E7012C32
:1073A00008D10E4B12491888000440F00100FFF785
:1073B00045FBC7E7094B0F491888000440F001005E
:1073C0003246FFF7B1FBBDE7044B0B4918880004B8
:1073D00040F00100FFF732FBB4E700BF582E002059
:1073E00014190300F0ED00E03019030058190300F0
:1073F000D01803006C190300F0180300F8B5204AF8
:10740000204B0025C2F84051C2F84451C2F84851FF
:10741000C2F84C51C2F80051C2F804511B6813B3B2
:107420001949D2F804250C68141B1A6824F07F440B
:10743000A2422F4609D8197CDE69A41A154499B9CD
:107440001EB133461A68A242F5D9104B10491A787A
:107450000B789A420DD00F490F4A41F823504FF450
:107460008013C2F80031F8BD1F745A6998699047BB
:10747000E6E7531CDBB2022B08BF00230B70EAE7E0
:10748000001001401C34002018340020203400205B
:10749000213400203035002000E100E02DE9F04FDC
:1074A000AB4AAC4913780978994287B036D001339A
:1074B000DBB2022B08BF0023A7481370A74A076856
:1074C00052F82310DFF8B0A27A18DAF8003000245E
:1074D00022F07F42026026462046A646ABB11A68DB
:1074E0008A4200F26581DC68C3F800E0891A104422
:1074F000DA6934B13D1825F07F45DE619C605D603E
:107500001E4613460124002BE9D1002C40F0848153
:107510000023029301230393029D07E0DFF858A2A2
:10752000DAF800300293002603961D468C4BDFF8F4
:107530003892DFF848B243F001030493002301932B
:107540004EB37068B3683446F669834A854F116854
:10755000421A22F07F42BA423AD8134423600022F2
:1075600001216260A260E2612174002D62D029686D
:10757000994245D2284603E01168994230D210461C
:10758000C2695B1A002AF7D12360E2612B46C4610D
:107590001D46002ED5D199F8003099F80120724986
:1075A0009A427DD05A1C8878D2B2904203EB4303B2
:1075B0000A7008BF0E7009EBC3010B798C68022BAF
:1075C00049D0032B3BD0012B22D02B461D46E0E7B0
:1075D000091A21F07F41994209D25B1A2360BEE764
:1075E000C91A11602360E2612B46C461D0E7002311
:1075F000012223606360A360E3612274D5B129682E
:10760000CAF80040CB1A2B602346E5611D46C0E74F
:10761000227C002AD9D1C86860600B69A3604F69D9
:10762000E7609BF800708969A161002F8DD06260CE
:1076300010468AE72346CAF800401D46A9E7002203
:107640000DB9C2E71D46EB692A74002BFAD1CAF8BE
:1076500000301D469DE75DB1AC4200F09180A84628
:1076600002E0944209D09046D8F81C20002AF8D1B4
:107670002B46002222741D468BE7444500F0828091
:10768000E1692068C8F81C102B460029F0D00A6870
:1076900002440A60019A9D4218BF01220192E8E764
:1076A000019B13B9029B9D4279D0002D00F0988078
:1076B000294B2E481C68D0F804652D4FD5F8009052
:1076C0003B78351B25F07F450335BBB9294B244951
:1076D0004FF48032C0F844234FF00108C0F804236F
:1076E0004FF40032C3F8802141F001011A60C0F864
:1076F00000804FF43C60884787F80080A9452CBF84
:107700004C446419194824F07F43C0F84035D0F840
:107710000415891B9B1B21F07F4123F07F4303311C
:1077200099420ED90E4BD0F80415C0F8401543F01D
:1077300001034FF43C6098470E4B4FF40031C3F8FF
:10774000001100238BF8003007B0BDE8F08F00BFB8
:10775000203400202134002018340020303500204F
:1077600090190300FEFF7F00243400200010014028
:107770003835002000E100E01C34002022340020D5
:107780002A46A846EB69CAF80030264FCBB1D1692A
:107790001068C8F81C1000293FF47CAF77E7039B02
:1077A000002B82D100238BF8003007B0BDE8F08FAA
:1077B000002C34D1521A02931A6001230393029DC4
:1077C000B4E60592184A1949012090608BF8000030
:1077D0000B604FF43C60049B98473B68059AD6E7E2
:1077E000114E1349134C4FF4803301274FF40030EE
:1077F000C1F880003C43C6F848334FF43C60C6F8FB
:1078000008337760A047094BB7604FF43C601D60B8
:10781000A047094B1D7094E7CAF8003078E6CAF813
:107820000030C7E71C34002000100140183400204D
:1078300000E100E090190300383500202DE9F843FD
:107840001F4D204E204FDFF898804FF480334FF4C7
:1078500000324FF001090024C6F8802047EA0907EA
:10786000C5F848334FF43C60C5F80833C5F80490B8
:10787000B847C5F808904FF43C60C8F80040B847D6
:10788000124B13481349144A1C70144B04600C70BB
:1078900014704FF48011E0220B2098701C705C7003
:1078A000C6F8801186F814233160C5F8084586F8BB
:1078B0001123D5F80435C8F800302046BDE8F88318
:1078C0000010014000E100E090190300383500206D
:1078D0001C340020203400202134002024340020D7
:1078E00018340020074B9B780BB9082070473AB139
:1078F00030B10368187C0028F7D159745A61704779
:1079000007207047243400202DE9F043264CA3784B
:1079100083B01BB9082003B0BDE8F0830028F9D07C
:10792000042903D8072003B0BDE8F0834369002B86
:10793000F0D0064602A8737C0025012B00F8015DFB
:107940000CBF8946A94690460F4600F06FF8637851
:10795000A07821785A1CD2B2904208BF2A469142A0
:107960001BD003EB430304EBC30301200F49187141
:107970009E60D1F804159DF80700D9601F61C3F817
:107980001490C3F81880627000F078F8084B4FF438
:1079900080122846C3F80021BDE79DF8070000F0DB
:1079A0006DF80420B7E700BF243400200010014028
:1079B00000E100E070B51B4CA37882B013B9082039
:1079C00002B070BD0028FAD04369002BF7D00646FC
:1079D00002A8002500F8015D357400F027F86278F0
:1079E000A0782178531CDBB2984208BF2B469942FD
:1079F00012D002EB420204EBC20202219DF8070002
:107A000096601171637000F039F8074B4FF48012E3
:107A10002846C3F80021D3E79DF8070000F02EF8B0
:107A20000420CDE72434002000E100E0F0B4EFF3BF
:107A3000108472B60E4B9A68B2B90E4901259D604A
:107A4000D1F880700C4D2E463D401D60C1F880601D
:107A5000D1F884505D604FF0FF33C1F8843002707C
:107A600004B962B6F0BC704701230370F8E700BFA9
:107A7000A43C002000E100E0FC06FFBD094B9A6831
:107A800072B168B910B4EFF3108272B606491C687F
:107A90000C605C684C60986002B962B65DF8044B9B
:107AA000704700BFA43C002000E100E0F0B5364C78
:107AB000364F668865684FEA860E0EEB060107EBC7
:107AC000810183B0496801F58050002D59D06A8842
:107AD000033205EB8202904208D91368013305D0C6
:107AE0005388033302EB8303984214D20EEB060350
:107AF00007EB8303DB68002B3AD0254D2548296826
:107B00000227052600230122AF80267003B0BDE8BE
:107B1000F04001F0DFBC4FF6FF7C9588654514D03E
:107B2000158895B162605388194D1A48AE88296846
:107B3000033300259BB200959B0001EB86010325D2
:107B4000257001F02FFC03B0F0BD8342CED21A683D
:107B500001321A46CAD05D88033503EB850398428B
:107B6000DBD20EEB060307EB8303DB68002BC4D1EB
:107B7000084804250122257003B0BDE8F04001F05B
:107B8000A9BC01F10802A6E7783500205035002095
:107B9000A03500208C2E0020F0B543688C464BB1F8
:107BA000364AD468A34205D31269934202D813F02F
:107BB000030546D00023DFF8CCE0ACF80030012705
:107BC0004FF6FF75DEF80460002106F580520029AB
:107BD00034D04B88033301EB8301914209D37B1CE2
:107BE000ACF800709FB2032F0EF1140EEAD1002002
:107BF000F0BD0B680133F2D04B88033301EB8303F4
:107C00009A42ECD38C88AC420BD00C884CB18C6877
:107C100003689C42DBD11A4B41601B890381012020
:107C2000F0BD9A42DBD91C6801341946D7D05C8874
:107C3000033403EB84039342D1D8E3E706F1080150
:107C4000CBE70F4A048912899442B3D104689A6839
:107C50009442AFD10B484268934203D902F5805257
:107C6000934207D382699342C1D902F5805293426D
:107C7000BDD20125ACF800500120F0BD8C2E0020B3
:107C800078350020503500202DE9F04FDFF8F082E4
:107C9000DFF8C8A2DFF8C8928BB00646D8F80040DB
:107CA000002C00F0F4802278531E052B00F276821F
:107CB000DFE803F03E4B4B1B1B03002E40F0B1806E
:107CC0009AF80C30002B00F09581A44B1E731B78A2
:107CD000013B062B00F26282DFE813F06B028601A3
:107CE0005801240160024D026C01002E40F0998081
:107CF0002379012B00F0B181C0F09481022B41F671
:107D00001D5018BF0F2005AD002341F61D52AB607A
:107D10000593EB602B61904208BF184606902378CC
:107D2000023B042B3FD8DFE803F0702B645960005E
:107D3000002E40F08F802379032B00F2A380DFE830
:107D400013F0E500D400C900AE00A58A002E6AD069
:107D5000A37D022B40F24B81AE00731909EB830324
:107D6000E28819897E4F03310A441A81354407EBB2
:107D70008507E2887B89033B9B1A7B810120C2E750
:107D800002238DF814302389ADF82030A388ADF894
:107D90002230E3680793A37DA3F10603B3FA83F3CC
:107DA0005B098DF824306F4C04F1100654F8043B45
:107DB000284603B19847B442F8D16B496B48002676
:107DC000C8F8006000F0BEFE0121694800F030FFF5
:107DD00000287FF463AF0BB0BDE8F08F04238DF86B
:107DE0001430E388ADF82030DDE705238DF814303A
:107DF000D9E703238DF81430E388ADF820302389C8
:107E0000ADF82230E3680793CDE701238DF81430F5
:107E10002389ADF82030A388ADF82230E3680793BA
:107E2000C1E701206FE7AE00731909EB8303A17D61
:107E3000B3F808B05B684A4F03EB8B0B062900F2DE
:107E4000B582DFE811F017016D013E0151016001BB
:107E50007F013301474B00225A60012053E7012381
:107E60009800184409EB80030024596809F8204061
:107E700000940823404A414801F094FA0028AAD00F
:107E8000D8F800403B4B00225A600E203BE73649B1
:107E9000364800F027FE3A4B0446186003E7394D98
:107EA000354A29683548002626710823009601F0D6
:107EB00079FABAF802302C68A98803EB830309EB3E
:107EC000830209F8236053682B60022354601181F8
:107ED000AB80D3E72B4A2948116800232371022481
:107EE0009480012201F0F6FAC8E799F80030022BDD
:107EF00000F05A821A4B1B7D022BB0D01D4B012182
:107F00000022197041F61D505A60FCE61D4B1E4AB6
:107F100019681A480123237100230093082301F0F4
:107F200041FAABE7BAF8023003EB830309EB8302B3
:107F3000D368002B00F03481124B104819680222DC
:107F40009A800524002301228AF8004001F0C2FA39
:107F500000283FF440AFD8F80040D4E67835002040
:107F6000503500203C350020B8350020B82B0020CB
:107F7000AC350020B0350020A01903008C2E002065
:107F800088350020A035002098190300DAF8042075
:107F9000B548538884880168B448033301EB8401F1
:107FA0009BB2002400949B0003248AF8004001F057
:107FB000F9F9CDE7AC4BAE4A1968AC480023009301
:107FC0000724CAF8043008238AF8004001F0EAF9CF
:107FD000BEE7A54ADAF80410938849880B440333B6
:107FE000022193808AF80010FFF760FDB0E7A14FEF
:107FF000AE00BBE6A04B1B78072B3FF669AE01A293
:1080000052F823F003820200D17C0200D17C0200EE
:10801000D37F02003B820200B57F0200B57F0200E1
:108020005D82020005AD0223237105966E60AE608D
:10803000E368059328460DF11201FFF7ADFD002816
:1080400040F091810A26002330462B606B60AB60C4
:10805000EB602B61D8F8004060E6884B1B78002B62
:1080600040F0188131460822854809F03CFB022681
:1080700005ADE8E702230022A375042300925946C8
:10808000E2187A4801F08EF900283FF4A4AEA17DF1
:108090000E2002290CD8721909EB8202E18853895B
:1080A000D8F80040033B5B1A53812CE641F61D5083
:1080B000731909EB8303E288198903310A441A8191
:1080C000E9E723696948002B0CBF01230323002241
:1080D000A3750BF108010092042304F10C0201F0D6
:1080E00061F90028D3D176E6E38822695F48012749
:1080F000A77500270BF10C019B00009701F052F9C6
:108100000028C4D167E65F4BA2691A6018460022B6
:108110005D495A60FFF740FD0028ABD10A20F2E527
:10812000032A14BF062305230022A3750BF10401C3
:108130000092042304F108024C4801F033F90028AE
:10814000A5D148E6504B4F4AB3F800B051684748B4
:108150004E4A00234FF0060E84F816E000930423E5
:1081600001F020F9002892D10BEB8B0B07EB8B076A
:1081700001233B742FE6BAF802303E4F9A001344B5
:1081800007EB830700237968414A009306240823FC
:1081900036488AF8004001F005F9D9E60F20B2E52B
:1081A00051683248042401228AF8004001F092F913
:1081B000CEE69AF80A3053B1D9F80C3000228AF88A
:1081C0000A2023B999F81020002A40F0E8809AF894
:1081D0000B3053B1D9F8203000228AF80B2023B994
:1081E00099F82430002B40F0D98000238AF8003021
:1081F000AAF80230CAF80430D8F8004041F61D5001
:1082000081E599F81420BAF8081099F80030B2FA0C
:1082100082F252090131B3FA83F35B098AF80B2029
:10822000AAF80810002201218AF80A30AAF80220D0
:108230008AF80C208AF80010BDE7BAF802300A4824
:108240000C4F046885889A00D11809EB81014E68AB
:108250004C60022406600D81848090E701238AF837
:1082600000309AF80A30A6E7A03500208C2E0020B6
:10827000981903005035002078350020B0350020D3
:10828000983500208C3500204C350020B8190300AB
:10829000A019030046488588012D10D8454F029645
:1082A0004FF6FF7E0397AE00731909EB830219F8AE
:1082B000233073B10135ADB2022D8580F3D1082290
:1082C00000213B4809F00FFAD8F8004041F61D5054
:1082D00019E55768036807F58052002B5BD0598871
:1082E000033103EB8101914202D3029B0360E1E77A
:1082F0000B680133F9D04B88033301EB83039342BE
:10830000F3D8B1F804C0F4451ED0B1F800B0BBF109
:10831000000F19D0B4F806B00160E3450B46DCD17C
:1083200000230093244A2548039F042301F03AF8D0
:1083300038B9731907EB830701233B740BB0BDE811
:10834000F08F0E2605AD7EE69342CED2196801313C
:108350001946CAD0B3F802C00CF1030C03EB8C032E
:108360009342C2D8CDE70699134A8B88E3800B88E5
:108370002381124800960423BDF8124001F012F840
:1083800008B10E265FE60B4B04EB840403EB840478
:10839000012323741FE507F10801A4E70123AAF8CC
:1083A0000230FFF783FBD3E5002359E50F2070E689
:1083B0009835002050350020B81903008C2E00207D
:1083C0004068FFF761BC00BF2DE9F04782B0002A8A
:1083D00060D0B2F8008057880E46054601A947488C
:1083E000994600F041FB1C220446002109F07BF96C
:1083F000002C30D04FF0000A84F80090A4F81480CC
:1084000084F816A07368236101213D4800F002FC46
:10841000E060338823817388A380B9F1030FE7807C
:108420002DD0A4F80AA001A9344800F04BFB3DB1BF
:1084300000236B60E168334A29601289AB722A819C
:108440000121314800F0D8FB044690B100242046B9
:1084500002B0BDE8F0872D4B08EB880803EB8802DB
:1084600008245389033BDB1B2046538102B0BDE83F
:10847000F087FFF709FC204602B0BDE8F08704232F
:10848000A3752B68A36101A9A4F80AA01B4800F0FA
:1084900019FBCDE70F89FA1C92B240F2FD34A242DB
:1084A00001D90924D3E7194C94F80080B8F1000FE2
:1084B00007D16689258935441544ADB2B5F5806F7D
:1084C0000FD3257DDFF844E04DB9BEF81E60BEF83D
:1084D0001C5035441544ADB2B5F5806F09D307245F
:1084E000B5E7454605EB850504EB8504324462811A
:1084F00072E74FF001084546F4E700BFB82B0020B3
:10850000A835002078350020AC35002050350020FB
:1085100060B159B170B582B00C460DF10601054647
:10852000FFF73AFB20B90A2002B070BD0520704762
:10853000BDF8063008486E6803EB830300EB830048
:108540000C30012100F066FB26606B6801220C33C1
:1085500063600020AA72E7E75035002050B110B5E3
:1085600082B00DF106010446FFF716FB20B90A2080
:1085700002B010BD05207047BDF80630094A03EB74
:10858000830302EB8303DA6812B9062002B010BD40
:10859000A27A002AF9D0DA680021013ADA600846A6
:1085A000A172E5E7503500201E4B1B7813B902235A
:1085B0001846704740B1CB1C9BB240F2FD3293424B
:1085C00005D909231846704705231846704770B42B
:1085D000154A1678A6B95489158925441D44ADB2AB
:1085E000B5F5806F0CD2354605EB850502EB8502AB
:1085F00023445381068041800023184670BC704795
:10860000147D094D54B9EC8BAD8B25441D44ADB29E
:10861000B5F5806F02D201263546E5E707231846F7
:1086200070BC7047B035002050350020134B1B78CC
:1086300013B9022318467047A8B10388022B02D948
:1086400004231846704710B40D4A418803EB830396
:1086500002EB83038C1C5A89944206DB04231846E0
:108660005DF8044B70470523E4E7033A521A0021F2
:108670005A810B4601804180F1E700BFB0350020F0
:10868000503500200F4B1B780BB90220704759B1B1
:1086900010B40C884FF6FF739C4201D04B882BB965
:1086A00004205DF8044B7047052070474A6812F0BB
:1086B000030201D00320F4E702235DF8044BFFF727
:1086C00083BE00BFB035002032B130B40E4C2478E8
:1086D00024B9022030BC70470520704771B10D8865
:1086E0004FF6FF74A54201D04C8814B9042030BC69
:1086F00070474B689B0703D00320EBE70520E9E7B1
:10870000022330BCFFF760BEB035002020B1104A14
:1087100012781AB902207047052070470029FBD053
:1087200010B40C884FF6FF72944201D04A881AB9EF
:1087300004205DF8044B70474A6812F0030201D030
:108740000320F6E703235DF8044BFFF73DBE00BFAF
:10875000B035002070B5184B1B7882B01BB90224CD
:10876000204602B070BD4FF6FF73984203D1042437
:10877000204602B070BD01A90446104800F074F90B
:108780001C220546002108F0AEFF85B10523012615
:10879000EC8001A92B702E71084800F093F9314646
:1087A000074800F029FA044618B10024D8E7082445
:1087B000D6E7FFF769FAD3E7B0350020B82B0020E1
:1087C000AC3500202DE9F047354C247814B902204F
:1087D000BDE8F08762B35BB3B3F804E0BEF1010F0C
:1087E00023D8DFF8C4804FF6FF7C4FF000090EEB72
:1087F0008E0408EB840718F824406CB91C687D6867
:1088000005F58056002C48D06588033504EB8504B7
:10881000A64210D8C3F800900EF1010E1FFA8EFE8A
:10882000BEF1020FA3F804E0E1D10A20BDE8F08711
:108830000520BDE8F08725680135EBD06588033554
:1088400004EB8505AE42E5D3B4F804A0E24515D0AB
:10885000B4F800A0BAF1000F10D01C60A5888542C2
:10886000CDD125888D42CAD1A168116019680D4B00
:1088700051601B8913810020BDE8F087B542C9D241
:108880002C6801342C46C5D0B5F802A00AF1030AC1
:1088900005EB8A05AE42BDD3D6E705F10804B7E77C
:1088A000B03500207835002050350020314B1B7842
:1088B0000BB90220704741B33AB32DE9F0439688D3
:1088C000012E1FD8DFF8B4C04FF6FF7E4FF000082E
:1088D00006EB86030CEB83071CF823306BB9146896
:1088E0007B6803F58055002C41D06388033304EB8B
:1088F00083039D420BD8C2F800800136B6B2022E27
:108900009680E5D10A20BDE8F083052070471C68F9
:108910000134F0D05C88033403EB8404A542EAD32D
:10892000B3F80490F14513D0B3F80090B9F1000FFB
:108930000ED013601D8885421C46D1D19B680B6008
:1089400012680D4B4A601B890B810020BDE8F08343
:10895000AC42D0D2236801332346CCD0B4F8029085
:1089600009F1030904EB8904A542C4D3D8E708330D
:10897000BFE700BFB035002078350020503500201B
:10898000324B1B780BB902207047D1B1CAB12DE927
:10899000F0439688012E11D8DFF8B8E04FF6FF7C3F
:1089A0004FF0000806EB86030EEB83071EF823301A
:1089B0004BB10136B6B2022E9680F3D10A20BDE843
:1089C000F0830520704714687B6803F58055002C00
:1089D00039D06388033304EB83039D4202D8C2F885
:1089E0000080E6E71C680134F9D05C88033403EBAF
:1089F0008404A542F3D3B3F80490E14513D0B3F84F
:108A00000090B9F1000F0ED013609D8885421C467E
:108A1000DAD19B680B6012680D4B4A601B890B8191
:108A20000020BDE8F083AC42D9D223680133D6D010
:108A3000B4F8029009F1030904EB89094D45CED33E
:108A400023464C46D7E70833C7E700BFB0350020C0
:108A5000783500205035002020B119B103680B6033
:108A6000002070470520704730B482B050E8013FC5
:108A70009DB2C48925448489A54228BF2D1B048941
:108A8000A54202BFBFF32F8F002207E0C5EA03050E
:108A900040E80154002CE9D14FF001028DF8032089
:108AA0000193019B9DF803200B602AB10B8800689D
:108AB000184402B030BC704702F0FF03184602B001
:108AC00030BC70470A884B889A4201D0002070471A
:108AD00050E8012FC2EA024240E80123002BF7D1FF
:108AE0000120704730B482B050E8023F1FFAA3F56E
:108AF000C488A54202BFBFF32F8F00220DE0C489B6
:108B000025448489A54228BF2D1BC3EA054540E8BA
:108B10000254002CE8D14FF001028DF8032001939C
:108B2000019B9DF803200B602AB14B880068184414
:108B300002B030BC704702F0FF03184602B030BCF0
:108B4000704700BF0A884B889A4201D000207047C6
:108B500050E8022FC2EA224240E80223002BF7D15C
:108B60000120704701F01F024B09012100EB830037
:108B7000914000F025B800BF10B4012201F01F049D
:108B80004B0902FA04F100EB8300C9435DF8044B82
:108B900000F024B84B0901F01F0150F82300C84031
:108BA00000F00100704700BF00B550E8002F0B46F1
:108BB00040E8003E9EF0000FF7D110465DF804FB40
:108BC00000B550E8003F43EA010240E8002E9EF065
:108BD000000FF6D110465DF804FB00BF00B550E869
:108BE000003F03EA010240E8002E9EF0000FF6D19C
:108BF00010465DF804FB00BF00B550E8002F02EB03
:108C0000010340E8003E9EF0000FF6D110465DF8EB
:108C100004FB00BF00B550E8003F03EB010240E851
:108C2000002E9EF0000FF6D110465DF804FB00BF49
:108C300000B550E8003FA3EB010240E8002E9EF093
:108C4000000FF6D110465DF804FB00BF00B501230C
:108C500050E8002F42EA030E40E800E191F0000FD7
:108C6000F6D170465DF804FB00B5002350E800EF34
:108C70000EEA030240E8002191F0000FF6D17046A1
:108C80005DF804FBB8B130B4416882680468521AD8
:108C9000D2B2531E2160DBB242B101680A685C1E89
:108CA000551C0D601370E3B2FF2BF6D10368002052
:108CB000187130BC70470E20704700BF70B582B08D
:108CC00002AB002503F8015D04461846FEF7AEFE30
:108CD000236861681A688A4210D9511E1960216898
:108CE000A3680E680879A58A12F8012CE4689B1B1A
:108CF000DBB2984205FB024538BF0B719DF80700B7
:108D0000FEF7BCFE284602B070BD00BF30B583B090
:108D100002AB002203F8012D054618460C46FEF76B
:108D200085FE2A681368591C1160E968AA8A641ACA
:108D3000B4FBF2F41C709DF80700FEF79FFE03B031
:108D400030BD00BF826802B9704710B50446436960
:108D50000168006998470023A36010BD0EB400B5F8
:108D600082B0039929B102AA04AB42F8043D00F095
:108D700095F802B05DF804EB03B070472DE9F84FA9
:108D80001746B942884606461D46DDF828B00B9ABC
:108D90007DD30B464FF00109B3FBF7F39F4209F176
:108DA0000109F9D9A94538BFA94612F0010A02D133
:108DB000BBF1000F49D1B268012402E0013D07FB7D
:108DC00004F4012DFAD8B8FBF4F18F42F7D9324DF3
:108DD00005E0B4FBF7F4A4B1B8FBF4F1B268685C49
:108DE000531CB36033689854B26873689A4201FBAD
:108DF0001488EED33046FFF7A5FFB4FBF7F4002C40
:108E0000EAD1BAF1000F16D0BBF1000F33D0CB4539
:108E100088BF20243ED9B3683268591CB160D4544D
:108E2000B26873689A420BF1FF3B06D2BBF1000FA8
:108E300009D0D945EFD3BDE8F88F3046FFF782FF60
:108E4000BBF1000FF5D1BDE8F88F93071AD42024A9
:108E5000D945B0D2B2683368511CB1609C54B26835
:108E600073689A420BF1FF3B07D2BBF1000FA3D00E
:108E7000D945F0D3A0E7BDE8F88F3046FFF762FF91
:108E8000B268F2E7002D0CBF30242024E0E74FF059
:108E9000010987E7BDE8F88FBC190300002900F03D
:108EA00061822DE9F04F064685B091460C460B785D
:108EB000DFF8ECA40DE0B2683168501CB0608B5450
:108EC000B26873689A4280F0D3802378002B00F058
:108ED000BA800134002B00F0B680252BEBD14FF087
:108EE0000008214614F8013B2D2B00F0BB80302BED
:108EF00000F0BB802B2B00F0AD802A2B00F0BC8053
:108F0000A3F13005EAB2092A98BF013102D9A6E1DE
:108F1000A2F130050C4611F8013BA3F1300005EB3E
:108F20008502092803EB4202F2D91A462E2A00F0E4
:108F3000AF80002701E014F8012F02F0FB03682B3B
:108F4000F9D0253A532A79D8DFE812F07601780073
:108F50007800780078007800780078007800780051
:108F60007800780078007800780078007800780041
:108F70007800780078007800780078007800780031
:108F80007800780078007800780078007800780021
:108F90007800780078007800780078007800780011
:108FA0007800780078007800780078007800780001
:108FB0007800660178007800780078007800780002
:108FC00078007800780078005101F9007800780086
:108FD00078007800F9007800780078007800780050
:108FE0007800540078007800C9007800B900780053
:108FF00078006601D9F80020131DC9F80030B36865
:1090000031681568581C3022B060CA54B368726861
:10901000934280F0AE813268581C7821B060D15400
:10902000B26873689A4280F0A081002208230192FE
:109030002946009310223046FFF7A0FE0134237822
:10904000002B7FF446AF337B002B40F0028105B04C
:10905000BDE8F08F214614F8013B2D2B48F00408A1
:109060007FF445AF48F001083BE748F0020838E7D5
:109070003046FFF767FE28E7D9F800301A1DC9F817
:1090800000204A781D682E2A01F101047FF451AFB7
:109090006278A2F13003092B04F101044FF00007BC
:1090A0003FF64BAF07EB870702EB470714F8012F9A
:1090B000A2F13003092BA7F13007F3D93DE7D9F826
:1090C00000301A1DC9F800201968CDF804803B460D
:1090D00000950A223046FFF751FE0134AFE7D9F878
:1090E00000301A1DC9F8002018F0010F1F6840F069
:1090F000BD80002F00F05281384608F0FCFA80460F
:10910000454540F2FB80002D00F0F8804FF0200B29
:1091100005E0454540F2F280002D00F0EF80B26896
:109120003368511CB16003F802B0B26873689A42A8
:1091300005F1FF35EDD33046FFF704FEE9E7D9F836
:1091400000301A1DC9F80020D3F800B08BEAEB7389
:10915000A3EBEB73092B4FF0010108DD8AFB03023F
:10916000DB17C3EBA203092B01F10101F6DCB942C5
:1091700038BF394635B1BBF1000F02DB18F0040FE0
:1091800000D0013D18F0020F6DD118F0010F17D17A
:10919000002D00F0E8808D4288BF202310D9B268EE
:1091A000501CB06030688354B2687068824205F128
:1091B000FF3580F08A80002D00F0D5808D42EED8FA
:1091C000BBF1000FC0F2DA8018F0040F40F0858088
:1091D00008F00303022B00F0A4808DE820013B4639
:1091E00059460A223046FFF7C9FD013427E7D9F86E
:1091F0000020131DC9F80030B36831681278581C7C
:10920000B060CA54B26873689A42FFF417AF304630
:10921000FFF798FD013412E7D9F800301A1DC9F89C
:1092200000201968CDF804803B4600951022304696
:10923000FFF7A4FD013402E7B3683268591CB1603E
:109240004FF02501D154B26873689A42DFD20134DD
:10925000F5E6304605B0BDE8F04FFFF773BD1A469E
:109260000C46002562E6002FAAD08EE7B846C7EB71
:10927000080B18F8012B8AB1B1683368481CB0603C
:109280005A54B26873689A42F1D33046FFF75AFDD8
:10929000C7EB080B18F8012B002AEDD15D457FF6CE
:1092A000CDAE202702E05D457FF6C8AEB2683368D8
:1092B000511CB1609F54B26873689A4205F1FF3542
:1092C000F1D33046FFF73EFDEDE7304603930291C0
:1092D000FFF738FD039B02996DE7B268531CB3603A
:1092E00033682B209854B26873689A42FFF470AFC9
:1092F00030460291FFF726FD029969E7013F17F812
:10930000013F002B3FF49AAEB2683168501CB06048
:109310008B54B26873689A42F1D33046FFF712FD5E
:10932000EDE7002F7FF459AF002D35D08D4288BF77
:1093300030237FF652AFB268501CB060306883545F
:10934000B2687068824205F1FF3503D225B38D42C1
:10935000F1D842E7304603930291FFF7F3FC039BF9
:109360000299F3E7704700252AE73046FFF7EAFC49
:109370005BE63046FFF7E6FCB3684CE6B268531C88
:10938000B36033682D209854B26873689A42CBF169
:10939000000BFFF41DAFABE700251EE7B846AFE6B4
:1093A000676666662DE9F04383B0DDF828C00028C3
:1093B0003DD01646002A4AD0D0F800E0BEF1000F9A
:1093C0004AD01C46F3B14768D7F80490B3FBF9F7CD
:1093D00009FB173737BB11F0030F4BD1B6075ED12E
:1093E000C668B14256D301F1FF3805694444AC4226
:1093F00050D8CDF828C0DEF80C40A44603B0BDE834
:10940000F0436047284A294B1088294A29490924F2
:10941000000440F001000094FDF784FC204603B0F6
:10942000BDE8F083204A214B1088234AEEE71E4A0C
:109430001E4B1088214A1F490E24000440F00100F1
:109440000094FDF76FFC204603B0BDE8F083164A98
:10945000164B10881A4AEEE7134A144B1088154928
:10946000184A0824000440F001000094FDF75AFC5B
:109470002046D4E70C4A0D4B1088134A0D4910249E
:10948000000440F001000094FDF74CFC204603B0BE
:10949000BDE8F083044A054B10880C4AEEE7024A07
:1094A000024B10880A4AE9E7782E0020941B03003B
:1094B000301A0300E81903007C1A0300E0190300C6
:1094C000741A03001C1A0300A81A0300E41A03000C
:1094D000C01A0300F0B583B000283FD0D0F800E0F8
:1094E000BEF1000F49D0B2B14768D7F800C00CF107
:1094F000FF370F422DD1C768B9421BD34E1E0469F6
:109500000CFB0265A54215D8DEF81040A44603B056
:10951000BDE8F0406047204A204B10882049214A8E
:109520000924000440F001000094FDF7FBFB2046F5
:1095300003B0F0BD184A194B10881B4A1849102473
:10954000000440F001000094FDF7ECFB204603B05E
:10955000F0BD114A114B1088144AEFE70E4A0F4B29
:1095600010880F49124A0E24000440F001000094B4
:10957000FDF7D8FB204603B0F0BD074A074B108823
:1095800007490C4A0824000440F001000094FDF74C
:10959000C9FB204603B0F0BD782E0020CC19030093
:1095A000E8190300301A0300341B03000C1B0300EE
:1095B000E01903001C1A030070B528B103681BB141
:1095C000DB69BDE8704018470B4C0C4B0C4D1B1B66
:1095D000A5FB03352D090CD005EB850504EB8505AE
:1095E00023682046143413B1DB69984718B9AC429C
:1095F000F6D1002070BD70BD8C2E0020A02E002062
:10960000CDCCCCCC29DF704728DF7047034B187ACC
:109610000122B0FA80F05A7440097047C435002026
:1096200030B55E4C237A87B0002B67D05C4B1B684B
:10963000022222721A79002A33D0012A25D0196811
:109640008A68CAB100220325059202920092039211
:10965000049201959A6805921A796846002A58D0B2
:10966000012A07D102228DF80020DA681203029243
:109670005B6904938B68984700234A494A482372E0
:109680006360FFF75FFA07B030BDD8681A6910440D
:10969000FFF7BAFFC8B11128D1D10123237207B057
:1096A00030BD9D695A69D9681869521BB2F5805F4F
:1096B00028BF4FF480529208012A38BF0122294462
:1096C0002844FFF79FFF0028E5D1227C3349002A78
:1096D000E5D10A7A002AE2D0022A0AD1C8601A79B2
:1096E00022B3012A05D11A69596901328A421A61E5
:1096F00028D0637CBBB107F0A7FDD0E729492A48F1
:10970000FFF7F0F9264B18600346002890D16060FF
:10971000C5E701228DF800201A690292DA680392E7
:109720005B690493A6E7FFF77BFFB8E79A6959697D
:10973000881AB0F5805F94BF121802F580529142EA
:109740009A61D6D10022227219688868B0B1059258
:10975000009201920292039204929A6805921A79F9
:10976000684682B1012A07D102228DF80020DA680A
:10977000120302925B6904938B68984709490A486F
:10978000FFF7E0F9B5E701228DF800201A6902928F
:10979000DA6803925B690493EEE700BFC4350020EA
:1097A000C0350020BC350020CC2B0020831E012BAF
:1097B00000D9704730B5354C237A87B0002B47D09D
:1097C000022B41D103280AD1E3680133082B44D985
:1097D0002F4B00221B68E26022720D2015E02C4BFB
:1097E00000221B68E2601A79002A38D0012A2BD1A6
:1097F0001A69596901328A421A6125D102284FF04B
:10980000000214BF0D201046227219688A68BAB18E
:109810000022059202920092039204929A680190AB
:1098200005921A7942B3012A07D1DA685B69049379
:109830001303022202938DF800208B686846984734
:1098400014491548FFF77EF9637C1BB107F0FCFC57
:1098500007B030BDFFF7E4FEFAE7E360F4E79A698A
:1098600059698D1AB5F5805F94BF521902F580527F
:1098700091429A61E8D1C1E71869DA685B690290A0
:1098800001258DF8005003920493D6E7C4350020DB
:10989000C0350020BC350020CC2B002000F0FD039B
:1098A000012B00D0704730B5624CA0F10100B0FA36
:1098B00080F0237A4009002287B020746274002B64
:1098C00060D05D4B1B68022222721A79002A46D0B2
:1098D000012A1DD019688A688AB1002203250592E1
:1098E000029200920392049201959A6805921A7965
:1098F0006846002A5AD0012A4FD08B689847002327
:109900004E494F4823726360FFF71CF907B030BD22
:10991000D8681A691044FFF777FE28B11128D9D109
:109920000123237207B030BD227C4249002AF9D1BD
:109930000A7A002AF6D0022A0BD1C8601A79002AC6
:1099400041D0012A05D11A69596901328A421A6146
:1099500045D0637C002B33D007F076FCE2E79D69AD
:109960005A69D9681869521BB2F5805F28BF4FF455
:1099700080529208012A38BF012229442844FFF767
:1099800041FECAE72D492E48FFF7ACF82A4B186074
:109990000346002897D16060C4E702228DF80020BA
:1099A000DA68120302925B690493A6E701228DF83C
:1099B00000201A690292DA6803925B6904939CE7BB
:1099C000FFF72EFEAEE79A695969881AB0F5805FF5
:1099D00094BF121802F5805291429A61B9D10022C7
:1099E000227219688868B0B10592009201920292C1
:1099F000039204929A6805921A79684682B1012A04
:109A000007D102228DF80020DA68120302925B6906
:109A100004938B68984709490948FFF793F898E73A
:109A200001228DF800201A690292DA6803925B69BC
:109A30000493EEE7C4350020C0350020BC3500207B
:109A4000CC2B0020FFF71EB92DE9F041B0F81480AF
:109A5000A8F104084144CF1C0646B7FBF8F7FFF70E
:109A60002DF980B3FFB200250123013F0446A0F881
:109A7000068006600571437128D0804609E063794D
:109A8000AF4203F101036371C8F80000066080462D
:109A90001CD03046FFF712F901350028EFD1667966
:109AA000721E234603D0013082421B68FBD81F6818
:109AB0004EB1002523682146013538461C46FFF784
:109AC00025F9AE42F6D10020BDE8F0812046BDE880
:109AD000F08100BF04300121FFF79CB8F8B50121E7
:109AE00004460430FFF7A4F8C0B200B1F8BD6679AF
:109AF000721E234603D0013082421B68FBD81F68C8
:109B0000002EF3D0002523682146013538461C4637
:109B1000FFF7FCF8AE42F6D1F8BD00BF2DE9F843DF
:109B20000446181DE688B0FBF6F30F46904606FB88
:109B3000130013B1013B2468FCD1351A454528BFF9
:109B40004546B8F1000F15D04FF000092044C5EB91
:109B500008082A4607EB0901043007F09EFD464538
:109B6000A944246835464FF0000028BF4546B8F1A7
:109B7000000FEBD1BDE8F8832DE9F843C688043324
:109B800004460F46B3FBF6F0904606FB103110B1C9
:109B900001382468FCD1751A454528BF4546B8F1FF
:109BA000000F15D04FF000092144C5EB080804311F
:109BB0002A4607EB090007F070FD4645A9442468D2
:109BC00035464FF0000128BF4546B8F1000FEBD1F4
:109BD000BDE8F88341DF7047064A074B10B5002403
:109BE00014701C60BFF35F8F0449054800F032F821
:109BF000204610BDD8350020DC350020C41B0300F2
:109C0000E035002000B583B002A8002300F8013D34
:109C1000FDF70CFFF1EE103A23F09F03E1EE103A4E
:109C2000BFF35F8F0A4B4022C3F884219DF80700E1
:109C3000FDF724FF07F018FB28B920BF40BF20BF65
:109C400003B05DF804FBFFF7C5FF03B05DF804FB4C
:109C500000E100E001600B6843604A68934204BF82
:109C600000234360704700BF426842B101688B68BF
:109C7000134443604A68934204BF00234360704723
:109C800030B4184DA5F59472AB1ADB1003EBD37307
:109C90005B1002EBC30152F83330984228BF0C46E8
:109CA00005D311E052F8333098420CD221468B1A7A
:109CB000DB1003EBD3735B10914202EBC304F1D8CA
:109CC000094830BC70470D46984204D904F1080297
:109CD000AA42D9D3F4E76068034B002808BF1846AE
:109CE000EFE700BFE4200300E4200300F0B4B44B2E
:109CF0001A78062A20D0B34B1B68062B00F08A8006
:109D0000B14AD2F8883043F47003C2F88830BFF308
:109D10004F8FBFF36F8F4FF01023D3F80022002A2C
:109D2000C0F28A81D3F80432002BC0F28581A74BA0
:109D3000A74A1A60F0BC704704331B681807DAD1D1
:109D4000A44B1B6803F0F002302A00F0658103F099
:109D5000E003402B00F060819E4B1B6803F0F00392
:109D6000302B00F01E819B4B1B6803F0F002302A61
:109D700000F0078103F0E003402B00F00281954BD7
:109D80001B6803F0F003302B00F0EB80914B1B6855
:109D900003F0F002302A00F0D08003F0E003402B03
:109DA00000F0CB808B4B1B6803F0F003302B00F0EE
:109DB000B680884B1B6803F0F003302B00F09880CE
:109DC000844B1B6803F0F003502B3FD0814B1B6882
:109DD00003F0F002302A28D003F0E003402B24D017
:109DE0007C4B1B6803F0F002302A03D003F0E00341
:109DF000402B80D14FF08043D3F80024D2077FF569
:109E00007AAF6FF00102C3F800246E4B1B68062B7B
:109E10007FF476AF704B1B68062B7FF471AF6F4AEF
:109E2000136843F4806313606AE76D4B6D4A1B68E7
:109E300003F04F031360624B1B78062B7FF45BAF7C
:109E4000694B1B6818077FF456AFC9E74FF0805283
:109E5000664BD2F80414C3F82015D2F80814C3F8DE
:109E60002415D2F80C14C3F82815D2F81014C3F82E
:109E70002C15D2F81414C3F83015D2F81814C3F8FE
:109E80003415D2F81C14C3F84015D2F82014C3F8C6
:109E90004415D2F82414C3F84815D2F82814C3F88E
:109EA0004C15D2F82C14C3F85015D2F83014C3F85E
:109EB0005415D2F83414C3F86015D2F83814C3F826
:109EC0006415D2F83C14C3F86815D2F840143C4825
:109ED000C3F86C15D2F844140278C3F87015062A3A
:109EE0007FF409AF404B1B681C077FF404AF6DE79C
:109EF0003F4E404C4049414B0527012500203F2261
:109F00003760256008601A602D4B1B78062B7FF4A4
:109F1000F2AE354B1B681D077FF4EDAE50E7284BC2
:109F2000374A1B780321062B11607FF4E4AE2E4BD9
:109F30001B681E077FF4DFAE3BE74FF08043002233
:109F4000C3F80C21C3F81021C3F838251C4B1B782B
:109F5000062B7FF470AF244B1B681F077FF4CBAE3A
:109F600020E72849164ACB68127823F08073062A26
:109F7000CB607FF4C0AE1C4B1B681B077FF4BBAEED
:109F800004E7214B0E4A1B6812782049C3F3423381
:109F9000062A0B60B8D1144B1B681A077FF4ABAECE
:109FA000EDE6074B1A4A1B781A491160062B7FF41D
:109FB000A2AE0D4B1B6819077FF49DAED3E600BF20
:109FC000E00F00F03001001000ED00E0E02B002079
:109FD0000090D003E80F00F0340100103C1700405F
:109FE00058020010E40E0040E40F00F000C00040F2
:109FF0001056004088560040185600401456004045
:10A00000A0050040F0ED00E0440200103C050040D7
:10A0100074C007400DF0ADBA204B214A1B6812787E
:10A020002049C3F30423062A0B608FD11E4B1B6803
:10A0300019073FF491AE5EE61C4B0122C3F80425DC
:10A04000D3F80024002AFBD04FF010231522174923
:10A05000C3F80022D1F80034002BFBD04FF01023BE
:10A0600015221249C3F80422D1F800240F4B002A0C
:10A07000FAD00022C3F80425D3F80024002AFBD02C
:10A08000BFF34F8F0A490B4BCA6802F4E0621343D7
:10A09000CB60BFF34F8F00BFFDE700BF240300106C
:10A0A000E00F00F040350140E40F00F000E0014017
:10A0B00000ED00E00400FA05F0B50C4A0C4B0778FF
:10A0C00046688568C468006953F8213052F8211049
:10A0D00087B08DF814008DF8047002968DF80C503E
:10A0E000049401A8984707B0F0BD00BFF4350020E4
:10A0F000E83500202DE9F04306461E4C16F8047B97
:10A100001D4844F8273015460C460FC885B0DFF8C7
:10A110006CC0DFF86CE04CF827508DE80F00002D84
:10A12000237894F8019094F8028094F803C0257B7A
:10A130008DF8003018BF72463B4694F804E067790A
:10A140008DF8019030466946A668647B8DF80280E0
:10A1500008BF00228DF803C08DF805E08DF8067069
:10A1600002968DF80C508DF80D4000F03FF805B0C8
:10A17000BDE8F083F4350020F8200300E835002026
:10A18000B9A00200164AD2F81831FBB100B500217F
:10A19000144BC2F81811D2F81811DA7F83B0FF2AD5
:10A1A0000191019908D0997F89B101214FF0A04018
:10A1B00001FA02F2C0F80C2500225A771A72596887
:10A1C0001A680948904703B05DF804FB7047012105
:10A1D0004FF0A04001FA02F2C0F80825ECE700BFFA
:10A1E0000030004000360020083600202DE9F04FF6
:10A1F00005797E4F4FEAC50808EB0504A40007EB7C
:10A20000040983B099F81C601EB1082003B0BDE8B2
:10A21000F08FD0F800B08A460646754958468DE85A
:10A220000C0000F0E3F918B1112003B0BDE8F08F85
:10A23000009B3B51019BC9F804309AF80C109AF826
:10A2400000E001294FF0A0444FF0010101FA0EF1A6
:10A2500094BFC4F80C15C4F808159AF800404FF0E4
:10A26000A04E04F5E07401214EF824109AF8014044
:10A27000FF2C00F09F8004F5E07CA1400323CEF882
:10A280000C154EF82C309AF802E0BEF1FF0F00F0EA
:10A2900097800EF5E07C4FF0A041042241F82C207D
:10A2A0009AF802C07346317901EBC10107EB8101D5
:10A2B00081F820C09AF80310FF2926D09AF80420CC
:10A2C0004FF0010C4FF0A0490CFA01F1002A74D0B4
:10A2D000C9F80C159AF803104FF0A04C01F5E07185
:10A2E00003224CF8212031799AF803C001EBC10117
:10A2F00007EB810181F81FC031799AF804C001EBA6
:10A30000C10107EB810181F81EC09AF80010CBF85B
:10A310000815CBF80C45CBF81035DAF80810CBF857
:10A3200024159AF80D109AF80C40003118BF01213D
:10A33000022C4CD0032C47D0012C01D141F002015A
:10A34000CBF85415009B9AF80610CBF8C015002BDB
:10A3500048D007214024CBF80443CBF800153168DE
:10A360009AF80530090B4AB2002A33DB02F1604249
:10A3700002F561425B01DBB282F800333268120BF6
:10A3800042F3C40323F0604323F0030303F160436B
:10A3900003F5614302F01F02012101FA02F2C3F842
:10A3A00080211A60454407EB8507002201237A7754
:10A3B0003B772BE74FF0FF3465E7C9F8081589E7CD
:10A3C000F4464FF0FF336EE741F00601B8E741F085
:10A3D0000401B5E7074A01F00F015B010A44DBB253
:10A3E0001376CBE70723CBF80035DBE700360020F8
:10A3F00085A10200FCEC00E010B568B101280AD18B
:10A400000C4C2369A07033B10CCB0120226198471A
:10A410002369002BF8D110BD064CA368012262709D
:10A42000002BF8D00CCB0020A2609847A368002B2B
:10A43000F8D110BD2436002068B910B5064CA368C9
:10A440000122627033B10CCB0020A2609847A36850
:10A45000002BF8D110BD70472436002030B50128FC
:10A4600083B01CD015D3032811D100F035FD02A80C
:10A4700000231E4C00F8013DFDF7D8FAE368013BCC
:10A48000E360E5685DB39DF80700FDF7F7FA03B0F8
:10A4900030BD174B0122C3F8802003B030BD02A8A5
:10A4A0000023124C00F8013DFDF7C0FA23785BB998
:10A4B00010486360A3602361E36000F0FFFC06F0D6
:10A4C000D3FE80B101232370E3689DF807000133B8
:10A4D0000122E360A270FDF7D1FA03B030BD00F0B5
:10A4E0000FFDA570CFE700F0F7FCEBE72436002066
:10A4F00000E100E0F9A3020070B50A4A0A4B0678B1
:10A500004568047AC06853F8213052F8211084B0AD
:10A5100003908DF8006001958DF8084068469847D3
:10A5200004B070BD3C3600203836002070B50A4AB1
:10A530000A4B067845688468C06853F8213052F8A1
:10A54000211084B003908DF8006001958DF80840CB
:10A550006846984704B070BD3C360020383600206D
:10A56000F0B507460678194D1948DFF870E00C6918
:10A570004B7F45F826400EF8063040F826200C4662
:10A5800094460FCC89B06D460FC594E80F003C7817
:10A590001EF8044085E80F0004965CB9BCF1000F7A
:10A5A0000C4A694607F10C0008BF002201F042F88E
:10A5B00009B0F0BDBCF1000F074A694607F104007D
:10A5C00008BF002201F066FA09B0F0BD3C36002059
:10A5D000383600202DA50200F9A40200B03C00206E
:10A5E000014B1B68184700BF40360020104B9842B3
:10A5F00001D00020704730B583B002A8002300F8D6
:10A60000013D0D46FDF712FA0A4B1C7934B19DF855
:10A610000700FDF733FA112003B030BD01229DF889
:10A6200007001D601A71FDF729FA204603B030BDFE
:10A630000020004040360020034B984203D1034BDA
:10A6400000221A601A717047002000404036002036
:10A65000F0B590F804E0834C4FEACE03E51889B0DA
:10A660002D7915B1082009B0F0BD44F83E200D78D1
:10A67000FF2D00F0DE8025F080022F06049240F1CD
:10A68000D18001254FF0A0469540C6F8085502F547
:10A69000E0724FF0A045032645F822604D78FF2D6B
:10A6A00000F0D38025F080022E06059240F1B380A1
:10A6B00001254FF0A0469540C6F8085502F5E07216
:10A6C0004FF0A045032645F822608D78FF2D00F05D
:10A6D000B88025F080022D06069240F19580012574
:10A6E0004FF0A0469540C6F8085502F5E0724FF0CD
:10A6F000A045032645F82260CD78FF2D00F09D800F
:10A7000025F0800215F0800F4FF0A0464FF00105B4
:10A7100005FA02F5079214BFC6F80855C6F80C559D
:10A7200002F5E0724FF0A045032645F8226002686A
:10A73000049F059E069DC2F86075C2F86465C2F864
:10A740006855079DC2F86C5502680125C2F800558E
:10A7500002688E790D894F79C2F80C75C2F80465CC
:10A76000C2F8085502684D89C2F8105505680022E4
:10A77000C5F800220568C5F800230568C5F81C2146
:10A78000D5F81C6105680496049EC5F81021D5F81B
:10A79000106105680396039EC5F81421D5F814616D
:10A7A00005680296029EC5F80421D5F8045154F8B4
:10A7B0003E200195019D0AB305680A792D0B69B207
:10A7C000002946DB01F1604101F561415201D2B23D
:10A7D00081F800230168090B41F3C40222F06042B2
:10A7E00022F0030202F1604202F5614201F01F0112
:10A7F000012000FA01F1C2F8801111602344012206
:10A8000000201A7109B0F0BD01254FF0A046954017
:10A81000C6F80C5569E701254FF0A0469540C6F8EB
:10A820000C554BE701254FF0A0469540C6F80C5556
:10A830002DE74FF0FF32049230E74FF0FF320792DE
:10A8400075E74FF0FF32069256E74FF0FF32059260
:10A850003BE7054905F00F0552012944D2B20A76BB
:10A86000B8E700BF48360020FCEC00E0F0B4046814
:10A870000E680579C4F820658E88C4F824658E6852
:10A88000C4F82865CE68C4F82C6504680E68C4F85E
:10A8900040658E88C4F844658E68C4F84865C96808
:10A8A000C4F84C15046802F0010101EB5202C4F82F
:10A8B0001425DA0782B03DD413F002023CD10468BB
:10A8C00000290CBF08260C26C4F80022D9B2244C5B
:10A8D00004EBC50254F83540517102251571C4B11D
:10A8E00001F00402002A0DBF2A461222922482247B
:10A8F00015BF32272227B225A22511F0080F1CBF51
:10A900003A462C4611F0100F016808BF2246C1F8E4
:10A91000002301680022C1F80421D1F8041101913B
:10A920001B06019917D4036801211046995102B002
:10A93000F0BC70471022C2E731B102680821C2F8AA
:10A9400000120C26D9B2C2E702680421C2F8001234
:10A950000826D9B2BBE70068304402B0F0BC7047AB
:10A960004836002030B403791A4ADB00D418247921
:10A97000022C06D00168D1F8041131B9012030BC95
:10A9800070470468D4F8045125B1134401201871AC
:10A9900030BC70470123636003790068DB0059B164
:10A9A000D4182179022910D0D0F804110029E5D05B
:10A9B000134401201871EBE7D11809790229F3D16A
:10A9C000D0F804010028DAD0DFE7D0F8041100291C
:10A9D000E7D0DAE74836002000B52B4BD3F810213A
:10A9E00085B052B10021294AC3F81011D3F81011D3
:10A9F000537903910399590740D4234BD3F8142179
:10AA000052B10021214AC3F81411D3F8141153791B
:10AA100002911B0702992BD41B4BD3F81C216AB15E
:10AA200000221A49C3F81C214A79D3F81C3101933A
:10AA300002F0100303F0FF00019AA3B1124BD3F808
:10AA400004216AB10021114AC3F80411D3F804119A
:10AA5000136800910121009811710BB103209847F0
:10AA600005B05DF804FB0B68002BE7D09847E5E7DD
:10AA70001368002BD0D002209847CDE71368002B35
:10AA8000BBD001209847B8E700C0014048360020FD
:10AA90002DE9F041684B1A6888B0002A3CD1674F15
:10AAA00097F82E30002B45D1654B1A68002A5FD1EC
:10AAB000644B1C68002C6BD17E699EB14FF000483E
:10AAC0000125B6FA86F2930003F58C7303F18041F9
:10AAD00001F5E04128FA02F2086826EA020620B9E8
:10AAE000002EEED108B0BDE8F081A3F58C730C60A8
:10AAF00083F0040209680491C2F38002DB088DF838
:10AB000019208DF818308DF814503B68049A05A868
:10AB10009847002ED5D1E5E70022484F1A60196802
:10AB200097F82E3000910099002B3AD097F82F30EB
:10AB3000002B4FD1444B1A68002AB5D00021196070
:10AB400097F82D401A687B8B0192A5B2AB42019A0F
:10AB50003A4A4ED85FD0384B3C4A002119601B68F6
:10AB60000293012302991360354B1A68002A9FD083
:10AB700000221A6008A81B680393022100F80C1D2C
:10AB80003B6803993A7498472E4B1C68002C93D06D
:10AB900000221A601B680593059B3A7408B0BDE853
:10ABA000F081FA68786839898DF814300690ADF82C
:10ABB0001C10002A2CD02648398B7A600122FB60B9
:10ABC0007983398102603B6805A89847002387F89C
:10ABD0002F3065E7FB68786839898DF81420069076
:10ABE000ADF81C10A3B1398B7B60FA607983398191
:10ABF000E9E711895068164E5B1B9BB289B2C91AEE
:10AC000000EB41015383C6F82C16C6F83046A2E784
:10AC100000233B74D7E7D3684BB10D485183012122
:10AC2000C0F82C3682F82F10C0F8304693E7012187
:10AC3000538382F82F108EE70471004050360020B5
:10AC40001071004014710040007100400470004019
:10AC500000700040214B93F82C200AB10820704767
:10AC6000F0B51F4C05781960C4F8F05545781D49BA
:10AC7000C4F8F4556FF000451A74C678C4F8085348
:10AC800083B00A600968184D019101992A608178A2
:10AC900083F82E602D6815480095490183F82D2012
:10ACA0005A6183F82F208025C9B202270122F6B20B
:10ACB000DDF800E083F82C2080F80713C0F88051FD
:10ACC0000560C4F804730EB1C4F80423044B0122D8
:10ACD0000020C3F8002503B0F0BD00BF50360020AF
:10ACE00000700040047100400071004000E100E08D
:10ACF000334B1A7C0AB111207047F0B502F0FF0403
:10AD00000A79012A56D900F10C0703EB47052C4CB0
:10AD10002D79002D43D04D788E7891F800C091F8B0
:10AD200003E02D01360206F4E06605F030053543F8
:10AD30004E790CF003044FEA0E3E45EA040C36054A
:10AD40008D790EF4805406F480164CEA04043443E2
:10AD50002D06060105F08075120406F1804606F501
:10AD6000E04603EB470302F4E0222C431443CD7981
:10AD70000A7A5A711D71C6F81845CB790A7AC6F855
:10AD80001425C6F81035CB790A7AC6F81425C6F80A
:10AD900010350B790B4A012B07D90020F0BD94F830
:10ADA0002D50013584F82D50B5E70123C2F8003548
:10ADB0000020F0BD034AC2F800450A79A3E700BFAE
:10ADC0005036002000700040F0B42D4A2D4B122464
:10ADD000C2F808431D7C022D82B01CD01C7C012CC3
:10ADE0001FD093F82E405860022701250026C2F894
:10ADF00004731D74DE601981E4B9234BC2F82C067C
:10AE0000C2F830161C601B680193019B1560204638
:10AE100002B0F0BC70471120C2F8044302B0F0BC8D
:10AE20007047DC688CB102231120C2F8043302B0F1
:10AE3000F0BC704793F82D40C2F82C063046598379
:10AE4000C2F8304602B0F0BC704793F82E20D860AC
:10AE5000198372B90C4C23680B4A002BFBD00023DA
:10AE600013601268064B0092009AC3F82C06C3F8D0
:10AE70003016034B0222C3F804230020C8E700BFAA
:10AE8000007000405036002000710040084A137CDA
:10AE9000DBB2012B01D00820704792F82E0010B9C8
:10AEA000044A13607047044A00201360704700BFD3
:10AEB000503600200470004000700040054A1379AD
:10AEC0000BB1852070470121106053711846117134
:10AED000704700BF80360020084B1A68D20706D49E
:10AEE0000122E02183F80013C3F880211A604FF09B
:10AEF00080430122C3F81825704700BF00E100E03D
:10AF0000044B01221A604FF08042D2F81834DB0360
:10AF1000FBD470470C00004010B5144B1A6882B087
:10AF200062B10021124A19601B68507900934FF0FA
:10AF300080410123009CC1F8083390B10D4B1A6881
:10AF40006AB100221A601B6801934FF0804202210F
:10AF5000074B0198C2F808131B680120984702B0FC
:10AF600010BD116853718847E8E700BF0001004039
:10AF700080360020040100402DE9F04387B0002610
:10AF8000C94B01961A68012A00F00482C74B1A685F
:10AF9000012A00F0F181C64B1A68012A00F0DE8117
:10AFA000C44B1A68012A00F0CB81C34B1A68012AEE
:10AFB00000F0B881C14B1A68012A00F0A581C04B8E
:10AFC0001A68012A00F09281BE4B1A68012A00F02B
:10AFD0007F81BD4B1A68012A00F0598116F0FF0FDE
:10AFE0001AD0BA4F01250024A30003F180432E425A
:10AFF00003F5C0434FEA45050BD0D3F8100557F8C9
:10B000002420D3F81015C0F30420C1F3014102B18C
:10B0100090470134082CE7D1002E02DB07B0BDE8D1
:10B02000F083AA4C00224FF0FF332746029203938D
:10B0300001260DF1080894F950104D1C2DD0C9B20D
:10B0400021F0C00006AB4FEAD00E03EB0E0201F078
:10B05000070312F80CCC06FA03F31CEA030F1CD00A
:10B060003D18890995F9305057F82590B9F1000F2E
:10B0700000F0E880032900F0E8804FEA800E0EF12E
:10B08000A04E12F8145CDEF800271D40C2F3014206
:10B0900040F0B580032A00F0A281002594F95110F8
:10B0A000481C2FD0C9B221F0C00006AB4FEAD00E29
:10B0B00003EB0E0201F0070312F80CCC06FA03F3BF
:10B0C0001CEA030F1ED007EB000C89099CF930C065
:10B0D00057F82C90B9F1000F00F0C680032900F05A
:10B0E000C6804FEA800E0EF1A04E12F814CCDEF8A6
:10B0F00000271CEA030FC2F3014240F08D80032AAF
:10B1000000F0928194F952104A1C2ED0C9B221F05D
:10B11000C00006AB4FEAD00E03EB0E0201F00703AE
:10B1200012F80CCC06FA03F31CEA030F1DD007EB50
:10B13000000C89099CF930C057F82C90B9F1000F28
:10B1400000F08980032900F088804FEA800E0EF11C
:10B15000A04E12F814CCDEF800271CEA030FC2F34D
:10B16000014265D1032A00F04C8194F953104B1C25
:10B170002CD0C9B221F0C00006AB4FEAD00E03EBD1
:10B180000E0201F0070312F80CCC06FA03F31CEAD6
:10B19000030F1BD007EB000C89099CF930C057F84E
:10B1A0002C90B9F1000F69D0032969D04FEA800EC5
:10B1B0000EF1A04E12F814CCDEF800271CEA030FA3
:10B1C000C2F3014211D1032A00F0F080002D3FF4B8
:10B1D00025AF4FF0A043019AD3F8103593423FF4C6
:10B1E0001DAF029A0193039225E7022AEED10329AB
:10B1F00000F02D81B9F1000FE8D0C847E6E7022A38
:10B200007FF44BAF032900F02B810025B9F1000F2B
:10B210003FF444AFC84741E7022A7FF473AF0329E4
:10B2200000F01881B9F1000F3FF46CAFC84769E72F
:10B23000022A9AD1032900F01081B9F1000F94D0AD
:10B24000C84792E703297FF428AF18F80E501D4332
:10B2500008F80E5011E7032987D118F80EC04CEA00
:10B26000030C08F80EC070E703297FF44BAF18F801
:10B270000EC04CEA030C08F80EC032E70329A5D132
:10B2800018F80EC04CEA030C08F80EC08EE7002236
:10B290001A601B6805934FF0A043059AD3F8103548
:10B2A000019346F0004699E60061004004610040C9
:10B2B000086100400C6100401061004014610040D2
:10B2C000186100401C6100407C610040883600200D
:10B2D000654AD2F8042317067FF57BAE00221A6078
:10B2E0001B680493049B46F0800672E65E4AD2F81F
:10B2F000042352067FF568AE00221A601B6804938F
:10B30000049B46F040065FE6574AD2F804239106B4
:10B310007FF555AE00221A601B680493049B46F02B
:10B3200020064CE6504AD2F80423D0067FF542AE00
:10B3300000221A601B680493049B46F0100639E64D
:10B34000494AD2F8042314077FF52FAE00221A6071
:10B350001B680493049B46F0080626E6424AD2F88E
:10B36000042355077FF51CAE00221A601B68049366
:10B37000049B46F0040613E63B4AD2F804239707E1
:10B380007FF509AE00221A601B680493049B46F007
:10B39000020600E63449D1F8041311F001011CD073
:10B3A0001E601B680493049B1646EFE503297FF497
:10B3B00021AF4FF40033DEF8002722F44032CEF8FC
:10B3C0000027DEF8002701351343EDB2CEF8003731
:10B3D000B9F1000F7FF411AFFBE60E46D6E5032965
:10B3E0007FF414AF4FF40033DEF8002722F440322C
:10B3F000CEF80027DEF800271343CEF800370125EA
:10B4000004E703297FF419AF4FF40033DEF8002777
:10B4100022F44032CEF80027DEF80027013513432E
:10B42000EDB2CEF8003708E703297FF4FBAE4FF406
:10B430000033DEF8002722F44032CEF80027DEF891
:10B44000002701351343EDB2CEF80037EAE64FF49A
:10B450004033B0E74FF44033EBE74FF44033D5E7E8
:10B460004FF44033C0E700BF0060004030B56F4A82
:10B47000D2F8043399058BB05CD5D2F82431002B77
:10B4800058D00023C2F82431D2F8243103934FF46A
:10B490000171674B0398C2F8081393F8291009B992
:10B4A00001215160614902228DF81820D1F88024D1
:10B4B000C1F880249869D968099200220890079100
:10B4C0009A6193E81200DA6106A8A047574AD2F8B9
:10B4D0001C31C3B1564B186A5969884267D293F838
:10B4E000280000F0FF04002861D1C2F81C41D2F806
:10B4F0001C11029102999C68186A196A205C01313A
:10B500001962C2F81C05494AD2F8443183B10021BE
:10B51000474BC2F84411D2F8440193F82910009027
:10B52000009809B1012111609A69414B002A53D159
:10B530000BB030BD3D4AD2F804335B07C6D5D2F814
:10B540000831002BC2D03A4B9969002953D0002111
:10B55000C2F80811D2F8081104910499D868596A00
:10B56000D2F8182542545A6A996901325A62586AC7
:10B570002F4A8842AAD1D169002945D192F82920C1
:10B5800012B92A4A01215160284A4FF40171C2F8C8
:10B590000813596ADA6808910024012007928DF88F
:10B5A000180093E806009C6106A890478EE71F4AA2
:10B5B0000020C2F81C01D2F81C210192019A002936
:10B5C000A1D09A688DF8180008915861079206A8D2
:10B5D00093E80600904796E70022586AD9689A6176
:10B5E0000122089007918DF8182006A893E806001C
:10B5F00090470BB030BDC2F80811D2F80801059091
:10B600000598D2F81825B2E7D568546A1069916197
:10B6100000230121D060D36153628DF81810079583
:10B62000089492E80A0006A898474FE700200040D7
:10B63000E43600202DE9F041604E05792C2303FB10
:10B64000056382B093F82A301BB1082002B0BDE830
:10B65000F0810F4604465A4900689046FEF7C6FF3F
:10B6600018B1112002B0BDE8F0813A68511C0BD02E
:10B670004FF0A04101239340C1F808353B6803F522
:10B68000E073032241F823207B685A1C06D003F59F
:10B69000E0734FF0A042002142F823102368BA69FA
:10B6A000C3F82425797D3B7D22680B43C2F86C35B5
:10B6B00097E806002368C3F81425C3F80C153B7DF2
:10B6C000012B51D02C2303FB05F3F218C2F80480A0
:10B6D0003A69F250B8F1000F35D023683A7F394FFC
:10B6E0000021C3F81C11D3F81C3100932368DDF846
:10B6F00000E0C3F84411D3F8441123680191019983
:10B70000C3F804732168090B4BB2002B4EDB03F125
:10B71000604303F561435201D2B283F800232268EB
:10B72000120B42F3C40323F0604323F0030303F13D
:10B73000604303F5614302F01F02012101FA02F2A6
:10B74000C3F880211A602C23246803FB05630022C0
:10B7500004250121C4F8005583F82A109A61DA61A2
:10B7600083F829205A6171E7BB68591C06D003F59C
:10B77000E0734FF0A042002142F82310FB685A1CEE
:10B780000DD001224FF0A04102FA03F3C1F80835B1
:10B79000FB6803F5E073032241F82320FB6822686D
:10B7A000B968C2F80835C2F810158BE7064B01F0EE
:10B7B0000F0152010B44D2B21A76B0E7E4360020F2
:10B7C0006DB4020080000200FCEC00E0F8B52F4DE3
:10B7D000047902682C2303FB045300215B68C2F840
:10B7E000001583B103682A4AC3F808230368294E69
:10B7F0001B0B5AB25209203203F01F03012101FA38
:10B8000003F346F8223003684FF0FF32D3F80CE51B
:10B81000D3F81475D3F80815D3F81065C3F81425B8
:10B82000C3F80C2503689645C3F80825C3F810250E
:10B8300006D00EF5E07E4FF0A043022243F82E2002
:10B840007B1C06D007F5E0774FF0A043022243F8B7
:10B850002720721C06D006F5E0764FF0A0430222A6
:10B8600043F826204B1C06D001F5E0714FF0A043B1
:10B87000022243F821200068FEF7DEFE2C2303FBA2
:10B880000454002384F82A306360F8BDE4360020B5
:10B890008402020000E100E0F0B5304E05792C236F
:10B8A00003FB056385B05C6914B1112005B0F0BDE0
:10B8B0001C62996083F828405A610268C2F81C41F2
:10B8C000D2F81C11026802910121029F9160026866
:10B8D000D3F808E0C2F81C41D2F81C11019101997B
:10B8E000D3F820C0196A5F681EF80CC001311962D4
:10B8F000C2F81CC517B1204605B0F0BD1A6A5C69D4
:10B900000168944203D819E093F82820F2B9D1F8DD
:10B910001C21002AF8D0C1F81C71D1F81C21039217
:10B92000039AD3F820C01A6A1EF80CC001321A62BA
:10B93000C1F81CC51A6AA242E9D30168D1F81C31CA
:10B94000002BFBD00123CB60002000E00F202C2334
:10B9500003FB056300225A61A8E700BFE43600201C
:10B9600070B54A4BD3F8242188B0002A55D1D3F8BA
:10B970001011F1B9454BD3F8442152B10020444A8B
:10B98000C3F84401D3F8444191690194019C002912
:10B9900060D13E4BD3F820214AB100213C4AC3F884
:10B9A0002011D3F8204150690094009C30BB08B0AE
:10B9B00070BDC3F81021D3F81011354803910399D5
:10B9C0008169D3F83C458C42D4D1C569002D50D053
:10B9D000D3F80012C668856121F02001C3F8001277
:10B9E0000369C26101220168C3608DF81840436891
:10B9F00005968DF8102004A89847BBE7D3F84C05AE
:10BA000093688DF818008DF810105161059304A803
:10BA100092E80A00984708B070BD0021C3F82411CD
:10BA2000D3F82421029202228DF81020029AD3F832
:10BA30008004174AC3F880040790D3F83C05D36804
:10BA40008DF818009161D16105931168536804A8BD
:10BA500098478FE7D3F83C458DF81840D36890613C
:10BA600001240593116853688DF8104004A8984785
:10BA70008FE7C36801688561012205938DF818403E
:10BA800043688DF8102004A8984773E70020004011
:10BA9000103700202DE9F0430479704EE7003B1980
:10BAA00006EB830385B093F820301BB1082005B066
:10BAB000BDE8F08389460546694900689046FEF76F
:10BAC00095FD18B1112005B0BDE8F083D9F800202C
:10BAD000511C0CD04FF0A04101239340C1F8083510
